{
  "_format": "hh-sol-artifact-1",
  "contractName": "KYCRegistry",
  "sourceName": "contracts/sdk/KYCRegistry.sol",
  "abi": [
    {
      "inputs": [],
      "stateMutability": "nonpayable",
      "type": "constructor"
    },
    {
      "inputs": [
        {
          "internalType": "address",
          "name": "user",
          "type": "address"
        }
      ],
      "name": "AddressAlreadyVerified",
      "type": "error"
    },
    {
      "inputs": [
        {
          "internalType": "address",
          "name": "target",
          "type": "address"
        }
      ],
      "name": "AddressEmptyCode",
      "type": "error"
    },
    {
      "inputs": [
        {
          "internalType": "address",
          "name": "user",
          "type": "address"
        }
      ],
      "name": "AddressNotVerified",
      "type": "error"
    },
    {
      "inputs": [
        {
          "internalType": "address",
          "name": "implementation",
          "type": "address"
        }
      ],
      "name": "ERC1967InvalidImplementation",
      "type": "error"
    },
    {
      "inputs": [],
      "name": "ERC1967NonPayable",
      "type": "error"
    },
    {
      "inputs": [],
      "name": "FailedCall",
      "type": "error"
    },
    {
      "inputs": [
        {
          "internalType": "uint256",
          "name": "provided",
          "type": "uint256"
        },
        {
          "internalType": "uint256",
          "name": "minimum",
          "type": "uint256"
        }
      ],
      "name": "InsufficientKYCTerm",
      "type": "error"
    },
    {
      "inputs": [
        {
          "internalType": "uint256",
          "name": "parsedTimestamp",
          "type": "uint256"
        },
        {
          "internalType": "uint256",
          "name": "currentTimestamp",
          "type": "uint256"
        }
      ],
      "name": "InvalidDate",
      "type": "error"
    },
    {
      "inputs": [
        {
          "internalType": "uint256",
          "name": "parsedTimestamp",
          "type": "uint256"
        },
        {
          "internalType": "uint256",
          "name": "currentTimestamp",
          "type": "uint256"
        }
      ],
      "name": "InvalidDate",
      "type": "error"
    },
    {
      "inputs": [],
      "name": "InvalidInitialization",
      "type": "error"
    },
    {
      "inputs": [
        {
          "internalType": "bytes32[]",
          "name": "pubSignals",
          "type": "bytes32[]"
        },
        {
          "internalType": "bytes",
          "name": "zkPoints",
          "type": "bytes"
        }
      ],
      "name": "InvalidNoirProof",
      "type": "error"
    },
    {
      "inputs": [],
      "name": "NoUpdateRequired",
      "type": "error"
    },
    {
      "inputs": [],
      "name": "NotInitializing",
      "type": "error"
    },
    {
      "inputs": [
        {
          "internalType": "uint256",
          "name": "nullifier",
          "type": "uint256"
        }
      ],
      "name": "NullifierAlreadyUsed",
      "type": "error"
    },
    {
      "inputs": [
        {
          "internalType": "address",
          "name": "owner",
          "type": "address"
        }
      ],
      "name": "OwnableInvalidOwner",
      "type": "error"
    },
    {
      "inputs": [
        {
          "internalType": "address",
          "name": "account",
          "type": "address"
        }
      ],
      "name": "OwnableUnauthorizedAccount",
      "type": "error"
    },
    {
      "inputs": [
        {
          "internalType": "bytes32",
          "name": "passportHash",
          "type": "bytes32"
        },
        {
          "internalType": "address",
          "name": "boundAddress",
          "type": "address"
        }
      ],
      "name": "PassportAlreadyBound",
      "type": "error"
    },
    {
      "inputs": [],
      "name": "ReentrancyGuardReentrantCall",
      "type": "error"
    },
    {
      "inputs": [],
      "name": "UUPSUnauthorizedCallContext",
      "type": "error"
    },
    {
      "inputs": [
        {
          "internalType": "bytes32",
          "name": "slot",
          "type": "bytes32"
        }
      ],
      "name": "UUPSUnsupportedProxiableUUID",
      "type": "error"
    },
    {
      "anonymous": false,
      "inputs": [
        {
          "indexed": true,
          "internalType": "uint256",
          "name": "newMask",
          "type": "uint256"
        }
      ],
      "name": "CitizenshipMaskUpdated",
      "type": "event"
    },
    {
      "anonymous": false,
      "inputs": [
        {
          "indexed": false,
          "internalType": "uint64",
          "name": "version",
          "type": "uint64"
        }
      ],
      "name": "Initialized",
      "type": "event"
    },
    {
      "anonymous": false,
      "inputs": [
        {
          "indexed": true,
          "internalType": "address",
          "name": "previousOwner",
          "type": "address"
        },
        {
          "indexed": true,
          "internalType": "address",
          "name": "newOwner",
          "type": "address"
        }
      ],
      "name": "OwnershipTransferStarted",
      "type": "event"
    },
    {
      "anonymous": false,
      "inputs": [
        {
          "indexed": true,
          "internalType": "address",
          "name": "previousOwner",
          "type": "address"
        },
        {
          "indexed": true,
          "internalType": "address",
          "name": "newOwner",
          "type": "address"
        }
      ],
      "name": "OwnershipTransferred",
      "type": "event"
    },
    {
      "anonymous": false,
      "inputs": [
        {
          "indexed": true,
          "internalType": "address",
          "name": "user",
          "type": "address"
        },
        {
          "indexed": true,
          "internalType": "bytes32",
          "name": "oldPassportHash",
          "type": "bytes32"
        },
        {
          "indexed": true,
          "internalType": "bytes32",
          "name": "newPassportHash",
          "type": "bytes32"
        },
        {
          "indexed": false,
          "internalType": "uint256",
          "name": "timestamp",
          "type": "uint256"
        }
      ],
      "name": "PassportUpdated",
      "type": "event"
    },
    {
      "anonymous": false,
      "inputs": [
        {
          "indexed": true,
          "internalType": "address",
          "name": "stateKeeper",
          "type": "address"
        }
      ],
      "name": "StateKeeperUpdated",
      "type": "event"
    },
    {
      "anonymous": false,
      "inputs": [
        {
          "indexed": true,
          "internalType": "address",
          "name": "implementation",
          "type": "address"
        }
      ],
      "name": "Upgraded",
      "type": "event"
    },
    {
      "anonymous": false,
      "inputs": [
        {
          "indexed": true,
          "internalType": "address",
          "name": "user",
          "type": "address"
        },
        {
          "indexed": false,
          "internalType": "uint256",
          "name": "timestamp",
          "type": "uint256"
        }
      ],
      "name": "ZKKYCRevoked",
      "type": "event"
    },
    {
      "anonymous": false,
      "inputs": [
        {
          "indexed": true,
          "internalType": "address",
          "name": "user",
          "type": "address"
        },
        {
          "indexed": true,
          "internalType": "uint256",
          "name": "nullifier",
          "type": "uint256"
        },
        {
          "indexed": true,
          "internalType": "bytes32",
          "name": "passportHash",
          "type": "bytes32"
        },
        {
          "indexed": false,
          "internalType": "uint256",
          "name": "timestamp",
          "type": "uint256"
        }
      ],
      "name": "ZKKYCVerified",
      "type": "event"
    },
    {
      "inputs": [],
      "name": "MIN_KYC_TERM",
      "outputs": [
        {
          "internalType": "uint256",
          "name": "",
          "type": "uint256"
        }
      ],
      "stateMutability": "view",
      "type": "function"
    },
    {
      "inputs": [],
      "name": "SELECTOR",
      "outputs": [
        {
          "internalType": "uint256",
          "name": "",
          "type": "uint256"
        }
      ],
      "stateMutability": "view",
      "type": "function"
    },
    {
      "inputs": [],
      "name": "UPGRADE_INTERFACE_VERSION",
      "outputs": [
        {
          "internalType": "string",
          "name": "",
          "type": "string"
        }
      ],
      "stateMutability": "view",
      "type": "function"
    },
    {
      "inputs": [],
      "name": "acceptOwnership",
      "outputs": [],
      "stateMutability": "nonpayable",
      "type": "function"
    },
    {
      "inputs": [],
      "name": "citizenshipMask",
      "outputs": [
        {
          "internalType": "uint256",
          "name": "",
          "type": "uint256"
        }
      ],
      "stateMutability": "view",
      "type": "function"
    },
    {
      "inputs": [
        {
          "internalType": "uint256",
          "name": "currentDate_",
          "type": "uint256"
        },
        {
          "internalType": "bytes",
          "name": "userPayload_",
          "type": "bytes"
        },
        {
          "internalType": "bytes",
          "name": "zkPoints_",
          "type": "bytes"
        }
      ],
      "name": "executeNoir",
      "outputs": [],
      "stateMutability": "nonpayable",
      "type": "function"
    },
    {
      "inputs": [
        {
          "internalType": "uint256",
          "name": "currentDate_",
          "type": "uint256"
        },
        {
          "internalType": "bytes",
          "name": "userPayload_",
          "type": "bytes"
        },
        {
          "internalType": "bytes",
          "name": "zkPoints_",
          "type": "bytes"
        }
      ],
      "name": "executeTD1Noir",
      "outputs": [],
      "stateMutability": "nonpayable",
      "type": "function"
    },
    {
      "inputs": [
        {
          "internalType": "bytes32",
          "name": "passportHash_",
          "type": "bytes32"
        }
      ],
      "name": "getAddressForPassport",
      "outputs": [
        {
          "internalType": "address",
          "name": "",
          "type": "address"
        }
      ],
      "stateMutability": "view",
      "type": "function"
    },
    {
      "inputs": [
        {
          "internalType": "address",
          "name": "user",
          "type": "address"
        }
      ],
      "name": "getEventId",
      "outputs": [
        {
          "internalType": "uint256",
          "name": "",
          "type": "uint256"
        }
      ],
      "stateMutability": "view",
      "type": "function"
    },
    {
      "inputs": [
        {
          "internalType": "uint256",
          "name": "currentDate_",
          "type": "uint256"
        },
        {
          "internalType": "bytes",
          "name": "userPayload_",
          "type": "bytes"
        }
      ],
      "name": "getPublicSignals",
      "outputs": [
        {
          "internalType": "bytes32[]",
          "name": "publicSignals",
          "type": "bytes32[]"
        }
      ],
      "stateMutability": "view",
      "type": "function"
    },
    {
      "inputs": [
        {
          "internalType": "uint256",
          "name": "currentDate_",
          "type": "uint256"
        },
        {
          "internalType": "bytes",
          "name": "userPayload_",
          "type": "bytes"
        }
      ],
      "name": "getPublicSignalsTD1",
      "outputs": [
        {
          "internalType": "bytes32[]",
          "name": "publicSignals",
          "type": "bytes32[]"
        }
      ],
      "stateMutability": "view",
      "type": "function"
    },
    {
      "inputs": [],
      "name": "getVerifierTD1",
      "outputs": [
        {
          "internalType": "address",
          "name": "",
          "type": "address"
        }
      ],
      "stateMutability": "view",
      "type": "function"
    },
    {
      "inputs": [],
      "name": "getVerifierTD3",
      "outputs": [
        {
          "internalType": "address",
          "name": "",
          "type": "address"
        }
      ],
      "stateMutability": "view",
      "type": "function"
    },
    {
      "inputs": [
        {
          "internalType": "address",
          "name": "user_",
          "type": "address"
        }
      ],
      "name": "getZKKYCStatus",
      "outputs": [
        {
          "internalType": "bool",
          "name": "isVerified",
          "type": "bool"
        },
        {
          "components": [
            {
              "internalType": "uint256",
              "name": "nullifier",
              "type": "uint256"
            },
            {
              "internalType": "bytes32",
              "name": "passportHash",
              "type": "bytes32"
            },
            {
              "internalType": "uint256",
              "name": "minExpirationDate",
              "type": "uint256"
            },
            {
              "internalType": "uint64",
              "name": "verifiedAt",
              "type": "uint64"
            }
          ],
          "internalType": "struct KYCRegistry.ZKKYCData",
          "name": "data",
          "type": "tuple"
        }
      ],
      "stateMutability": "view",
      "type": "function"
    },
    {
      "inputs": [
        {
          "internalType": "address",
          "name": "stateKeeper_",
          "type": "address"
        },
        {
          "internalType": "address",
          "name": "verifierTD3_",
          "type": "address"
        },
        {
          "internalType": "address",
          "name": "verifierTD1_",
          "type": "address"
        },
        {
          "internalType": "uint256",
          "name": "citizenshipMask_",
          "type": "uint256"
        }
      ],
      "name": "initialize",
      "outputs": [],
      "stateMutability": "nonpayable",
      "type": "function"
    },
    {
      "inputs": [],
      "name": "owner",
      "outputs": [
        {
          "internalType": "address",
          "name": "",
          "type": "address"
        }
      ],
      "stateMutability": "view",
      "type": "function"
    },
    {
      "inputs": [
        {
          "internalType": "bytes32",
          "name": "",
          "type": "bytes32"
        }
      ],
      "name": "passportHashToAddress",
      "outputs": [
        {
          "internalType": "address",
          "name": "",
          "type": "address"
        }
      ],
      "stateMutability": "view",
      "type": "function"
    },
    {
      "inputs": [],
      "name": "pendingOwner",
      "outputs": [
        {
          "internalType": "address",
          "name": "",
          "type": "address"
        }
      ],
      "stateMutability": "view",
      "type": "function"
    },
    {
      "inputs": [],
      "name": "proxiableUUID",
      "outputs": [
        {
          "internalType": "bytes32",
          "name": "",
          "type": "bytes32"
        }
      ],
      "stateMutability": "view",
      "type": "function"
    },
    {
      "inputs": [],
      "name": "renounceOwnership",
      "outputs": [],
      "stateMutability": "nonpayable",
      "type": "function"
    },
    {
      "inputs": [
        {
          "internalType": "address",
          "name": "user_",
          "type": "address"
        }
      ],
      "name": "revokeZKKYC",
      "outputs": [],
      "stateMutability": "nonpayable",
      "type": "function"
    },
    {
      "inputs": [],
      "name": "stateKeeper",
      "outputs": [
        {
          "internalType": "contract StateKeeper",
          "name": "",
          "type": "address"
        }
      ],
      "stateMutability": "view",
      "type": "function"
    },
    {
      "inputs": [
        {
          "internalType": "address",
          "name": "newOwner",
          "type": "address"
        }
      ],
      "name": "transferOwnership",
      "outputs": [],
      "stateMutability": "nonpayable",
      "type": "function"
    },
    {
      "inputs": [
        {
          "internalType": "uint256",
          "name": "citizenshipMask_",
          "type": "uint256"
        }
      ],
      "name": "updateCitizenshipMask",
      "outputs": [],
      "stateMutability": "nonpayable",
      "type": "function"
    },
    {
      "inputs": [
        {
          "internalType": "address",
          "name": "stateKeeper_",
          "type": "address"
        }
      ],
      "name": "updateStateKeeper",
      "outputs": [],
      "stateMutability": "nonpayable",
      "type": "function"
    },
    {
      "inputs": [
        {
          "internalType": "address",
          "name": "newImplementation",
          "type": "address"
        },
        {
          "internalType": "bytes",
          "name": "data",
          "type": "bytes"
        }
      ],
      "name": "upgradeToAndCall",
      "outputs": [],
      "stateMutability": "payable",
      "type": "function"
    },
    {
      "inputs": [
        {
          "internalType": "uint256",
          "name": "",
          "type": "uint256"
        }
      ],
      "name": "usedNullifiers",
      "outputs": [
        {
          "internalType": "bool",
          "name": "",
          "type": "bool"
        }
      ],
      "stateMutability": "view",
      "type": "function"
    },
    {
      "inputs": [
        {
          "internalType": "address",
          "name": "",
          "type": "address"
        }
      ],
      "name": "zkKycData",
      "outputs": [
        {
          "internalType": "uint256",
          "name": "nullifier",
          "type": "uint256"
        },
        {
          "internalType": "bytes32",
          "name": "passportHash",
          "type": "bytes32"
        },
        {
          "internalType": "uint256",
          "name": "minExpirationDate",
          "type": "uint256"
        },
        {
          "internalType": "uint64",
          "name": "verifiedAt",
          "type": "uint64"
        }
      ],
      "stateMutability": "view",
      "type": "function"
    }
  ],
  "bytecode": "0x60a06040523060805234801561001457600080fd5b5061001d610022565b6100d4565b7ff0c57e16840df040f15088dc2f81fe391c3923bec73e23a9662efc9c229c6a00805468010000000000000000900460ff16156100725760405163f92ee8a960e01b815260040160405180910390fd5b80546001600160401b03908116146100d15780546001600160401b0319166001600160401b0390811782556040519081527fc7f505b2f371ae2175ee4913f4499e1f2633a7b5936321eed1cdaeb6115181d29060200160405180910390a15b50565b6080516126f66100fd60003960008181610fa101528181610fca01526110f901526126f66000f3fe6080604052600436106101b75760003560e01c806394002fb3116100ec578063c63e19a91161008a578063e30c397811610064578063e30c39781461057c578063eb5afddf14610591578063f2fde38b146105a8578063fc6e4bce146105c857600080fd5b8063c63e19a91461051c578063cf756fdf1461053c578063d50505131461055c57600080fd5b8063aad24061116100c6578063aad2406114610448578063ad3cb1cc14610488578063b65c8c73146104c6578063c3e6f8f9146104fc57600080fd5b806394002fb31461037c5780639cfb031e146103f2578063a542c3d71461042857600080fd5b8063537e9e5b116101595780637786e0be116101335780637786e0be1461031257806379246a981461033257806379ba5097146103525780638da5cb5b1461036757600080fd5b8063537e9e5b146102c7578063715018a6146102dd57806376434812146102f257600080fd5b80633d4f7ed7116101955780633d4f7ed7146102405780634c417aaa1461027d5780634f1ef2861461029f57806352d1902d146102b257600080fd5b8063053c238d146101bc5780630cc912ef146101e6578063177dcd6014610213575b600080fd5b3480156101c857600080fd5b506101d36202000181565b6040519081526020015b60405180910390f35b3480156101f257600080fd5b50610206610201366004612126565b61069e565b6040516101dd91906121a8565b34801561021f57600080fd5b506102286106b6565b6040516001600160a01b0390911681526020016101dd565b34801561024c57600080fd5b507f3844f6f56a171c93056bdfb3ce2525778ef493f53ef90b0283983867a69d2129546001600160a01b0316610228565b34801561028957600080fd5b5061029d6102983660046121d0565b6106d7565b005b61029d6102ad3660046121ed565b610778565b3480156102be57600080fd5b506101d3610797565b3480156102d357600080fd5b506101d360005481565b3480156102e957600080fd5b5061029d6107b4565b3480156102fe57600080fd5b5061029d61030d3660046121d0565b6107c8565b34801561031e57600080fd5b506101d361032d3660046121d0565b6108c5565b34801561033e57600080fd5b5061029d61034d366004612226565b61095e565b34801561035e57600080fd5b5061029d610a4c565b34801561037357600080fd5b50610228610a94565b34801561038857600080fd5b506103c96103973660046121d0565b60026020819052600091825260409091208054600182015492820154600390920154909291906001600160401b031684565b604080519485526020850193909352918301526001600160401b031660608201526080016101dd565b3480156103fe57600080fd5b5061022861040d366004612296565b6000908152600360205260409020546001600160a01b031690565b34801561043457600080fd5b5061029d610443366004612296565b610ac9565b34801561045457600080fd5b50610478610463366004612296565b60046020526000908152604090205460ff1681565b60405190151581526020016101dd565b34801561049457600080fd5b506104b9604051806040016040528060058152602001640352e302e360dc1b81525081565b6040516101dd91906122ff565b3480156104d257600080fd5b506102286104e1366004612296565b6003602052600090815260409020546001600160a01b031681565b34801561050857600080fd5b50600154610228906001600160a01b031681565b34801561052857600080fd5b5061029d610537366004612226565b610b01565b34801561054857600080fd5b5061029d610557366004612312565b610b5c565b34801561056857600080fd5b50610206610577366004612126565b610d52565b34801561058857600080fd5b50610228610d60565b34801561059d57600080fd5b506101d36276a70081565b3480156105b457600080fd5b5061029d6105c33660046121d0565b610d89565b3480156105d457600080fd5b5061065f6105e33660046121d0565b604080516080810182526000808252602082018190529181018290526060810182905250506001600160a01b03166000908152600260208181526040928390208351608081018552815481526001820154928101929092529182015492810192909252600301546001600160401b031660608201819052151591565b60408051921515835281516020808501919091528201518382015281015160608084019190915201516001600160401b0316608082015260a0016101dd565b606060006106ac8484610e0e565b9150505b92915050565b60006000805160206126818339815191525b546001600160a01b0316919050565b6106df610f64565b6001600160a01b03811661072e5760405162461bcd60e51b81526020600482015260116024820152704b59433a207a65726f206164647265737360781b60448201526064015b60405180910390fd5b600180546001600160a01b0319166001600160a01b0383169081179091556040517f70fc5c063245e45074f1f3dbc5740c2cee758e238b45e695e65e9decca015a0890600090a250565b610780610f96565b61078982611024565b610793828261102c565b5050565b60006107a16110ee565b506000805160206126a183398151915290565b6107bc610f64565b6107c66000611137565b565b6107d0610f64565b6001600160a01b0381166000908152600260205260408120600301546001600160401b0316900361081f5760405163ac12c8b360e01b81526001600160a01b0382166004820152602401610725565b6001600160a01b03811660008181526002602081815260408084208054600182018054878455908790559482018690556003918201805467ffffffffffffffff1916905584865290835281852080546001600160a01b03191690558085526004835293819020805460ff1916905551428152929391927fce73f0e679ee17e73d070ce5840baae00739cfb369cc0ca7d0e1c5d2367bd00b910160405180910390a2505050565b604080516060810182524681523060208201526001600160a01b0383168183015290516304b98e1d60e31b815260009173__$e42d85122f6128c9a7dd8478ad2c48bccc$__916325cc70e89161091d91600401612363565b602060405180830381865af415801561093a573d6000803e3d6000fd5b505050506040513d601f19601f820116820180604052508101906106b09190612394565b610968838361116f565b60006109748484610e0e565b7f3844f6f56a171c93056bdfb3ce2525778ef493f53ef90b0283983867a69d212954604051633a94343960e21b81529192508291600080516020612681833981519152916001600160a01b03169063ea50d0e4906109d890879086906004016123ad565b602060405180830381865afa1580156109f5573d6000803e3d6000fd5b505050506040513d601f19601f82011682018060405250810190610a1991906123d2565b610a3a57818460405163221d53ef60e11b81526004016107259291906123f4565b610a4486866115ad565b505050505050565b3380610a56610d60565b6001600160a01b031614610a885760405163118cdaa760e01b81526001600160a01b0382166004820152602401610725565b610a9181611137565b50565b6000807f9016d09d72d40fdae2fd8ceac6b6234c7706214fd39c1cd1e609a0528c1993005b546001600160a01b031692915050565b610ad1610f64565b600081815560405182917f28b8baebb44ddfb02608bab291fc0cd0901379f9883c0b04e7179ff53af0a00591a250565b610b0b838361116f565b6000610b178484611751565b6000805160206126818339815191528054604051633a94343960e21b815292935083926001600160a01b039091169063ea50d0e4906109d890879086906004016123ad565b7ff0c57e16840df040f15088dc2f81fe391c3923bec73e23a9662efc9c229c6a008054600160401b810460ff1615906001600160401b0316600081158015610ba15750825b90506000826001600160401b03166001148015610bbd5750303b155b905081158015610bcb575080155b15610be95760405163f92ee8a960e01b815260040160405180910390fd5b845467ffffffffffffffff191660011785558315610c1357845460ff60401b1916600160401b1785555b610c1d88886118a4565b610c25611906565b610c2e3361190e565b610c3661191f565b6001600160a01b038916610c8c5760405162461bcd60e51b815260206004820152601d60248201527f4b59433a207a65726f2073746174654b656570657220616464726573730000006044820152606401610725565b600180546001600160a01b0319166001600160a01b038b1690811790915560008781556040517f70fc5c063245e45074f1f3dbc5740c2cee758e238b45e695e65e9decca015a089190a260405186907f28b8baebb44ddfb02608bab291fc0cd0901379f9883c0b04e7179ff53af0a00590600090a28315610d4757845460ff60401b19168555604051600181527fc7f505b2f371ae2175ee4913f4499e1f2633a7b5936321eed1cdaeb6115181d29060200160405180910390a15b505050505050505050565b606060006106ac8484611751565b6000807f237e158222e3e6968b72b9db0d8043aacf074ad9f650f0d1606b4d82ee432c00610ab9565b610d91610f64565b7f237e158222e3e6968b72b9db0d8043aacf074ad9f650f0d1606b4d82ee432c0080546001600160a01b0319166001600160a01b0383169081178255610dd5610a94565b6001600160a01b03167f38d16b8cac22d99fc7c124b9cd0de2d3fa1faef420bfe791d8c362d765e2270060405160405180910390a35050565b60008060008060008086806020019051810190610e2b9190612419565b945094509450945094506000806000841115610e48575082905060015b610e55620200018761192f565b97506000610e62886108c5565b6101608a018190526001600160a01b0389166101808b0152905060015460405163069fab6360e41b81526004810188905260009182916001600160a01b03909116906369fab63090602401608060405180830381865afa158015610eca573d6000803e3d6000fd5b505050506040513d601f19601f82011682018060405250810190610eee91906124c9565b81516101808e01529092509050610f098b8e620151806119af565b60006102008c01526102208b01859052653030303030306102808c018190526102a08c015260006102408c01526102608b01849052653030303030306102c08c01526102e08b018690525b5050505050505050505092915050565b33610f6d610a94565b6001600160a01b0316146107c65760405163118cdaa760e01b8152336004820152602401610725565b306001600160a01b037f000000000000000000000000000000000000000000000000000000000000000016148061100657507f00000000000000000000000000000000000000000000000000000000000000006001600160a01b0316610ffa6119f8565b6001600160a01b031614155b156107c65760405163703e46dd60e11b815260040160405180910390fd5b610a91610f64565b816001600160a01b03166352d1902d6040518163ffffffff1660e01b8152600401602060405180830381865afa925050508015611086575060408051601f3d908101601f1916820190925261108391810190612394565b60015b6110ae57604051634c9c8ce360e01b81526001600160a01b0383166004820152602401610725565b6000805160206126a183398151915281146110df57604051632a87526960e21b815260048101829052602401610725565b6110e98383611a0e565b505050565b306001600160a01b037f000000000000000000000000000000000000000000000000000000000000000016146107c65760405163703e46dd60e11b815260040160405180910390fd5b7f237e158222e3e6968b72b9db0d8043aacf074ad9f650f0d1606b4d82ee432c0080546001600160a01b031916815561079382611a64565b60008060008060008580602001905181019061118b9190612419565b9450945094509450945060006111a088611ad5565b905060006111ad83611ad5565b905060006111be6276a70084612514565b9050808210156111f8576111d28383612527565b60405163328968d360e01b815260048101919091526276a7006024820152604401610725565b60015460405163069fab6360e41b81526004810188905260009182916001600160a01b03909116906369fab63090602401608060405180830381865afa158015611246573d6000803e3d6000fd5b505050506040513d601f19601f8201168201806040525081019061126a91906124c9565b91509150600160009054906101000a90046001600160a01b03166001600160a01b031663e6c292e86040518163ffffffff1660e01b8152600401602060405180830381865afa1580156112c1573d6000803e3d6000fd5b505050506040513d601f19601f820116820180604052508101906112e59190612394565b8251036113345760405162461bcd60e51b815260206004820152601860248201527f4b59433a2070617373706f7274206973207265766f6b656400000000000000006044820152606401610725565b81516113825760405162461bcd60e51b815260206004820152601c60248201527f4b59433a2070617373706f7274206e6f742072656769737465726564000000006044820152606401610725565b6001600160a01b03808b1660009081526002602090815260408083206003908101548d85529252909120546001600160401b039091161515911680158015906113dd57508b6001600160a01b0316816001600160a01b031614155b1561140d5760405163098bfbfb60e41b8152600481018b90526001600160a01b0382166024820152604401610725565b8115611550576001600160a01b038c16600090815260026020526040902060018101548b14801561143e575080548c145b1561145c57604051635f9e40e560e01b815260040160405180910390fd5b8a8160010154146114f5576001600160a01b038d1633146114d35760405162461bcd60e51b815260206004820152602b60248201527f4b59433a206f6e6c792061646472657373206f776e65722063616e207570646160448201526a1d19481c185cdcdc1bdc9d60aa1b6064820152608401610725565b6001810154600090815260036020526040902080546001600160a01b03191690555b80548c1461154a5760008c81526004602052604090205460ff161561153057604051636e10ae0560e11b8152600481018d9052602401610725565b60008c8152600460205260409020805460ff191660011790555b5061159d565b60008b81526004602052604090205460ff161561158357604051636e10ae0560e11b8152600481018c9052602401610725565b60008b8152600460205260409020805460ff191660011790555b5050505050505050505050505050565b6000806000806000858060200190518101906115c99190612419565b6001600160a01b038516600090815260026020526040812060030154959a5093985091965094509250906001600160401b03161580159061162557506001600160a01b0386166000908152600260205260409020600101548414155b90508015611685576001600160a01b0386166000818152600260209081526040918290206001015491514281529192879284927f0c575857838d1be900faacbf5d1976bc279c1d7ac589fc78e615be2b6ad6bca9910160405180910390a4505b604080516080810182528681526020808201878152828401868152426001600160401b03818116606087019081526001600160a01b038e16600081815260028089528a822099518a55965160018a0155945195880195909555516003968701805467ffffffffffffffff19169190921617905589825293835284902080546001600160a01b0319168217905592519182528692889290917f5e853a55a3bd55883fbe73f385f772db3579d29e14ed5af3e779a55ab98e5c4e910160405180910390a45050505050505050565b6000806000806000808680602001905181019061176e9190612419565b94509450945094509450600080600084111561178b575082905060015b6117986202000187611c0a565b975060006117a5886108c5565b6101408a018190526001600160a01b0389166101608b0152905060015460405163069fab6360e41b81526004810188905260009182916001600160a01b03909116906369fab63090602401608060405180830381865afa15801561180d573d6000803e3d6000fd5b505050506040513d601f19601f8201168201806040525081019061183191906124c9565b81516101808e0152909250905061184c8b8e62015180611c8a565b60006101e08c01526102008b01859052653030303030306102608c018190526102808c015260006102208c01526102408b018490526102a08b01869052653030303030306102c08c01526000546102e08c0152610f54565b6118ac611cd3565b60008051602061268183398151915280546001600160a01b039384166001600160a01b0319918216179091557f3844f6f56a171c93056bdfb3ce2525778ef493f53ef90b0283983867a69d21298054929093169116179055565b6107c6611cd3565b611916611cd3565b610a9181611d1c565b611927611cd3565b6107c6611d4e565b6040805160178082526103008201909252600091829190602082016102e080368337019050509050809150826020830152836101c0830152653030303030306101e083015265303030303030610280830152653030303030306102a0830152653030303030306102c0830152653030303030306102e08301525092915050565b60006119ba83611ad5565b90506119c68183611d7c565b6119ec576040516310b99cc360e11b815260048101829052426024820152604401610725565b50506101e09190910152565b60006000805160206126a18339815191526106c8565b611a1782611da4565b6040516001600160a01b038316907fbc7cd75a20ee27fd9adebab32041f755214dbc6bffa90cc0225b39da2e5c2d3b90600090a2805115611a5c576110e98282611e09565b610793611e7f565b7f9016d09d72d40fdae2fd8ceac6b6234c7706214fd39c1cd1e609a0528c19930080546001600160a01b031981166001600160a01b03848116918217845560405192169182907f8be0079c531659141344cd1fd0a4f28419497f9722a3daafe3b4186f6b6457e090600090a3505050565b604080516003808252608082019092526000918291906020820160608036833701905050905060005b6006811015611b9c57600060306001611b18846006612527565b611b229190612527565b611b2d90600861253a565b86901c611b3a9190612551565b60ff169050611b4a600283612580565b15611b555780611b60565b611b6081600a61253a565b83611b6c600285612594565b81518110611b7c57611b7c6125a8565b60200260200101818151611b909190612514565b90525050600101611afe565b50611c0381600081518110611bb357611bb36125a8565b60200260200101516107d0611bc89190612514565b82600181518110611bdb57611bdb6125a8565b602002602001015183600281518110611bf657611bf66125a8565b6020026020010151611e9e565b9392505050565b6040805160178082526103008201909252600091829190602082016102e080368337019050509050809150826020830152836101a0830152653030303030306101c08301526530303030303061026083015265303030303030610280830152653030303030306102a0830152653030303030306102c08301525092915050565b6000611c9583611ad5565b9050611ca18183611d7c565b611cc7576040516310b99cc360e11b815260048101829052426024820152604401610725565b50506101c09190910152565b7ff0c57e16840df040f15088dc2f81fe391c3923bec73e23a9662efc9c229c6a0054600160401b900460ff166107c657604051631afcd79f60e31b815260040160405180910390fd5b611d24611cd3565b6001600160a01b038116610a8857604051631e4fbdf760e01b815260006004820152602401610725565b611d56611cd3565b60017f9b779b17422d0df92223018b32b4d1fa46e071723d6817e2486d003becc55f0055565b6000611d888242612527565b83118015611c035750611d9b8242612514565b83109392505050565b806001600160a01b03163b600003611dda57604051634c9c8ce360e01b81526001600160a01b0382166004820152602401610725565b6000805160206126a183398151915280546001600160a01b0319166001600160a01b0392909216919091179055565b6060600080846001600160a01b031684604051611e2691906125be565b600060405180830381855af49150503d8060008114611e61576040519150601f19603f3d011682016040523d82523d6000602084013e611e66565b606091505b5091509150611e76858383611ec1565b95945050505050565b34156107c65760405163b398979f60e01b815260040160405180910390fd5b600062015180611eaf858585611f1d565b611eb9919061253a565b949350505050565b606082611ed657611ed18261205a565b611c03565b8151158015611eed57506001600160a01b0384163b155b15611f1657604051639996b31560e01b81526001600160a01b0385166004820152602401610725565b5092915050565b60006107b2841015611f2e57600080fd5b838383600062253d8c60046064600c611f48600e886125da565b611f5291906125fa565b611f5e88611324612628565b611f689190612628565b611f7291906125fa565b611f7d906003612650565b611f8791906125fa565b600c80611f95600e886125da565b611f9f91906125fa565b611faa90600c612650565b611fb56002886125da565b611fbf91906125da565b611fcb9061016f612650565b611fd591906125fa565b6004600c611fe4600e896125da565b611fee91906125fa565b611ffa896112c0612628565b6120049190612628565b612010906105b5612650565b61201a91906125fa565b612026617d4b876125da565b6120309190612628565b61203a9190612628565b61204491906125da565b61204e91906125da565b98975050505050505050565b80511561206a5780518082602001fd5b60405163d6bda27560e01b815260040160405180910390fd5b634e487b7160e01b600052604160045260246000fd5b600082601f8301126120aa57600080fd5b81356001600160401b038111156120c3576120c3612083565b604051601f8201601f19908116603f011681016001600160401b03811182821017156120f1576120f1612083565b60405281815283820160200185101561210957600080fd5b816020850160208301376000918101602001919091529392505050565b6000806040838503121561213957600080fd5b8235915060208301356001600160401b0381111561215657600080fd5b61216285828601612099565b9150509250929050565b600081518084526020840193506020830160005b8281101561219e578151865260209586019590910190600101612180565b5093949350505050565b602081526000611c03602083018461216c565b6001600160a01b0381168114610a9157600080fd5b6000602082840312156121e257600080fd5b8135611c03816121bb565b6000806040838503121561220057600080fd5b823561220b816121bb565b915060208301356001600160401b0381111561215657600080fd5b60008060006060848603121561223b57600080fd5b8335925060208401356001600160401b0381111561225857600080fd5b61226486828701612099565b92505060408401356001600160401b0381111561228057600080fd5b61228c86828701612099565b9150509250925092565b6000602082840312156122a857600080fd5b5035919050565b60005b838110156122ca5781810151838201526020016122b2565b50506000910152565b600081518084526122eb8160208601602086016122af565b601f01601f19169290920160200192915050565b602081526000611c0360208301846122d3565b6000806000806080858703121561232857600080fd5b8435612333816121bb565b93506020850135612343816121bb565b92506040850135612353816121bb565b9396929550929360600135925050565b60608101818360005b600381101561238b57815183526020928301929091019060010161236c565b50505092915050565b6000602082840312156123a657600080fd5b5051919050565b6040815260006123c060408301856122d3565b8281036020840152611e76818561216c565b6000602082840312156123e457600080fd5b81518015158114611c0357600080fd5b604081526000612407604083018561216c565b8281036020840152611e7681856122d3565b600080600080600060a0868803121561243157600080fd5b855161243c816121bb565b602087015160408801516060890151608090990151929a91995097965090945092505050565b60006040828403121561247457600080fd5b604080519081016001600160401b038111828210171561249657612496612083565b60405282518152602083015190915081906001600160401b03811681146124bc57600080fd5b6020919091015292915050565b600080608083850312156124dc57600080fd5b6124e68484612462565b91506124f58460408501612462565b90509250929050565b634e487b7160e01b600052601160045260246000fd5b808201808211156106b0576106b06124fe565b818103818111156106b0576106b06124fe565b80820281158282048414176106b0576106b06124fe565b60ff82811682821603908111156106b0576106b06124fe565b634e487b7160e01b600052601260045260246000fd5b60008261258f5761258f61256a565b500690565b6000826125a3576125a361256a565b500490565b634e487b7160e01b600052603260045260246000fd5b600082516125d08184602087016122af565b9190910192915050565b8181036000831280158383131683831282161715611f1657611f166124fe565b6000826126095761260961256a565b600160ff1b821460001984141615612623576126236124fe565b500590565b8082018281126000831280158216821582161715612648576126486124fe565b505092915050565b80820260008212600160ff1b8414161561266c5761266c6124fe565b81810583148215176106b0576106b06124fe56fe3844f6f56a171c93056bdfb3ce2525778ef493f53ef90b0283983867a69d2128360894a13ba1a3210667c828492db98dca3e2076cc3735a920a3ca505d382bbca2646970667358221220488ecb306208829189fb45f6f3146d1d1abbd6135d143b9411a0c6c29470798e64736f6c634300081c0033",
  "linkReferences": {
    "contracts/libraries/Poseidon.sol": {
      "PoseidonUnit3L": [
        {
          "length": 20,
          "start": 2548
        }
      ]
    }
  },
  "deployedLinkReferences": {
    "contracts/libraries/Poseidon.sol": {
      "PoseidonUnit3L": [
        {
          "length": 20,
          "start": 2295
        }
      ]
    }
  }
}