{
  "_format": "hh-sol-artifact-1",
  "contractName": "KYCRegistry",
  "sourceName": "contracts/sdk/KYCRegistry.sol",
  "abi": [
    {
      "inputs": [],
      "stateMutability": "nonpayable",
      "type": "constructor"
    },
    {
      "inputs": [
        {
          "internalType": "address",
          "name": "user",
          "type": "address"
        }
      ],
      "name": "AddressAlreadyVerified",
      "type": "error"
    },
    {
      "inputs": [
        {
          "internalType": "address",
          "name": "target",
          "type": "address"
        }
      ],
      "name": "AddressEmptyCode",
      "type": "error"
    },
    {
      "inputs": [
        {
          "internalType": "address",
          "name": "user",
          "type": "address"
        }
      ],
      "name": "AddressNotVerified",
      "type": "error"
    },
    {
      "inputs": [
        {
          "internalType": "address",
          "name": "implementation",
          "type": "address"
        }
      ],
      "name": "ERC1967InvalidImplementation",
      "type": "error"
    },
    {
      "inputs": [],
      "name": "ERC1967NonPayable",
      "type": "error"
    },
    {
      "inputs": [],
      "name": "FailedCall",
      "type": "error"
    },
    {
      "inputs": [
        {
          "internalType": "uint256",
          "name": "provided",
          "type": "uint256"
        },
        {
          "internalType": "uint256",
          "name": "minimum",
          "type": "uint256"
        }
      ],
      "name": "InsufficientKYCTerm",
      "type": "error"
    },
    {
      "inputs": [
        {
          "internalType": "uint256",
          "name": "parsedTimestamp",
          "type": "uint256"
        },
        {
          "internalType": "uint256",
          "name": "currentTimestamp",
          "type": "uint256"
        }
      ],
      "name": "InvalidDate",
      "type": "error"
    },
    {
      "inputs": [
        {
          "internalType": "uint256",
          "name": "parsedTimestamp",
          "type": "uint256"
        },
        {
          "internalType": "uint256",
          "name": "currentTimestamp",
          "type": "uint256"
        }
      ],
      "name": "InvalidDate",
      "type": "error"
    },
    {
      "inputs": [],
      "name": "InvalidInitialization",
      "type": "error"
    },
    {
      "inputs": [
        {
          "internalType": "bytes32[]",
          "name": "pubSignals",
          "type": "bytes32[]"
        },
        {
          "internalType": "bytes",
          "name": "zkPoints",
          "type": "bytes"
        }
      ],
      "name": "InvalidNoirProof",
      "type": "error"
    },
    {
      "inputs": [],
      "name": "NotInitializing",
      "type": "error"
    },
    {
      "inputs": [
        {
          "internalType": "address",
          "name": "owner",
          "type": "address"
        }
      ],
      "name": "OwnableInvalidOwner",
      "type": "error"
    },
    {
      "inputs": [
        {
          "internalType": "address",
          "name": "account",
          "type": "address"
        }
      ],
      "name": "OwnableUnauthorizedAccount",
      "type": "error"
    },
    {
      "inputs": [
        {
          "internalType": "bytes32",
          "name": "passportHash",
          "type": "bytes32"
        },
        {
          "internalType": "address",
          "name": "user",
          "type": "address"
        }
      ],
      "name": "PassportAlreadyAddedToAddress",
      "type": "error"
    },
    {
      "inputs": [
        {
          "internalType": "bytes32",
          "name": "passportHash",
          "type": "bytes32"
        },
        {
          "internalType": "address",
          "name": "boundAddress",
          "type": "address"
        }
      ],
      "name": "PassportAlreadyBound",
      "type": "error"
    },
    {
      "inputs": [
        {
          "internalType": "bytes32",
          "name": "passportHash",
          "type": "bytes32"
        },
        {
          "internalType": "address",
          "name": "user",
          "type": "address"
        }
      ],
      "name": "PassportNotFound",
      "type": "error"
    },
    {
      "inputs": [],
      "name": "ReentrancyGuardReentrantCall",
      "type": "error"
    },
    {
      "inputs": [],
      "name": "UUPSUnauthorizedCallContext",
      "type": "error"
    },
    {
      "inputs": [
        {
          "internalType": "bytes32",
          "name": "slot",
          "type": "bytes32"
        }
      ],
      "name": "UUPSUnsupportedProxiableUUID",
      "type": "error"
    },
    {
      "anonymous": false,
      "inputs": [
        {
          "indexed": true,
          "internalType": "uint256",
          "name": "newMask",
          "type": "uint256"
        }
      ],
      "name": "CitizenshipMaskUpdated",
      "type": "event"
    },
    {
      "anonymous": false,
      "inputs": [
        {
          "indexed": false,
          "internalType": "uint64",
          "name": "version",
          "type": "uint64"
        }
      ],
      "name": "Initialized",
      "type": "event"
    },
    {
      "anonymous": false,
      "inputs": [
        {
          "indexed": true,
          "internalType": "address",
          "name": "previousOwner",
          "type": "address"
        },
        {
          "indexed": true,
          "internalType": "address",
          "name": "newOwner",
          "type": "address"
        }
      ],
      "name": "OwnershipTransferStarted",
      "type": "event"
    },
    {
      "anonymous": false,
      "inputs": [
        {
          "indexed": true,
          "internalType": "address",
          "name": "previousOwner",
          "type": "address"
        },
        {
          "indexed": true,
          "internalType": "address",
          "name": "newOwner",
          "type": "address"
        }
      ],
      "name": "OwnershipTransferred",
      "type": "event"
    },
    {
      "anonymous": false,
      "inputs": [
        {
          "indexed": true,
          "internalType": "address",
          "name": "user",
          "type": "address"
        },
        {
          "indexed": true,
          "internalType": "bytes32",
          "name": "oldPassportHash",
          "type": "bytes32"
        },
        {
          "indexed": true,
          "internalType": "bytes32",
          "name": "newPassportHash",
          "type": "bytes32"
        },
        {
          "indexed": false,
          "internalType": "uint256",
          "name": "timestamp",
          "type": "uint256"
        }
      ],
      "name": "PassportUpdated",
      "type": "event"
    },
    {
      "anonymous": false,
      "inputs": [
        {
          "indexed": true,
          "internalType": "address",
          "name": "stateKeeper",
          "type": "address"
        }
      ],
      "name": "StateKeeperUpdated",
      "type": "event"
    },
    {
      "anonymous": false,
      "inputs": [
        {
          "indexed": true,
          "internalType": "address",
          "name": "implementation",
          "type": "address"
        }
      ],
      "name": "Upgraded",
      "type": "event"
    },
    {
      "anonymous": false,
      "inputs": [
        {
          "indexed": true,
          "internalType": "address",
          "name": "user",
          "type": "address"
        },
        {
          "indexed": true,
          "internalType": "bytes32",
          "name": "passportHash",
          "type": "bytes32"
        },
        {
          "indexed": false,
          "internalType": "uint256",
          "name": "timestamp",
          "type": "uint256"
        }
      ],
      "name": "ZKKYCRevoked",
      "type": "event"
    },
    {
      "anonymous": false,
      "inputs": [
        {
          "indexed": true,
          "internalType": "address",
          "name": "user",
          "type": "address"
        },
        {
          "indexed": true,
          "internalType": "bytes32",
          "name": "passportHash",
          "type": "bytes32"
        },
        {
          "indexed": false,
          "internalType": "uint256",
          "name": "timestamp",
          "type": "uint256"
        }
      ],
      "name": "ZKKYCVerified",
      "type": "event"
    },
    {
      "inputs": [],
      "name": "MIN_KYC_TERM",
      "outputs": [
        {
          "internalType": "uint256",
          "name": "",
          "type": "uint256"
        }
      ],
      "stateMutability": "view",
      "type": "function"
    },
    {
      "inputs": [],
      "name": "SELECTOR",
      "outputs": [
        {
          "internalType": "uint256",
          "name": "",
          "type": "uint256"
        }
      ],
      "stateMutability": "view",
      "type": "function"
    },
    {
      "inputs": [],
      "name": "UPGRADE_INTERFACE_VERSION",
      "outputs": [
        {
          "internalType": "string",
          "name": "",
          "type": "string"
        }
      ],
      "stateMutability": "view",
      "type": "function"
    },
    {
      "inputs": [],
      "name": "acceptOwnership",
      "outputs": [],
      "stateMutability": "nonpayable",
      "type": "function"
    },
    {
      "inputs": [],
      "name": "citizenshipMask",
      "outputs": [
        {
          "internalType": "uint256",
          "name": "",
          "type": "uint256"
        }
      ],
      "stateMutability": "view",
      "type": "function"
    },
    {
      "inputs": [
        {
          "internalType": "uint256",
          "name": "currentDate_",
          "type": "uint256"
        },
        {
          "internalType": "bytes",
          "name": "userPayload_",
          "type": "bytes"
        },
        {
          "internalType": "bytes",
          "name": "zkPoints_",
          "type": "bytes"
        }
      ],
      "name": "executeNoir",
      "outputs": [],
      "stateMutability": "nonpayable",
      "type": "function"
    },
    {
      "inputs": [
        {
          "internalType": "uint256",
          "name": "currentDate_",
          "type": "uint256"
        },
        {
          "internalType": "bytes",
          "name": "userPayload_",
          "type": "bytes"
        },
        {
          "internalType": "bytes",
          "name": "zkPoints_",
          "type": "bytes"
        }
      ],
      "name": "executeTD1Noir",
      "outputs": [],
      "stateMutability": "nonpayable",
      "type": "function"
    },
    {
      "inputs": [
        {
          "internalType": "bytes32",
          "name": "passportHash_",
          "type": "bytes32"
        }
      ],
      "name": "getAddressForPassport",
      "outputs": [
        {
          "internalType": "address",
          "name": "",
          "type": "address"
        }
      ],
      "stateMutability": "view",
      "type": "function"
    },
    {
      "inputs": [
        {
          "internalType": "address",
          "name": "user_",
          "type": "address"
        }
      ],
      "name": "getAllZKKYCData",
      "outputs": [
        {
          "internalType": "bytes32[]",
          "name": "passportHashes",
          "type": "bytes32[]"
        },
        {
          "components": [
            {
              "internalType": "bytes32",
              "name": "passportHash",
              "type": "bytes32"
            },
            {
              "internalType": "uint256",
              "name": "minExpirationDate",
              "type": "uint256"
            },
            {
              "internalType": "uint64",
              "name": "verifiedAt",
              "type": "uint64"
            }
          ],
          "internalType": "struct KYCRegistry.ZKKYCData[]",
          "name": "kycDataArray",
          "type": "tuple[]"
        }
      ],
      "stateMutability": "view",
      "type": "function"
    },
    {
      "inputs": [
        {
          "internalType": "address",
          "name": "user",
          "type": "address"
        }
      ],
      "name": "getEventId",
      "outputs": [
        {
          "internalType": "uint256",
          "name": "",
          "type": "uint256"
        }
      ],
      "stateMutability": "view",
      "type": "function"
    },
    {
      "inputs": [
        {
          "internalType": "uint256",
          "name": "currentDate_",
          "type": "uint256"
        },
        {
          "internalType": "bytes",
          "name": "userPayload_",
          "type": "bytes"
        }
      ],
      "name": "getPublicSignals",
      "outputs": [
        {
          "internalType": "bytes32[]",
          "name": "publicSignals",
          "type": "bytes32[]"
        }
      ],
      "stateMutability": "view",
      "type": "function"
    },
    {
      "inputs": [
        {
          "internalType": "uint256",
          "name": "currentDate_",
          "type": "uint256"
        },
        {
          "internalType": "bytes",
          "name": "userPayload_",
          "type": "bytes"
        }
      ],
      "name": "getPublicSignalsTD1",
      "outputs": [
        {
          "internalType": "bytes32[]",
          "name": "publicSignals",
          "type": "bytes32[]"
        }
      ],
      "stateMutability": "view",
      "type": "function"
    },
    {
      "inputs": [
        {
          "internalType": "address",
          "name": "user_",
          "type": "address"
        }
      ],
      "name": "getUserPassports",
      "outputs": [
        {
          "internalType": "bytes32[]",
          "name": "",
          "type": "bytes32[]"
        }
      ],
      "stateMutability": "view",
      "type": "function"
    },
    {
      "inputs": [],
      "name": "getVerifierTD1",
      "outputs": [
        {
          "internalType": "address",
          "name": "",
          "type": "address"
        }
      ],
      "stateMutability": "view",
      "type": "function"
    },
    {
      "inputs": [],
      "name": "getVerifierTD3",
      "outputs": [
        {
          "internalType": "address",
          "name": "",
          "type": "address"
        }
      ],
      "stateMutability": "view",
      "type": "function"
    },
    {
      "inputs": [
        {
          "internalType": "address",
          "name": "user_",
          "type": "address"
        },
        {
          "internalType": "bytes32",
          "name": "passportHash_",
          "type": "bytes32"
        }
      ],
      "name": "getZKKYCStatus",
      "outputs": [
        {
          "internalType": "bool",
          "name": "isVerified",
          "type": "bool"
        },
        {
          "components": [
            {
              "internalType": "bytes32",
              "name": "passportHash",
              "type": "bytes32"
            },
            {
              "internalType": "uint256",
              "name": "minExpirationDate",
              "type": "uint256"
            },
            {
              "internalType": "uint64",
              "name": "verifiedAt",
              "type": "uint64"
            }
          ],
          "internalType": "struct KYCRegistry.ZKKYCData",
          "name": "data",
          "type": "tuple"
        }
      ],
      "stateMutability": "view",
      "type": "function"
    },
    {
      "inputs": [
        {
          "internalType": "address",
          "name": "user_",
          "type": "address"
        }
      ],
      "name": "hasAnyVerifiedKYC",
      "outputs": [
        {
          "internalType": "bool",
          "name": "",
          "type": "bool"
        }
      ],
      "stateMutability": "view",
      "type": "function"
    },
    {
      "inputs": [
        {
          "internalType": "address",
          "name": "stateKeeper_",
          "type": "address"
        },
        {
          "internalType": "address",
          "name": "verifierTD3_",
          "type": "address"
        },
        {
          "internalType": "address",
          "name": "verifierTD1_",
          "type": "address"
        },
        {
          "internalType": "uint256",
          "name": "citizenshipMask_",
          "type": "uint256"
        }
      ],
      "name": "initialize",
      "outputs": [],
      "stateMutability": "nonpayable",
      "type": "function"
    },
    {
      "inputs": [],
      "name": "owner",
      "outputs": [
        {
          "internalType": "address",
          "name": "",
          "type": "address"
        }
      ],
      "stateMutability": "view",
      "type": "function"
    },
    {
      "inputs": [
        {
          "internalType": "bytes32",
          "name": "",
          "type": "bytes32"
        }
      ],
      "name": "passportHashToAddress",
      "outputs": [
        {
          "internalType": "address",
          "name": "",
          "type": "address"
        }
      ],
      "stateMutability": "view",
      "type": "function"
    },
    {
      "inputs": [],
      "name": "pendingOwner",
      "outputs": [
        {
          "internalType": "address",
          "name": "",
          "type": "address"
        }
      ],
      "stateMutability": "view",
      "type": "function"
    },
    {
      "inputs": [],
      "name": "proxiableUUID",
      "outputs": [
        {
          "internalType": "bytes32",
          "name": "",
          "type": "bytes32"
        }
      ],
      "stateMutability": "view",
      "type": "function"
    },
    {
      "inputs": [],
      "name": "renounceOwnership",
      "outputs": [],
      "stateMutability": "nonpayable",
      "type": "function"
    },
    {
      "inputs": [
        {
          "internalType": "address",
          "name": "user_",
          "type": "address"
        },
        {
          "internalType": "bytes32",
          "name": "passportHash_",
          "type": "bytes32"
        }
      ],
      "name": "revokeZKKYC",
      "outputs": [],
      "stateMutability": "nonpayable",
      "type": "function"
    },
    {
      "inputs": [],
      "name": "stateKeeper",
      "outputs": [
        {
          "internalType": "contract StateKeeper",
          "name": "",
          "type": "address"
        }
      ],
      "stateMutability": "view",
      "type": "function"
    },
    {
      "inputs": [
        {
          "internalType": "address",
          "name": "newOwner",
          "type": "address"
        }
      ],
      "name": "transferOwnership",
      "outputs": [],
      "stateMutability": "nonpayable",
      "type": "function"
    },
    {
      "inputs": [
        {
          "internalType": "uint256",
          "name": "citizenshipMask_",
          "type": "uint256"
        }
      ],
      "name": "updateCitizenshipMask",
      "outputs": [],
      "stateMutability": "nonpayable",
      "type": "function"
    },
    {
      "inputs": [
        {
          "internalType": "address",
          "name": "stateKeeper_",
          "type": "address"
        }
      ],
      "name": "updateStateKeeper",
      "outputs": [],
      "stateMutability": "nonpayable",
      "type": "function"
    },
    {
      "inputs": [
        {
          "internalType": "address",
          "name": "newImplementation",
          "type": "address"
        },
        {
          "internalType": "bytes",
          "name": "data",
          "type": "bytes"
        }
      ],
      "name": "upgradeToAndCall",
      "outputs": [],
      "stateMutability": "payable",
      "type": "function"
    },
    {
      "inputs": [
        {
          "internalType": "address",
          "name": "",
          "type": "address"
        },
        {
          "internalType": "uint256",
          "name": "",
          "type": "uint256"
        }
      ],
      "name": "userPassports",
      "outputs": [
        {
          "internalType": "bytes32",
          "name": "",
          "type": "bytes32"
        }
      ],
      "stateMutability": "view",
      "type": "function"
    },
    {
      "inputs": [
        {
          "internalType": "address",
          "name": "",
          "type": "address"
        },
        {
          "internalType": "bytes32",
          "name": "",
          "type": "bytes32"
        }
      ],
      "name": "zkKycData",
      "outputs": [
        {
          "internalType": "bytes32",
          "name": "passportHash",
          "type": "bytes32"
        },
        {
          "internalType": "uint256",
          "name": "minExpirationDate",
          "type": "uint256"
        },
        {
          "internalType": "uint64",
          "name": "verifiedAt",
          "type": "uint64"
        }
      ],
      "stateMutability": "view",
      "type": "function"
    }
  ],
  "bytecode": "0x60a06040523060805234801561001457600080fd5b5061001d610022565b6100d4565b7ff0c57e16840df040f15088dc2f81fe391c3923bec73e23a9662efc9c229c6a00805468010000000000000000900460ff16156100725760405163f92ee8a960e01b815260040160405180910390fd5b80546001600160401b03908116146100d15780546001600160401b0319166001600160401b0390811782556040519081527fc7f505b2f371ae2175ee4913f4499e1f2633a7b5936321eed1cdaeb6115181d29060200160405180910390a15b50565b60805161295f6100fd600039600081816112c2015281816112eb015261141a015261295f6000f3fe6080604052600436106101d85760003560e01c806388f861d411610102578063c3e6f8f911610095578063e30c397811610064578063e30c397814610683578063e978aa6114610698578063eb5afddf146106b8578063f2fde38b146106cf57600080fd5b8063c3e6f8f914610603578063c63e19a914610623578063cf756fdf14610643578063d50505131461066357600080fd5b8063abaa309a116100d1578063abaa309a146104d7578063ad3cb1cc1461051f578063ad52ebaa1461055d578063b65c8c73146105cd57600080fd5b806388f861d41461044c5780638da5cb5b1461046c5780639cfb031e14610481578063a542c3d7146104b757600080fd5b806352d1902d1161017a578063715018a611610149578063715018a6146103e25780637786e0be146103f757806379246a981461041757806379ba50971461043757600080fd5b806352d1902d146102f3578063537e9e5b146103085780635bf7c56b1461031e5780635ecfaf2a1461034c57600080fd5b8063177dcd60116101b6578063177dcd60146102565780633d4f7ed7146102835780634c417aaa146102c05780634f1ef286146102e057600080fd5b8063053c238d146101dd5780630b878e69146102075780630cc912ef14610229575b600080fd5b3480156101e957600080fd5b506101f46202000081565b6040519081526020015b60405180910390f35b34801561021357600080fd5b506102276102223660046121f4565b6106ef565b005b34801561023557600080fd5b506102496102443660046122c3565b610937565b6040516101fe9190612345565b34801561026257600080fd5b5061026b61094f565b6040516001600160a01b0390911681526020016101fe565b34801561028f57600080fd5b507f3844f6f56a171c93056bdfb3ce2525778ef493f53ef90b0283983867a69d2129546001600160a01b031661026b565b3480156102cc57600080fd5b506102276102db366004612358565b610970565b6102276102ee366004612375565b610a0c565b3480156102ff57600080fd5b506101f4610a2b565b34801561031457600080fd5b506101f460005481565b34801561032a57600080fd5b5061033e610339366004612358565b610a48565b6040516101fe9291906123ae565b34801561035857600080fd5b506103d46103673660046121f4565b6040805160608082018352600080835260208084018290529284018190526001600160a01b039590951685526002808352838620948652938252938290208251948501835280548552600181015491850191909152909101546001600160401b0316908201819052151591565b6040516101fe929190612430565b3480156103ee57600080fd5b50610227610bd6565b34801561040357600080fd5b506101f4610412366004612358565b610bea565b34801561042357600080fd5b50610227610432366004612463565b610c83565b34801561044357600080fd5b50610227610d71565b34801561045857600080fd5b506101f46104673660046121f4565b610db9565b34801561047857600080fd5b5061026b610dea565b34801561048d57600080fd5b5061026b61049c3660046124d3565b6000908152600460205260409020546001600160a01b031690565b3480156104c357600080fd5b506102276104d23660046124d3565b610e1f565b3480156104e357600080fd5b5061050f6104f2366004612358565b6001600160a01b0316600090815260036020526040902054151590565b60405190151581526020016101fe565b34801561052b57600080fd5b50610550604051806040016040528060058152602001640352e302e360dc1b81525081565b6040516101fe919061253c565b34801561056957600080fd5b506105a96105783660046121f4565b600260208181526000938452604080852090915291835291208054600182015491909201546001600160401b031683565b6040805193845260208401929092526001600160401b0316908201526060016101fe565b3480156105d957600080fd5b5061026b6105e83660046124d3565b6004602052600090815260409020546001600160a01b031681565b34801561060f57600080fd5b5060015461026b906001600160a01b031681565b34801561062f57600080fd5b5061022761063e366004612463565b610e57565b34801561064f57600080fd5b5061022761065e36600461254f565b610eb2565b34801561066f57600080fd5b5061024961067e3660046122c3565b6110a8565b34801561068f57600080fd5b5061026b6110b6565b3480156106a457600080fd5b506102496106b3366004612358565b6110df565b3480156106c457600080fd5b506101f46276a70081565b3480156106db57600080fd5b506102276106ea366004612358565b61114b565b6106f7610dea565b6001600160a01b0316336001600160a01b0316148061071e5750336001600160a01b038316145b6107835760405162461bcd60e51b815260206004820152602b60248201527f4b59433a206f6e6c79206f776e6572206f722061646472657373206f776e657260448201526a2063616e207265766f6b6560a81b60648201526084015b60405180910390fd5b6001600160a01b0382166000908152600260208181526040808420858552909152822001546001600160401b031690036107e257604051632ac650f160e21b8152600481018290526001600160a01b038316602482015260440161077a565b6001600160a01b0382166000818152600260208181526040808420868552825280842084815560018101859055909201805467ffffffffffffffff191690556004815281832080546001600160a01b03191690559282526003909252908120905b81548110156108ed578282828154811061085f5761085f6125a0565b9060005260206000200154036108e5578154829061087f906001906125cc565b8154811061088f5761088f6125a0565b90600052602060002001548282815481106108ac576108ac6125a0565b9060005260206000200181905550818054806108ca576108ca6125df565b600190038181906000526020600020016000905590556108ed565b600101610843565b5081836001600160a01b03167fd5866c24ae7aa535625e9e653096bc036b0275eec3589c16fb6f4da6d20c7e7e4260405161092a91815260200190565b60405180910390a3505050565b6060600061094584846111d0565b9150505b92915050565b60006000805160206128ea8339815191525b546001600160a01b0316919050565b610978611285565b6001600160a01b0381166109c25760405162461bcd60e51b81526020600482015260116024820152704b59433a207a65726f206164647265737360781b604482015260640161077a565b600180546001600160a01b0319166001600160a01b0383169081179091556040517f70fc5c063245e45074f1f3dbc5740c2cee758e238b45e695e65e9decca015a0890600090a250565b610a146112b7565b610a1d82611345565b610a27828261134d565b5050565b6000610a3561140f565b5060008051602061290a83398151915290565b60608060036000846001600160a01b03166001600160a01b03168152602001908152602001600020805480602002602001604051908101604052809291908181526020018280548015610aba57602002820191906000526020600020905b815481526020019060010190808311610aa6575b5050505050915081516001600160401b03811115610ada57610ada612220565b604051908082528060200260200182016040528015610b2557816020015b6040805160608101825260008082526020808301829052928201528252600019909201910181610af85790505b50905060005b8251811015610bd0576001600160a01b03841660009081526002602052604081208451909190859084908110610b6357610b636125a0565b6020908102919091018101518252818101929092526040908101600020815160608101835281548152600182015493810193909352600201546001600160401b0316908201528251839083908110610bbd57610bbd6125a0565b6020908102919091010152600101610b2b565b50915091565b610bde611285565b610be86000611458565b565b604080516060810182524681523060208201526001600160a01b0383168183015290516304b98e1d60e31b815260009173__$e42d85122f6128c9a7dd8478ad2c48bccc$__916325cc70e891610c42916004016125f5565b602060405180830381865af4158015610c5f573d6000803e3d6000fd5b505050506040513d601f19601f820116820180604052508101906109499190612626565b610c8d8383611490565b6000610c9984846111d0565b7f3844f6f56a171c93056bdfb3ce2525778ef493f53ef90b0283983867a69d212954604051633a94343960e21b815291925082916000805160206128ea833981519152916001600160a01b03169063ea50d0e490610cfd908790869060040161263f565b602060405180830381865afa158015610d1a573d6000803e3d6000fd5b505050506040513d601f19601f82011682018060405250810190610d3e9190612664565b610d5f57818460405163221d53ef60e11b815260040161077a929190612686565b610d6986866117a7565b505050505050565b3380610d7b6110b6565b6001600160a01b031614610dad5760405163118cdaa760e01b81526001600160a01b038216600482015260240161077a565b610db681611458565b50565b60036020528160005260406000208181548110610dd557600080fd5b90600052602060002001600091509150505481565b6000807f9016d09d72d40fdae2fd8ceac6b6234c7706214fd39c1cd1e609a0528c1993005b546001600160a01b031692915050565b610e27611285565b600081815560405182917f28b8baebb44ddfb02608bab291fc0cd0901379f9883c0b04e7179ff53af0a00591a250565b610e618383611490565b6000610e6d8484611939565b6000805160206128ea8339815191528054604051633a94343960e21b815292935083926001600160a01b039091169063ea50d0e490610cfd908790869060040161263f565b7ff0c57e16840df040f15088dc2f81fe391c3923bec73e23a9662efc9c229c6a008054600160401b810460ff1615906001600160401b0316600081158015610ef75750825b90506000826001600160401b03166001148015610f135750303b155b905081158015610f21575080155b15610f3f5760405163f92ee8a960e01b815260040160405180910390fd5b845467ffffffffffffffff191660011785558315610f6957845460ff60401b1916600160401b1785555b610f738888611a00565b610f7b611a62565b610f8433611a6a565b610f8c611a7b565b6001600160a01b038916610fe25760405162461bcd60e51b815260206004820152601d60248201527f4b59433a207a65726f2073746174654b65657065722061646472657373000000604482015260640161077a565b600180546001600160a01b0319166001600160a01b038b1690811790915560008781556040517f70fc5c063245e45074f1f3dbc5740c2cee758e238b45e695e65e9decca015a089190a260405186907f28b8baebb44ddfb02608bab291fc0cd0901379f9883c0b04e7179ff53af0a00590600090a2831561109d57845460ff60401b19168555604051600181527fc7f505b2f371ae2175ee4913f4499e1f2633a7b5936321eed1cdaeb6115181d29060200160405180910390a15b505050505050505050565b606060006109458484611939565b6000807f237e158222e3e6968b72b9db0d8043aacf074ad9f650f0d1606b4d82ee432c00610e0f565b6001600160a01b03811660009081526003602090815260409182902080548351818402810184019094528084526060939283018282801561113f57602002820191906000526020600020905b81548152602001906001019080831161112b575b50505050509050919050565b611153611285565b7f237e158222e3e6968b72b9db0d8043aacf074ad9f650f0d1606b4d82ee432c0080546001600160a01b0319166001600160a01b0383169081178255611197610dea565b6001600160a01b03167f38d16b8cac22d99fc7c124b9cd0de2d3fa1faef420bfe791d8c362d765e2270060405160405180910390a35050565b6000806000806000858060200190518101906111ec91906126ab565b9350935093509350611202620200006000611a8b565b9450600061120f85610bea565b61016087018190526101808701859052905061122f868962015180611b0b565b600061020087018190526102208701526530303030303061028087018190526102a087015260006102408701819052610260870152653030303030306102c08701526102e086018290525b505050505092915050565b3361128e610dea565b6001600160a01b031614610be85760405163118cdaa760e01b815233600482015260240161077a565b306001600160a01b037f000000000000000000000000000000000000000000000000000000000000000016148061132757507f00000000000000000000000000000000000000000000000000000000000000006001600160a01b031661131b611b54565b6001600160a01b031614155b15610be85760405163703e46dd60e11b815260040160405180910390fd5b610db6611285565b816001600160a01b03166352d1902d6040518163ffffffff1660e01b8152600401602060405180830381865afa9250505080156113a7575060408051601f3d908101601f191682019092526113a491810190612626565b60015b6113cf57604051634c9c8ce360e01b81526001600160a01b038316600482015260240161077a565b60008051602061290a833981519152811461140057604051632a87526960e21b81526004810182905260240161077a565b61140a8383611b6a565b505050565b306001600160a01b037f00000000000000000000000000000000000000000000000000000000000000001614610be85760405163703e46dd60e11b815260040160405180910390fd5b7f237e158222e3e6968b72b9db0d8043aacf074ad9f650f0d1606b4d82ee432c0080546001600160a01b0319168155610a2782611bc0565b600080600080848060200190518101906114aa91906126ab565b935093509350935060006114bd87611c31565b905060006114ca83611c31565b905060006114db6276a700846126ea565b9050808210156115085760405163328968d360e01b8152600481018390526024810182905260440161077a565b60015460405163069fab6360e41b8152600481018790526000916001600160a01b0316906369fab63090602401602060405180830381865afa158015611552573d6000803e3d6000fd5b505050506040513d601f19601f820116820180604052508101906115769190612719565b80519091506001600160401b03166115ed5760405162461bcd60e51b815260206004820152603460248201527f4b59433a2070617373706f7274206e6f742072656769737465726564206f7220604482015273185b1b081cd95cdcda5bdb9cc81c995d9bdad95960621b606482015260840161077a565b60015460405163da45b38360e01b8152600481018990526000916001600160a01b03169063da45b383906024016040805180830381865afa158015611636573d6000803e3d6000fd5b505050506040513d601f19601f8201168201806040525081019061165a9190612764565b805190915087146116bd5760405162461bcd60e51b815260206004820152602760248201527f4b59433a2073657373696f6e206e6f7420626f756e6420746f20746869732070604482015266185cdcdc1bdc9d60ca1b606482015260840161077a565b6000878152600460205260409020546001600160a01b031680158015906116f65750896001600160a01b0316816001600160a01b031614155b156117265760405163098bfbfb60e41b8152600481018990526001600160a01b038216602482015260440161077a565b6001600160a01b038a1633146117995760405162461bcd60e51b815260206004820152603260248201527f4b59433a206f6e6c792061646472657373206f776e65722063616e20616464206044820152711bdc881d5c19185d19481c185cdcdc1bdc9d60721b606482015260840161077a565b505050505050505050505050565b600080600080848060200190518101906117c191906126ab565b6001600160a01b03841660009081526002602081815260408084208685529091529091200154939750919550935091506001600160401b0316158015611831576001600160a01b038516600090815260036020908152604082208054600181018255908352912001839055611877565b8283866001600160a01b03167f0c575857838d1be900faacbf5d1976bc279c1d7ac589fc78e615be2b6ad6bca94260405161186e91815260200190565b60405180910390a45b604080516060810182528481526020808201858152426001600160401b038181168587019081526001600160a01b038c16600081815260028088528982208d835288528982209851895595516001890155915196909401805467ffffffffffffffff191696909216959095179055600483529284902080546001600160a01b0319168217905592519182528592917f948a8f56069f9c4b18c53af7f4d36d16a8e7ac5aad26dd6f93df6895a0b567a7910160405180910390a350505050505050565b60008060008060008580602001905181019061195591906126ab565b935093509350935061196b620200006000611d66565b9450600061197885610bea565b61014087018190526001600160a01b038616610160880152905061018086018490526119a8868962015180611de6565b60006101e08701819052610200870152653030303030306102608701819052610280870152600061022087018190526102408701526102a08601829052653030303030306102c08701526000546102e087015261127a565b611a08611e2f565b6000805160206128ea83398151915280546001600160a01b039384166001600160a01b0319918216179091557f3844f6f56a171c93056bdfb3ce2525778ef493f53ef90b0283983867a69d21298054929093169116179055565b610be8611e2f565b611a72611e2f565b610db681611e78565b611a83611e2f565b610be8611eaa565b6040805160178082526103008201909252600091829190602082016102e080368337019050509050809150826020830152836101c0830152653030303030306101e083015265303030303030610280830152653030303030306102a0830152653030303030306102c0830152653030303030306102e08301525092915050565b6000611b1683611c31565b9050611b228183611ed8565b611b48576040516310b99cc360e11b81526004810182905242602482015260440161077a565b50506101e09190910152565b600060008051602061290a833981519152610961565b611b7382611f00565b6040516001600160a01b038316907fbc7cd75a20ee27fd9adebab32041f755214dbc6bffa90cc0225b39da2e5c2d3b90600090a2805115611bb85761140a8282611f65565b610a27611fdb565b7f9016d09d72d40fdae2fd8ceac6b6234c7706214fd39c1cd1e609a0528c19930080546001600160a01b031981166001600160a01b03848116918217845560405192169182907f8be0079c531659141344cd1fd0a4f28419497f9722a3daafe3b4186f6b6457e090600090a3505050565b604080516003808252608082019092526000918291906020820160608036833701905050905060005b6006811015611cf857600060306001611c748460066125cc565b611c7e91906125cc565b611c899060086127b9565b86901c611c9691906127d0565b60ff169050611ca66002836127ff565b15611cb15780611cbc565b611cbc81600a6127b9565b83611cc8600285612813565b81518110611cd857611cd86125a0565b60200260200101818151611cec91906126ea565b90525050600101611c5a565b50611d5f81600081518110611d0f57611d0f6125a0565b60200260200101516107d0611d2491906126ea565b82600181518110611d3757611d376125a0565b602002602001015183600281518110611d5257611d526125a0565b6020026020010151611ffa565b9392505050565b6040805160178082526103008201909252600091829190602082016102e080368337019050509050809150826020830152836101a0830152653030303030306101c08301526530303030303061026083015265303030303030610280830152653030303030306102a0830152653030303030306102c08301525092915050565b6000611df183611c31565b9050611dfd8183611ed8565b611e23576040516310b99cc360e11b81526004810182905242602482015260440161077a565b50506101c09190910152565b7ff0c57e16840df040f15088dc2f81fe391c3923bec73e23a9662efc9c229c6a0054600160401b900460ff16610be857604051631afcd79f60e31b815260040160405180910390fd5b611e80611e2f565b6001600160a01b038116610dad57604051631e4fbdf760e01b81526000600482015260240161077a565b611eb2611e2f565b60017f9b779b17422d0df92223018b32b4d1fa46e071723d6817e2486d003becc55f0055565b6000611ee482426125cc565b83118015611d5f5750611ef782426126ea565b83109392505050565b806001600160a01b03163b600003611f3657604051634c9c8ce360e01b81526001600160a01b038216600482015260240161077a565b60008051602061290a83398151915280546001600160a01b0319166001600160a01b0392909216919091179055565b6060600080846001600160a01b031684604051611f829190612827565b600060405180830381855af49150503d8060008114611fbd576040519150601f19603f3d011682016040523d82523d6000602084013e611fc2565b606091505b5091509150611fd285838361201d565b95945050505050565b3415610be85760405163b398979f60e01b815260040160405180910390fd5b60006201518061200b858585612079565b61201591906127b9565b949350505050565b6060826120325761202d826121b6565b611d5f565b815115801561204957506001600160a01b0384163b155b1561207257604051639996b31560e01b81526001600160a01b038516600482015260240161077a565b5092915050565b60006107b284101561208a57600080fd5b838383600062253d8c60046064600c6120a4600e88612843565b6120ae9190612863565b6120ba88611324612891565b6120c49190612891565b6120ce9190612863565b6120d99060036128b9565b6120e39190612863565b600c806120f1600e88612843565b6120fb9190612863565b61210690600c6128b9565b612111600288612843565b61211b9190612843565b6121279061016f6128b9565b6121319190612863565b6004600c612140600e89612843565b61214a9190612863565b612156896112c0612891565b6121609190612891565b61216c906105b56128b9565b6121769190612863565b612182617d4b87612843565b61218c9190612891565b6121969190612891565b6121a09190612843565b6121aa9190612843565b98975050505050505050565b8051156121c65780518082602001fd5b60405163d6bda27560e01b815260040160405180910390fd5b6001600160a01b0381168114610db657600080fd5b6000806040838503121561220757600080fd5b8235612212816121df565b946020939093013593505050565b634e487b7160e01b600052604160045260246000fd5b600082601f83011261224757600080fd5b81356001600160401b0381111561226057612260612220565b604051601f8201601f19908116603f011681016001600160401b038111828210171561228e5761228e612220565b6040528181528382016020018510156122a657600080fd5b816020850160208301376000918101602001919091529392505050565b600080604083850312156122d657600080fd5b8235915060208301356001600160401b038111156122f357600080fd5b6122ff85828601612236565b9150509250929050565b600081518084526020840193506020830160005b8281101561233b57815186526020958601959091019060010161231d565b5093949350505050565b602081526000611d5f6020830184612309565b60006020828403121561236a57600080fd5b8135611d5f816121df565b6000806040838503121561238857600080fd5b8235612393816121df565b915060208301356001600160401b038111156122f357600080fd5b6040815260006123c16040830185612309565b828103602084015280845180835260208301915060208601925060005b818110156124245761240e83855180518252602080820151908301526040908101516001600160401b0316910152565b60209390930192606092909201916001016123de565b50909695505050505050565b821515815260808101611d5f602083018480518252602080820151908301526040908101516001600160401b0316910152565b60008060006060848603121561247857600080fd5b8335925060208401356001600160401b0381111561249557600080fd5b6124a186828701612236565b92505060408401356001600160401b038111156124bd57600080fd5b6124c986828701612236565b9150509250925092565b6000602082840312156124e557600080fd5b5035919050565b60005b838110156125075781810151838201526020016124ef565b50506000910152565b600081518084526125288160208601602086016124ec565b601f01601f19169290920160200192915050565b602081526000611d5f6020830184612510565b6000806000806080858703121561256557600080fd5b8435612570816121df565b93506020850135612580816121df565b92506040850135612590816121df565b9396929550929360600135925050565b634e487b7160e01b600052603260045260246000fd5b634e487b7160e01b600052601160045260246000fd5b81810381811115610949576109496125b6565b634e487b7160e01b600052603160045260246000fd5b60608101818360005b600381101561261d5781518352602092830192909101906001016125fe565b50505092915050565b60006020828403121561263857600080fd5b5051919050565b6040815260006126526040830185612510565b8281036020840152611fd28185612309565b60006020828403121561267657600080fd5b81518015158114611d5f57600080fd5b6040815260006126996040830185612309565b8281036020840152611fd28185612510565b600080600080608085870312156126c157600080fd5b84516126cc816121df565b60208601516040870151606090970151919890975090945092505050565b80820180821115610949576109496125b6565b80516001600160401b038116811461271457600080fd5b919050565b6000602082840312801561272c57600080fd5b50604051602081016001600160401b038111828210171561274f5761274f612220565b60405261275b836126fd565b81529392505050565b6000604082840312801561277757600080fd5b50604080519081016001600160401b038111828210171561279a5761279a612220565b604052825181526127ad602084016126fd565b60208201529392505050565b8082028115828204841417610949576109496125b6565b60ff8281168282160390811115610949576109496125b6565b634e487b7160e01b600052601260045260246000fd5b60008261280e5761280e6127e9565b500690565b600082612822576128226127e9565b500490565b600082516128398184602087016124ec565b9190910192915050565b8181036000831280158383131683831282161715612072576120726125b6565b600082612872576128726127e9565b600160ff1b82146000198414161561288c5761288c6125b6565b500590565b80820182811260008312801582168215821617156128b1576128b16125b6565b505092915050565b80820260008212600160ff1b841416156128d5576128d56125b6565b8181058314821517610949576109496125b656fe3844f6f56a171c93056bdfb3ce2525778ef493f53ef90b0283983867a69d2128360894a13ba1a3210667c828492db98dca3e2076cc3735a920a3ca505d382bbca2646970667358221220c2baeaf76e1170dca9bf7bbd8b7b31750e270bb9fc54b3078da942d6ac3028be64736f6c634300081c0033",
  "linkReferences": {
    "contracts/libraries/Poseidon.sol": {
      "PoseidonUnit3L": [
        {
          "length": 20,
          "start": 3353
        }
      ]
    }
  },
  "deployedLinkReferences": {
    "contracts/libraries/Poseidon.sol": {
      "PoseidonUnit3L": [
        {
          "length": 20,
          "start": 3100
        }
      ]
    }
  }
}