{
  "_format": "hh-sol-artifact-1",
  "contractName": "CelestialsKYC",
  "sourceName": "contracts/CelestialsKYC.sol",
  "abi": [
    {
      "inputs": [],
      "stateMutability": "nonpayable",
      "type": "constructor"
    },
    {
      "inputs": [
        {
          "internalType": "address",
          "name": "user",
          "type": "address"
        }
      ],
      "name": "AddressAlreadyVerified",
      "type": "error"
    },
    {
      "inputs": [
        {
          "internalType": "address",
          "name": "target",
          "type": "address"
        }
      ],
      "name": "AddressEmptyCode",
      "type": "error"
    },
    {
      "inputs": [
        {
          "internalType": "address",
          "name": "user",
          "type": "address"
        }
      ],
      "name": "AddressNotVerified",
      "type": "error"
    },
    {
      "inputs": [
        {
          "internalType": "address",
          "name": "implementation",
          "type": "address"
        }
      ],
      "name": "ERC1967InvalidImplementation",
      "type": "error"
    },
    {
      "inputs": [],
      "name": "ERC1967NonPayable",
      "type": "error"
    },
    {
      "inputs": [],
      "name": "FailedCall",
      "type": "error"
    },
    {
      "inputs": [],
      "name": "FailedToCallVerifyProof",
      "type": "error"
    },
    {
      "inputs": [
        {
          "internalType": "uint256[]",
          "name": "pubSignals",
          "type": "uint256[]"
        },
        {
          "components": [
            {
              "internalType": "uint256[2]",
              "name": "a",
              "type": "uint256[2]"
            },
            {
              "internalType": "uint256[2][2]",
              "name": "b",
              "type": "uint256[2][2]"
            },
            {
              "internalType": "uint256[2]",
              "name": "c",
              "type": "uint256[2]"
            }
          ],
          "internalType": "struct AQueryProofExecutor.ProofPoints",
          "name": "zkPoints",
          "type": "tuple"
        }
      ],
      "name": "InvalidCircomProof",
      "type": "error"
    },
    {
      "inputs": [
        {
          "internalType": "uint256",
          "name": "parsedTimestamp",
          "type": "uint256"
        },
        {
          "internalType": "uint256",
          "name": "currentTimestamp",
          "type": "uint256"
        }
      ],
      "name": "InvalidDate",
      "type": "error"
    },
    {
      "inputs": [],
      "name": "InvalidInitialization",
      "type": "error"
    },
    {
      "inputs": [
        {
          "internalType": "bytes32[]",
          "name": "pubSignals",
          "type": "bytes32[]"
        },
        {
          "internalType": "bytes",
          "name": "zkPoints",
          "type": "bytes"
        }
      ],
      "name": "InvalidNoirProof",
      "type": "error"
    },
    {
      "inputs": [],
      "name": "NotInitializing",
      "type": "error"
    },
    {
      "inputs": [
        {
          "internalType": "uint256",
          "name": "nullifier",
          "type": "uint256"
        }
      ],
      "name": "NullifierAlreadyUsed",
      "type": "error"
    },
    {
      "inputs": [
        {
          "internalType": "address",
          "name": "owner",
          "type": "address"
        }
      ],
      "name": "OwnableInvalidOwner",
      "type": "error"
    },
    {
      "inputs": [
        {
          "internalType": "address",
          "name": "account",
          "type": "address"
        }
      ],
      "name": "OwnableUnauthorizedAccount",
      "type": "error"
    },
    {
      "inputs": [
        {
          "internalType": "bytes32",
          "name": "passportHash",
          "type": "bytes32"
        },
        {
          "internalType": "address",
          "name": "boundAddress",
          "type": "address"
        }
      ],
      "name": "PassportAlreadyBound",
      "type": "error"
    },
    {
      "inputs": [],
      "name": "ReentrancyGuardReentrantCall",
      "type": "error"
    },
    {
      "inputs": [],
      "name": "UUPSUnauthorizedCallContext",
      "type": "error"
    },
    {
      "inputs": [
        {
          "internalType": "bytes32",
          "name": "slot",
          "type": "bytes32"
        }
      ],
      "name": "UUPSUnsupportedProxiableUUID",
      "type": "error"
    },
    {
      "anonymous": false,
      "inputs": [
        {
          "indexed": false,
          "internalType": "address",
          "name": "registry",
          "type": "address"
        },
        {
          "indexed": false,
          "internalType": "address",
          "name": "identityVerifier",
          "type": "address"
        }
      ],
      "name": "ContractsUpdated",
      "type": "event"
    },
    {
      "anonymous": false,
      "inputs": [
        {
          "indexed": false,
          "internalType": "uint64",
          "name": "version",
          "type": "uint64"
        }
      ],
      "name": "Initialized",
      "type": "event"
    },
    {
      "anonymous": false,
      "inputs": [
        {
          "indexed": true,
          "internalType": "string",
          "name": "celestialId",
          "type": "string"
        },
        {
          "indexed": false,
          "internalType": "uint256",
          "name": "timestamp",
          "type": "uint256"
        }
      ],
      "name": "KYCRevoked",
      "type": "event"
    },
    {
      "anonymous": false,
      "inputs": [
        {
          "indexed": true,
          "internalType": "string",
          "name": "celestialId",
          "type": "string"
        },
        {
          "indexed": true,
          "internalType": "address",
          "name": "owner",
          "type": "address"
        },
        {
          "indexed": true,
          "internalType": "bytes32",
          "name": "identityKey",
          "type": "bytes32"
        },
        {
          "indexed": false,
          "internalType": "bytes32",
          "name": "passportKey",
          "type": "bytes32"
        },
        {
          "indexed": false,
          "internalType": "uint256",
          "name": "timestamp",
          "type": "uint256"
        }
      ],
      "name": "KYCVerified",
      "type": "event"
    },
    {
      "anonymous": false,
      "inputs": [
        {
          "indexed": true,
          "internalType": "address",
          "name": "previousOwner",
          "type": "address"
        },
        {
          "indexed": true,
          "internalType": "address",
          "name": "newOwner",
          "type": "address"
        }
      ],
      "name": "OwnershipTransferStarted",
      "type": "event"
    },
    {
      "anonymous": false,
      "inputs": [
        {
          "indexed": true,
          "internalType": "address",
          "name": "previousOwner",
          "type": "address"
        },
        {
          "indexed": true,
          "internalType": "address",
          "name": "newOwner",
          "type": "address"
        }
      ],
      "name": "OwnershipTransferred",
      "type": "event"
    },
    {
      "anonymous": false,
      "inputs": [
        {
          "indexed": true,
          "internalType": "address",
          "name": "user",
          "type": "address"
        },
        {
          "indexed": true,
          "internalType": "bytes32",
          "name": "oldPassportHash",
          "type": "bytes32"
        },
        {
          "indexed": true,
          "internalType": "bytes32",
          "name": "newPassportHash",
          "type": "bytes32"
        },
        {
          "indexed": false,
          "internalType": "uint256",
          "name": "timestamp",
          "type": "uint256"
        }
      ],
      "name": "PassportUpdated",
      "type": "event"
    },
    {
      "anonymous": false,
      "inputs": [
        {
          "indexed": true,
          "internalType": "address",
          "name": "implementation",
          "type": "address"
        }
      ],
      "name": "Upgraded",
      "type": "event"
    },
    {
      "anonymous": false,
      "inputs": [
        {
          "indexed": true,
          "internalType": "address",
          "name": "user",
          "type": "address"
        },
        {
          "indexed": false,
          "internalType": "uint256",
          "name": "timestamp",
          "type": "uint256"
        }
      ],
      "name": "ZKKYCRevoked",
      "type": "event"
    },
    {
      "anonymous": false,
      "inputs": [
        {
          "indexed": true,
          "internalType": "string",
          "name": "celestialId",
          "type": "string"
        },
        {
          "indexed": true,
          "internalType": "address",
          "name": "user",
          "type": "address"
        },
        {
          "indexed": true,
          "internalType": "uint256",
          "name": "nullifier",
          "type": "uint256"
        },
        {
          "indexed": false,
          "internalType": "uint256",
          "name": "timestamp",
          "type": "uint256"
        }
      ],
      "name": "ZKKYCVerified",
      "type": "event"
    },
    {
      "inputs": [],
      "name": "CITIZENSHIP_MASK",
      "outputs": [
        {
          "internalType": "uint256",
          "name": "",
          "type": "uint256"
        }
      ],
      "stateMutability": "view",
      "type": "function"
    },
    {
      "inputs": [],
      "name": "SELECTOR",
      "outputs": [
        {
          "internalType": "uint256",
          "name": "",
          "type": "uint256"
        }
      ],
      "stateMutability": "view",
      "type": "function"
    },
    {
      "inputs": [],
      "name": "UPGRADE_INTERFACE_VERSION",
      "outputs": [
        {
          "internalType": "string",
          "name": "",
          "type": "string"
        }
      ],
      "stateMutability": "view",
      "type": "function"
    },
    {
      "inputs": [],
      "name": "acceptOwnership",
      "outputs": [],
      "stateMutability": "nonpayable",
      "type": "function"
    },
    {
      "inputs": [
        {
          "internalType": "uint256",
          "name": "currentDate_",
          "type": "uint256"
        },
        {
          "internalType": "bytes",
          "name": "userPayload_",
          "type": "bytes"
        },
        {
          "components": [
            {
              "internalType": "uint256[2]",
              "name": "a",
              "type": "uint256[2]"
            },
            {
              "internalType": "uint256[2][2]",
              "name": "b",
              "type": "uint256[2][2]"
            },
            {
              "internalType": "uint256[2]",
              "name": "c",
              "type": "uint256[2]"
            }
          ],
          "internalType": "struct AQueryProofExecutor.ProofPoints",
          "name": "zkPoints_",
          "type": "tuple"
        }
      ],
      "name": "execute",
      "outputs": [],
      "stateMutability": "nonpayable",
      "type": "function"
    },
    {
      "inputs": [
        {
          "internalType": "uint256",
          "name": "currentDate_",
          "type": "uint256"
        },
        {
          "internalType": "bytes",
          "name": "userPayload_",
          "type": "bytes"
        },
        {
          "internalType": "bytes",
          "name": "zkPoints_",
          "type": "bytes"
        }
      ],
      "name": "executeNoir",
      "outputs": [],
      "stateMutability": "nonpayable",
      "type": "function"
    },
    {
      "inputs": [
        {
          "internalType": "bytes32",
          "name": "passportHash_",
          "type": "bytes32"
        }
      ],
      "name": "getAddressForPassport",
      "outputs": [
        {
          "internalType": "address",
          "name": "",
          "type": "address"
        }
      ],
      "stateMutability": "view",
      "type": "function"
    },
    {
      "inputs": [
        {
          "internalType": "address",
          "name": "user",
          "type": "address"
        }
      ],
      "name": "getEventId",
      "outputs": [
        {
          "internalType": "uint256",
          "name": "",
          "type": "uint256"
        }
      ],
      "stateMutability": "view",
      "type": "function"
    },
    {
      "inputs": [
        {
          "internalType": "uint256",
          "name": "currentDate_",
          "type": "uint256"
        },
        {
          "internalType": "bytes",
          "name": "userPayload_",
          "type": "bytes"
        }
      ],
      "name": "getPublicSignals",
      "outputs": [
        {
          "internalType": "bytes32[]",
          "name": "publicSignals",
          "type": "bytes32[]"
        }
      ],
      "stateMutability": "view",
      "type": "function"
    },
    {
      "inputs": [],
      "name": "getVerifier",
      "outputs": [
        {
          "internalType": "address",
          "name": "",
          "type": "address"
        }
      ],
      "stateMutability": "view",
      "type": "function"
    },
    {
      "inputs": [
        {
          "internalType": "address",
          "name": "user_",
          "type": "address"
        }
      ],
      "name": "getZKKYCStatus",
      "outputs": [
        {
          "internalType": "bool",
          "name": "isVerified",
          "type": "bool"
        },
        {
          "components": [
            {
              "internalType": "string",
              "name": "celestialId",
              "type": "string"
            },
            {
              "internalType": "uint256",
              "name": "nullifier",
              "type": "uint256"
            },
            {
              "internalType": "bytes32",
              "name": "passportHash",
              "type": "bytes32"
            },
            {
              "internalType": "uint256",
              "name": "identityCreationTimestamp",
              "type": "uint256"
            },
            {
              "internalType": "uint64",
              "name": "verifiedAt",
              "type": "uint64"
            }
          ],
          "internalType": "struct CelestialsKYC.ZKKYCData",
          "name": "data",
          "type": "tuple"
        }
      ],
      "stateMutability": "view",
      "type": "function"
    },
    {
      "inputs": [
        {
          "internalType": "address",
          "name": "registry_",
          "type": "address"
        },
        {
          "internalType": "address",
          "name": "stateKeeper_",
          "type": "address"
        },
        {
          "internalType": "address",
          "name": "verifier_",
          "type": "address"
        }
      ],
      "name": "initialize",
      "outputs": [],
      "stateMutability": "nonpayable",
      "type": "function"
    },
    {
      "inputs": [],
      "name": "owner",
      "outputs": [
        {
          "internalType": "address",
          "name": "",
          "type": "address"
        }
      ],
      "stateMutability": "view",
      "type": "function"
    },
    {
      "inputs": [
        {
          "internalType": "bytes32",
          "name": "",
          "type": "bytes32"
        }
      ],
      "name": "passportHashToAddress",
      "outputs": [
        {
          "internalType": "address",
          "name": "",
          "type": "address"
        }
      ],
      "stateMutability": "view",
      "type": "function"
    },
    {
      "inputs": [],
      "name": "pendingOwner",
      "outputs": [
        {
          "internalType": "address",
          "name": "",
          "type": "address"
        }
      ],
      "stateMutability": "view",
      "type": "function"
    },
    {
      "inputs": [],
      "name": "proxiableUUID",
      "outputs": [
        {
          "internalType": "bytes32",
          "name": "",
          "type": "bytes32"
        }
      ],
      "stateMutability": "view",
      "type": "function"
    },
    {
      "inputs": [],
      "name": "registry",
      "outputs": [
        {
          "internalType": "address",
          "name": "",
          "type": "address"
        }
      ],
      "stateMutability": "view",
      "type": "function"
    },
    {
      "inputs": [],
      "name": "renounceOwnership",
      "outputs": [],
      "stateMutability": "nonpayable",
      "type": "function"
    },
    {
      "inputs": [
        {
          "internalType": "address",
          "name": "user_",
          "type": "address"
        }
      ],
      "name": "revokeZKKYC",
      "outputs": [],
      "stateMutability": "nonpayable",
      "type": "function"
    },
    {
      "inputs": [],
      "name": "stateKeeper",
      "outputs": [
        {
          "internalType": "contract IStateKeeper",
          "name": "",
          "type": "address"
        }
      ],
      "stateMutability": "view",
      "type": "function"
    },
    {
      "inputs": [
        {
          "internalType": "address",
          "name": "newOwner",
          "type": "address"
        }
      ],
      "name": "transferOwnership",
      "outputs": [],
      "stateMutability": "nonpayable",
      "type": "function"
    },
    {
      "inputs": [
        {
          "internalType": "address",
          "name": "registry_",
          "type": "address"
        }
      ],
      "name": "updateRegistry",
      "outputs": [],
      "stateMutability": "nonpayable",
      "type": "function"
    },
    {
      "inputs": [
        {
          "internalType": "address",
          "name": "stateKeeper_",
          "type": "address"
        }
      ],
      "name": "updateStateKeeper",
      "outputs": [],
      "stateMutability": "nonpayable",
      "type": "function"
    },
    {
      "inputs": [
        {
          "internalType": "address",
          "name": "newImplementation",
          "type": "address"
        },
        {
          "internalType": "bytes",
          "name": "data",
          "type": "bytes"
        }
      ],
      "name": "upgradeToAndCall",
      "outputs": [],
      "stateMutability": "payable",
      "type": "function"
    },
    {
      "inputs": [
        {
          "internalType": "uint256",
          "name": "",
          "type": "uint256"
        }
      ],
      "name": "usedNullifiers",
      "outputs": [
        {
          "internalType": "bool",
          "name": "",
          "type": "bool"
        }
      ],
      "stateMutability": "view",
      "type": "function"
    },
    {
      "inputs": [
        {
          "internalType": "address",
          "name": "",
          "type": "address"
        }
      ],
      "name": "zkKycData",
      "outputs": [
        {
          "internalType": "string",
          "name": "celestialId",
          "type": "string"
        },
        {
          "internalType": "uint256",
          "name": "nullifier",
          "type": "uint256"
        },
        {
          "internalType": "bytes32",
          "name": "passportHash",
          "type": "bytes32"
        },
        {
          "internalType": "uint256",
          "name": "identityCreationTimestamp",
          "type": "uint256"
        },
        {
          "internalType": "uint64",
          "name": "verifiedAt",
          "type": "uint64"
        }
      ],
      "stateMutability": "view",
      "type": "function"
    }
  ],
  "bytecode": "0x60a06040523060805234801561001457600080fd5b5061001d610022565b6100d4565b7ff0c57e16840df040f15088dc2f81fe391c3923bec73e23a9662efc9c229c6a00805468010000000000000000900460ff16156100725760405163f92ee8a960e01b815260040160405180910390fd5b80546001600160401b03908116146100d15780546001600160401b0319166001600160401b0390811782556040519081527fc7f505b2f371ae2175ee4913f4499e1f2633a7b5936321eed1cdaeb6115181d29060200160405180910390a15b50565b6080516131d16100fd60003960008181610f8001528181610fa901526110cf01526131d16000f3fe6080604052600436106101615760003560e01c80639cfb031e116100c1578063c4b8cd3c1161007a578063c4b8cd3c14610414578063c63e19a91461042c578063d50505131461044c578063dfbd2deb14610479578063e30c397814610499578063f2fde38b146104ae578063fc6e4bce146104ce57600080fd5b80639cfb031e146102ea578063aad2406114610320578063ad3cb1cc14610360578063b65c8c731461039e578063c0c53b8b146103d4578063c3e6f8f9146103f457600080fd5b8063715018a61161011e578063715018a61461021a578063764348121461022f5780637786e0be1461024f57806379ba50971461026f5780637b103999146102845780638da5cb5b146102a457806394002fb3146102b957600080fd5b8063053c238d146101665780631a5da6c81461018e57806346657fe9146101b05780634c417aaa146101d25780634f1ef286146101f257806352d1902d14610205575b600080fd5b34801561017257600080fd5b5061017b600181565b6040519081526020015b60405180910390f35b34801561019a57600080fd5b506101ae6101a93660046124aa565b6104fc565b005b3480156101bc57600080fd5b506101c56105be565b60405161018591906124c7565b3480156101de57600080fd5b506101ae6101ed3660046124aa565b6105df565b6101ae6102003660046125e9565b610699565b34801561021157600080fd5b5061017b6106b8565b34801561022657600080fd5b506101ae6106d5565b34801561023b57600080fd5b506101ae61024a3660046124aa565b6106e9565b34801561025b57600080fd5b5061017b61026a3660046124aa565b610800565b34801561027b57600080fd5b506101ae61089f565b34801561029057600080fd5b506000546101c5906001600160a01b031681565b3480156102b057600080fd5b506101c56108de565b3480156102c557600080fd5b506102d96102d43660046124aa565b610913565b604051610185959493929190612688565b3480156102f657600080fd5b506101c56103053660046126c8565b6000908152600360205260409020546001600160a01b031690565b34801561032c57600080fd5b5061035061033b3660046126c8565b60046020526000908152604090205460ff1681565b6040519015158152602001610185565b34801561036c57600080fd5b50610391604051806040016040528060058152602001640352e302e360dc1b81525081565b60405161018591906126e1565b3480156103aa57600080fd5b506101c56103b93660046126c8565b6003602052600090815260409020546001600160a01b031681565b3480156103e057600080fd5b506101ae6103ef3660046126f4565b6109d3565b34801561040057600080fd5b506001546101c5906001600160a01b031681565b34801561042057600080fd5b5061017b6001603a1b81565b34801561043857600080fd5b506101ae61044736600461273f565b610c2e565b34801561045857600080fd5b5061046c6104673660046127af565b610d02565b604051610185919061281b565b34801561048557600080fd5b506101ae610494366004612880565b610d18565b3480156104a557600080fd5b506101c5610d73565b3480156104ba57600080fd5b506101ae6104c93660046124aa565b610d9c565b3480156104da57600080fd5b506104ee6104e93660046124aa565b610e21565b604051610185929190612965565b610504610f43565b6001600160a01b03811661055f5760405162461bcd60e51b815260206004820152601b60248201527f43656c65737469616c734b59433a207a65726f2061646472657373000000000060448201526064015b60405180910390fd5b600080546001600160a01b0319166001600160a01b0383811691821790925560015460408051928352921660208201527f14d346cbf9ffe1d19b9746e0b9391e5a4acb05399f4cc217d3a20391bbdbb44f91015b60405180910390a150565b600060008051602061315c8339815191525b546001600160a01b0316919050565b6105e7610f43565b6001600160a01b03811661063d5760405162461bcd60e51b815260206004820152601b60248201527f43656c65737469616c734b59433a207a65726f206164647265737300000000006044820152606401610556565b600180546001600160a01b0319166001600160a01b038381169182179092556000546040805191909316815260208101919091527f14d346cbf9ffe1d19b9746e0b9391e5a4acb05399f4cc217d3a20391bbdbb44f91016105b3565b6106a1610f75565b6106aa82611003565b6106b4828261100b565b5050565b60006106c26110c4565b5060008051602061317c83398151915290565b6106dd610f43565b6106e7600061110d565b565b6106f1610f43565b6001600160a01b0381166000908152600260205260408120600401546001600160401b03169003610737578060405163ac12c8b360e01b815260040161055691906124c7565b6001600160a01b0381166000908152600260208190526040822060018101549181015491926107668282612447565b506000600182018190556002820181905560038083018290556004928301805467ffffffffffffffff191690558382526020908152604080832080546001600160a01b031916905585835292815290829020805460ff1916905590514281526001600160a01b038516917fce73f0e679ee17e73d070ce5840baae00739cfb369cc0ca7d0e1c5d2367bd00b910160405180910390a2505050565b604080516060810182524681523060208201526001600160a01b0383168183015290516304b98e1d60e31b815260009173__$e94d58e1a126510de43d3822f57118ccd9$__916325cc70e891610858916004016129c7565b602060405180830381865af4158015610875573d6000803e3d6000fd5b505050506040513d601f19601f8201168201806040525081019061089991906129f8565b92915050565b33806108a9610d73565b6001600160a01b0316146108d2578060405163118cdaa760e01b815260040161055691906124c7565b6108db8161110d565b50565b6000807f9016d09d72d40fdae2fd8ceac6b6234c7706214fd39c1cd1e609a0528c1993005b546001600160a01b031692915050565b60026020526000908152604090208054819061092e90612a11565b80601f016020809104026020016040519081016040528092919081815260200182805461095a90612a11565b80156109a75780601f1061097c576101008083540402835291602001916109a7565b820191906000526020600020905b81548152906001019060200180831161098a57829003601f168201915b50505050600183015460028401546003850154600490950154939491939092506001600160401b031685565b7ff0c57e16840df040f15088dc2f81fe391c3923bec73e23a9662efc9c229c6a008054600160401b810460ff1615906001600160401b0316600081158015610a185750825b90506000826001600160401b03166001148015610a345750303b155b905081158015610a42575080155b15610a605760405163f92ee8a960e01b815260040160405180910390fd5b845467ffffffffffffffff191660011785558315610a8a57845460ff60401b1916600160401b1785555b610a9386611145565b610a9b61117c565b610aa433611184565b610aac611195565b6001600160a01b038816610b0e5760405162461bcd60e51b8152602060048201526024808201527f43656c65737469616c734b59433a207a65726f207265676973747279206164646044820152637265737360e01b6064820152608401610556565b6001600160a01b038716610b745760405162461bcd60e51b815260206004820152602760248201527f43656c65737469616c734b59433a207a65726f2073746174654b6565706572206044820152666164647265737360c81b6064820152608401610556565b600080546001600160a01b038a81166001600160a01b0319928316811790935560018054918b169190921681179091556040805192835260208301919091527f14d346cbf9ffe1d19b9746e0b9391e5a4acb05399f4cc217d3a20391bbdbb44f910160405180910390a18315610c2457845460ff60401b19168555604051600181527fc7f505b2f371ae2175ee4913f4499e1f2633a7b5936321eed1cdaeb6115181d29060200160405180910390a15b5050505050505050565b610c3883836111a5565b6000610c4484846117b4565b60008051602061315c8339815191528054604051633a94343960e21b815292935083926000916001600160a01b03169063ea50d0e490610c8a9088908790600401612a4b565b602060405180830381865afa158015610ca7573d6000803e3d6000fd5b505050506040513d601f19601f82011682018060405250810190610ccb9190612a70565b905080610cef57828560405163221d53ef60e11b8152600401610556929190612a92565b610cf98787611912565b50505050505050565b60606000610d1084846117b4565b949350505050565b610d2283836111a5565b6000610d2e84846117b4565b9050806000610d3d8483611b0d565b905080610d6157818460405163717a17d360e11b8152600401610556929190612b0e565b610d6b8686611912565b505050505050565b6000807f237e158222e3e6968b72b9db0d8043aacf074ad9f650f0d1606b4d82ee432c00610903565b610da4610f43565b7f237e158222e3e6968b72b9db0d8043aacf074ad9f650f0d1606b4d82ee432c0080546001600160a01b0319166001600160a01b0383169081178255610de86108de565b6001600160a01b03167f38d16b8cac22d99fc7c124b9cd0de2d3fa1faef420bfe791d8c362d765e2270060405160405180910390a35050565b6040805160a08101825260608082526000602083018190529282018390528101829052608081018290526001600160a01b03831660009081526002602052604090819020815160a08101909252805482908290610e7d90612a11565b80601f0160208091040260200160405190810160405280929190818152602001828054610ea990612a11565b8015610ef65780601f10610ecb57610100808354040283529160200191610ef6565b820191906000526020600020905b815481529060010190602001808311610ed957829003601f168201915b50505091835250506001820154602082015260028201546040820152600382015460608201526004909101546001600160401b039081166080928301529082015116151594909350915050565b33610f4c6108de565b6001600160a01b0316146106e7573360405163118cdaa760e01b815260040161055691906124c7565b306001600160a01b037f0000000000000000000000000000000000000000000000000000000000000000161480610fe557507f00000000000000000000000000000000000000000000000000000000000000006001600160a01b0316610fd9611c77565b6001600160a01b031614155b156106e75760405163703e46dd60e11b815260040160405180910390fd5b6108db610f43565b816001600160a01b03166352d1902d6040518163ffffffff1660e01b8152600401602060405180830381865afa925050508015611065575060408051601f3d908101601f19168201909252611062918101906129f8565b60015b6110845781604051634c9c8ce360e01b815260040161055691906124c7565b60008051602061317c83398151915281146110b557604051632a87526960e21b815260048101829052602401610556565b6110bf8383611c8d565b505050565b306001600160a01b037f000000000000000000000000000000000000000000000000000000000000000016146106e75760405163703e46dd60e11b815260040160405180910390fd5b7f237e158222e3e6968b72b9db0d8043aacf074ad9f650f0d1606b4d82ee432c0080546001600160a01b03191681556106b482611ce3565b61114d611d54565b60008051602061315c83398151915280546001600160a01b0319166001600160a01b0392909216919091179055565b6106e7611d54565b61118c611d54565b6108db81611d9d565b61119d611d54565b6106e7611dcf565b600080600080848060200190518101906111bf9190612bc9565b506000805460405195995093975091955093509182916001600160a01b0316906111ed9087906024016126e1565b60408051601f198184030181529181526020820180516001600160e01b0316634784e1a960e11b179052516112229190612c34565b600060405180830381855afa9150503d806000811461125d576040519150601f19603f3d011682016040523d82523d6000602084013e611262565b606091505b5091509150816112c55760405162461bcd60e51b815260206004820152602860248201527f43656c65737469616c734b59433a206661696c656420746f2071756572792063604482015267195b195cdd1a585b60c21b6064820152608401610556565b6000818060200190518101906112db9190612c50565b90506001600160a01b03811661133e5760405162461bcd60e51b815260206004820152602260248201527f43656c65737469616c734b59433a2063656c65737469616c206e6f7420666f756044820152611b9960f21b6064820152608401610556565b60008190506000816001600160a01b0316636b8fc2fd6040518163ffffffff1660e01b8152600401600060405180830381865afa158015611383573d6000803e3d6000fd5b505050506040513d6000823e601f3d908101601f191682016040526113ab9190810190612ca3565b9050886001600160a01b031681604001516001600160a01b03161461141d5760405162461bcd60e51b815260206004820152602260248201527f43656c65737469616c734b59433a206e6f742063656c65737469616c206f776e60448201526132b960f11b6064820152608401610556565b60015460405163069fab6360e41b81526004810188905260009182916001600160a01b03909116906369fab63090602401608060405180830381865afa15801561146b573d6000803e3d6000fd5b505050506040513d601f19601f8201168201806040525081019061148f9190612dd0565b91509150600160009054906101000a90046001600160a01b03166001600160a01b031663e6c292e86040518163ffffffff1660e01b8152600401602060405180830381865afa1580156114e6573d6000803e3d6000fd5b505050506040513d601f19601f8201168201806040525081019061150a91906129f8565b8251036115645760405162461bcd60e51b815260206004820152602260248201527f43656c65737469616c734b59433a2070617373706f7274206973207265766f6b604482015261195960f21b6064820152608401610556565b81516115c15760405162461bcd60e51b815260206004820152602660248201527f43656c65737469616c734b59433a2070617373706f7274206e6f7420726567696044820152651cdd195c995960d21b6064820152608401610556565b6001600160a01b03808c166000908152600260209081526040808320600401548c84526003909252909120546001600160401b0390911615159116801580159061161d57508c6001600160a01b0316816001600160a01b031614155b1561164d5760405163098bfbfb60e41b8152600481018b90526001600160a01b0382166024820152604401610556565b8115611757576001600160a01b038d16600090815260026020819052604090912001548a14611722576001600160a01b038d1633146116ec5760405162461bcd60e51b815260206004820152603560248201527f43656c65737469616c734b59433a206f6e6c792061646472657373206f776e656044820152741c8818d85b881d5c19185d19481c185cdcdc1bdc9d605a1b6064820152608401610556565b6001600160a01b038d16600090815260026020818152604080842090920154835260039052902080546001600160a01b03191690555b6001600160a01b038d16600090815260026020908152604080832060010154835260049091529020805460ff1916905561178a565b60008b81526004602052604090205460ff161561178a57604051636e10ae0560e11b8152600481018c9052602401610556565b50505060009788525050600460205250506040909320805460ff1916600117905550505050505050565b600080600080600080868060200190518101906117d19190612bc9565b9450945094509450945060008060008311156117ee575081905060015b6117f9600186611dfd565b9750600061180688610800565b6101408a018190526001600160a01b0389166101608b0152905060015460405163069fab6360e41b81526004810187905260009182916001600160a01b03909116906369fab63090602401608060405180830381865afa15801561186e573d6000803e3d6000fd5b505050506040513d601f19601f820116820180604052508101906118929190612dd0565b81516101808e015290925090506118ad8b8e62015180611e7d565b60006101e08c01526102008b01859052653030303030306102608c018190526102808c015260006102208c01526102408b018490526102a08b018d9052653030303030306102c08c01526001603a1b6102e08c01525050505050505050505092915050565b60008060008060008580602001905181019061192e9190612bc9565b6001600160a01b038516600090815260026020526040812060040154959a5093985091965094509250906001600160401b03161580159061198b57506001600160a01b038616600090815260026020819052604090912001548314155b905080156119eb576001600160a01b0386166000818152600260208181526040928390209091015491514281529192869284927f0c575857838d1be900faacbf5d1976bc279c1d7ac589fc78e615be2b6ad6bca9910160405180910390a4505b6040805160a0810182528681526020808201879052818301869052606082018590526001600160401b03421660808301526001600160a01b038916600090815260029091529190912081518190611a429082612e53565b506020828101516001830155604080840151600284015560608401516003808501919091556080909401516004909301805467ffffffffffffffff19166001600160401b039094169390931790925560008681529290529081902080546001600160a01b0319166001600160a01b0389169081179091559051859190611ac9908890612c34565b604051908190038120428252907fca98aadb3cda4176b5c5f102c12bf4fad3ca5bad785ea368a9ed6174dac90be99060200160405180910390a45050505050505050565b60008060008051602061315c83398151915290506000611b2d8451611ec6565b604051602001611b3d9190612f11565b60408051601f198184030181528282528454885160208a0151938a015192955060009485946001600160a01b03909316938793611b809392909190602401612f83565b60408051601f198184030181529082905291611b9b91612c34565b60405180910390206001600160e01b0319166020820180516001600160e01b03838183161783525050505087604051602001611bd8929190612fac565b60408051601f1981840301815290829052611bf291612c34565b600060405180830381855afa9150503d8060008114611c2d576040519150601f19603f3d011682016040523d82523d6000602084013e611c32565b606091505b509150915081611c5557604051632d30bdc360e01b815260040160405180910390fd5b600081806020019051810190611c6b9190612a70565b98975050505050505050565b600060008051602061317c8339815191526105d0565b611c9682611f59565b6040516001600160a01b038316907fbc7cd75a20ee27fd9adebab32041f755214dbc6bffa90cc0225b39da2e5c2d3b90600090a2805115611cdb576110bf8282611fb5565b6106b461202b565b7f9016d09d72d40fdae2fd8ceac6b6234c7706214fd39c1cd1e609a0528c19930080546001600160a01b031981166001600160a01b03848116918217845560405192169182907f8be0079c531659141344cd1fd0a4f28419497f9722a3daafe3b4186f6b6457e090600090a3505050565b7ff0c57e16840df040f15088dc2f81fe391c3923bec73e23a9662efc9c229c6a0054600160401b900460ff166106e757604051631afcd79f60e31b815260040160405180910390fd5b611da5611d54565b6001600160a01b0381166108d2576000604051631e4fbdf760e01b815260040161055691906124c7565b611dd7611d54565b60017f9b779b17422d0df92223018b32b4d1fa46e071723d6817e2486d003becc55f0055565b6040805160178082526103008201909252600091829190602082016102e080368337019050509050809150826020830152836101a0830152653030303030306101c08301526530303030303061026083015265303030303030610280830152653030303030306102a0830152653030303030306102c08301525092915050565b6000611e888361204a565b9050611e94818361217f565b611eba576040516310b99cc360e11b815260048101829052426024820152604401610556565b50506101c09190910152565b60606000611ed3836121a7565b60010190506000816001600160401b03811115611ef257611ef26124db565b6040519080825280601f01601f191660200182016040528015611f1c576020820181803683370190505b5090508181016020015b600019016f181899199a1a9b1b9c1cb0b131b232b360811b600a86061a8153600a8504945084611f26575b509392505050565b806001600160a01b03163b600003611f865780604051634c9c8ce360e01b815260040161055691906124c7565b60008051602061317c83398151915280546001600160a01b0319166001600160a01b0392909216919091179055565b6060600080846001600160a01b031684604051611fd29190612c34565b600060405180830381855af49150503d806000811461200d576040519150601f19603f3d011682016040523d82523d6000602084013e612012565b606091505b509150915061202285838361227f565b95945050505050565b34156106e75760405163b398979f60e01b815260040160405180910390fd5b604080516003808252608082019092526000918291906020820160608036833701905050905060005b60068110156121115760006030600161208d846006613021565b6120979190613021565b6120a2906008613034565b86901c6120af919061304b565b60ff1690506120bf600283613064565b156120ca57806120d5565b6120d581600a613034565b836120e1600285613078565b815181106120f1576120f161308c565b6020026020010181815161210591906130a2565b90525050600101612073565b50612178816000815181106121285761212861308c565b60200260200101516107d061213d91906130a2565b826001815181106121505761215061308c565b60200260200101518360028151811061216b5761216b61308c565b60200260200101516122d2565b9392505050565b600061218b8242613021565b83118015612178575061219e82426130a2565b83109392505050565b60008072184f03e93ff9f4daa797ed6e38ed64bf6a1f0160401b83106121e65772184f03e93ff9f4daa797ed6e38ed64bf6a1f0160401b830492506040015b6d04ee2d6d415b85acef81000000008310612212576d04ee2d6d415b85acef8100000000830492506020015b662386f26fc10000831061223057662386f26fc10000830492506010015b6305f5e1008310612248576305f5e100830492506008015b612710831061225c57612710830492506004015b6064831061226e576064830492506002015b600a83106108995760010192915050565b6060826122945761228f826122ed565b612178565b81511580156122ab57506001600160a01b0384163b155b156122cb5783604051639996b31560e01b815260040161055691906124c7565b5092915050565b6000620151806122e3858585612316565b610d109190613034565b8051156122fd5780518082602001fd5b60405163d6bda27560e01b815260040160405180910390fd5b60006107b284101561232757600080fd5b838383600062253d8c60046064600c612341600e886130b5565b61234b91906130d5565b61235788611324613103565b6123619190613103565b61236b91906130d5565b61237690600361312b565b61238091906130d5565b600c8061238e600e886130b5565b61239891906130d5565b6123a390600c61312b565b6123ae6002886130b5565b6123b891906130b5565b6123c49061016f61312b565b6123ce91906130d5565b6004600c6123dd600e896130b5565b6123e791906130d5565b6123f3896112c0613103565b6123fd9190613103565b612409906105b561312b565b61241391906130d5565b61241f617d4b876130b5565b6124299190613103565b6124339190613103565b61243d91906130b5565b611c6b91906130b5565b50805461245390612a11565b6000825580601f10612463575050565b601f0160209004906000526020600020908101906108db91905b80821115612491576000815560010161247d565b5090565b6001600160a01b03811681146108db57600080fd5b6000602082840312156124bc57600080fd5b813561217881612495565b6001600160a01b0391909116815260200190565b634e487b7160e01b600052604160045260246000fd5b604051606081016001600160401b0381118282101715612513576125136124db565b60405290565b60405161012081016001600160401b0381118282101715612513576125136124db565b604051601f8201601f191681016001600160401b0381118282101715612564576125646124db565b604052919050565b60006001600160401b03821115612585576125856124db565b50601f01601f191660200190565b600082601f8301126125a457600080fd5b81356125b76125b28261256c565b61253c565b8181528460208386010111156125cc57600080fd5b816020850160208301376000918101602001919091529392505050565b600080604083850312156125fc57600080fd5b823561260781612495565b915060208301356001600160401b0381111561262257600080fd5b61262e85828601612593565b9150509250929050565b60005b8381101561265357818101518382015260200161263b565b50506000910152565b60008151808452612674816020860160208601612638565b601f01601f19169290920160200192915050565b60a08152600061269b60a083018861265c565b90508560208301528460408301528360608301526001600160401b03831660808301529695505050505050565b6000602082840312156126da57600080fd5b5035919050565b602081526000612178602083018461265c565b60008060006060848603121561270957600080fd5b833561271481612495565b9250602084013561272481612495565b9150604084013561273481612495565b809150509250925092565b60008060006060848603121561275457600080fd5b8335925060208401356001600160401b0381111561277157600080fd5b61277d86828701612593565b92505060408401356001600160401b0381111561279957600080fd5b6127a586828701612593565b9150509250925092565b600080604083850312156127c257600080fd5b8235915060208301356001600160401b0381111561262257600080fd5b600081518084526020840193506020830160005b828110156128115781518652602095860195909101906001016127f3565b5093949350505050565b60208152600061217860208301846127df565b600082601f83011261283f57600080fd5b612849604061253c565b80604084018581111561285b57600080fd5b845b8181101561287557803584526020938401930161285d565b509095945050505050565b600080600083850361014081121561289757600080fd5b8435935060208501356001600160401b038111156128b457600080fd5b6128c087828801612593565b935050610100603f19820112156128d657600080fd5b506128df6124f1565b6128ec866040870161282e565b815285609f8601126128fd57600080fd5b60406129088161253c565b8061010088018981111561291b57600080fd5b608089015b81811015612941576129328b8261282e565b84526020909301928401612920565b508160208601526129528a8261282e565b8486015250505050809150509250925092565b8215158152604060208201526000825160a0604084015261298960e084018261265c565b90506020840151606084015260408401516080840152606084015160a08401526001600160401b0360808501511660c0840152809150509392505050565b60608101818360005b60038110156129ef5781518352602092830192909101906001016129d0565b50505092915050565b600060208284031215612a0a57600080fd5b5051919050565b600181811c90821680612a2557607f821691505b602082108103612a4557634e487b7160e01b600052602260045260246000fd5b50919050565b604081526000612a5e604083018561265c565b828103602084015261202281856127df565b600060208284031215612a8257600080fd5b8151801515811461217857600080fd5b604081526000612aa560408301856127df565b8281036020840152612022818561265c565b8060005b6002811015612ada578151845260209384019390910190600101612abb565b50505050565b8060005b6002811015612ada57612af8848351612ab7565b6040939093019260209190910190600101612ae4565b61012080825283519082018190526000906020850190610140840190835b81811015612b4a578351835260209384019390920191600101612b2c565b50508092505050612b5f602083018451612ab7565b6020830151612b716060840182612ae0565b506040830151611f5160e0840182612ab7565b600082601f830112612b9557600080fd5b8151612ba36125b28261256c565b818152846020838601011115612bb857600080fd5b610d10826020830160208701612638565b600080600080600060a08688031215612be157600080fd5b8551612bec81612495565b60208701519095506001600160401b03811115612c0857600080fd5b612c1488828901612b84565b60408801516060890151608090990151979a919950979695509350505050565b60008251612c46818460208701612638565b9190910192915050565b600060208284031215612c6257600080fd5b815161217881612495565b8051612c7881612495565b919050565b805160058110612c7857600080fd5b80516001600160401b0381168114612c7857600080fd5b600060208284031215612cb557600080fd5b81516001600160401b03811115612ccb57600080fd5b82016101208185031215612cde57600080fd5b612ce6612519565b81516001600160401b03811115612cfc57600080fd5b612d0886828501612b84565b825250612d1760208301612c6d565b6020820152612d2860408301612c6d565b6040820152606082810151908201526080808301519082015260a08083015190820152612d5760c08301612c7d565b60c0820152612d6860e08301612c8c565b60e082015261010091820151918101919091529392505050565b600060408284031215612d9457600080fd5b604080519081016001600160401b0381118282101715612db657612db66124db565b604052825181526020928301519281019290925250919050565b60008060808385031215612de357600080fd5b612ded8484612d82565b9150612dfc8460408501612d82565b90509250929050565b601f8211156110bf57806000526020600020601f840160051c81016020851015612e2c5750805b601f840160051c820191505b81811015612e4c5760008155600101612e38565b5050505050565b81516001600160401b03811115612e6c57612e6c6124db565b612e8081612e7a8454612a11565b84612e05565b6020601f821160018114612eb45760008315612e9c5750848201515b600019600385901b1c1916600184901b178455612e4c565b600084815260208120601f198516915b82811015612ee45787850151825560209485019460019092019101612ec4565b5084821015612f025786840151600019600387901b60f8161c191681555b50505050600190811b01905550565b7f76657269667950726f6f662875696e743235365b325d2c75696e743235365b328152775d5b325d2c75696e743235365b325d2c75696e743235365b60401b602082015260008251612f6a816038850160208701612638565b615d2960f01b6038939091019283015250603a01919050565b6101008101612f928286612ab7565b612f9f6040830185612ae0565b610d1060c0830184612ab7565b60008351612fbe818460208801612638565b8351908301906020850160005b82811015612fe9578151845260209384019390910190600101612fcb565b50919695505050505050565b634e487b7160e01b600052601260045260246000fd5b634e487b7160e01b600052601160045260246000fd5b818103818111156108995761089961300b565b80820281158282048414176108995761089961300b565b60ff82811682821603908111156108995761089961300b565b60008261307357613073612ff5565b500690565b60008261308757613087612ff5565b500490565b634e487b7160e01b600052603260045260246000fd5b808201808211156108995761089961300b565b81810360008312801583831316838312821617156122cb576122cb61300b565b6000826130e4576130e4612ff5565b600160ff1b8214600019841416156130fe576130fe61300b565b500590565b80820182811260008312801582168215821617156131235761312361300b565b505092915050565b80820260008212600160ff1b841416156131475761314761300b565b81810583148215176108995761089961300b56fe3844f6f56a171c93056bdfb3ce2525778ef493f53ef90b0283983867a69d2128360894a13ba1a3210667c828492db98dca3e2076cc3735a920a3ca505d382bbca2646970667358221220273284f97b78ba6b92dde6dccc8b79e47cf7bd57345156deb6ebf300c23b63a764736f6c634300081c0033",
  "linkReferences": {
    "@rarimo/passport-contracts/libraries/Poseidon.sol": {
      "PoseidonUnit3L": [
        {
          "length": 20,
          "start": 2351
        }
      ]
    }
  },
  "deployedLinkReferences": {
    "@rarimo/passport-contracts/libraries/Poseidon.sol": {
      "PoseidonUnit3L": [
        {
          "length": 20,
          "start": 2098
        }
      ]
    }
  }
}