{
  "_format": "hh-sol-artifact-1",
  "contractName": "Registration2",
  "sourceName": "contracts/registration/Registration2.sol",
  "abi": [
    {
      "inputs": [],
      "stateMutability": "nonpayable",
      "type": "constructor"
    },
    {
      "inputs": [
        {
          "internalType": "address",
          "name": "target",
          "type": "address"
        }
      ],
      "name": "AddressEmptyCode",
      "type": "error"
    },
    {
      "inputs": [
        {
          "internalType": "address",
          "name": "implementation",
          "type": "address"
        }
      ],
      "name": "ERC1967InvalidImplementation",
      "type": "error"
    },
    {
      "inputs": [],
      "name": "ERC1967NonPayable",
      "type": "error"
    },
    {
      "inputs": [],
      "name": "FailedCall",
      "type": "error"
    },
    {
      "inputs": [],
      "name": "InvalidInitialization",
      "type": "error"
    },
    {
      "inputs": [
        {
          "internalType": "bytes",
          "name": "proof",
          "type": "bytes"
        },
        {
          "internalType": "bytes32[]",
          "name": "pubSignals",
          "type": "bytes32[]"
        }
      ],
      "name": "InvalidNoirProof",
      "type": "error"
    },
    {
      "inputs": [],
      "name": "NotInitializing",
      "type": "error"
    },
    {
      "inputs": [],
      "name": "UUPSUnauthorizedCallContext",
      "type": "error"
    },
    {
      "inputs": [
        {
          "internalType": "bytes32",
          "name": "slot",
          "type": "bytes32"
        }
      ],
      "name": "UUPSUnsupportedProxiableUUID",
      "type": "error"
    },
    {
      "anonymous": false,
      "inputs": [
        {
          "indexed": false,
          "internalType": "uint64",
          "name": "version",
          "type": "uint64"
        }
      ],
      "name": "Initialized",
      "type": "event"
    },
    {
      "anonymous": false,
      "inputs": [
        {
          "indexed": true,
          "internalType": "address",
          "name": "implementation",
          "type": "address"
        }
      ],
      "name": "Upgraded",
      "type": "event"
    },
    {
      "inputs": [],
      "name": "P_NO_AA",
      "outputs": [
        {
          "internalType": "bytes32",
          "name": "",
          "type": "bytes32"
        }
      ],
      "stateMutability": "view",
      "type": "function"
    },
    {
      "inputs": [],
      "name": "UPGRADE_INTERFACE_VERSION",
      "outputs": [
        {
          "internalType": "string",
          "name": "",
          "type": "string"
        }
      ],
      "stateMutability": "view",
      "type": "function"
    },
    {
      "inputs": [
        {
          "internalType": "address",
          "name": "stateKeeper_",
          "type": "address"
        }
      ],
      "name": "__Registration_init",
      "outputs": [],
      "stateMutability": "nonpayable",
      "type": "function"
    },
    {
      "inputs": [
        {
          "internalType": "bytes32",
          "name": "",
          "type": "bytes32"
        }
      ],
      "name": "certificateDispatchers",
      "outputs": [
        {
          "internalType": "address",
          "name": "",
          "type": "address"
        }
      ],
      "stateMutability": "view",
      "type": "function"
    },
    {
      "inputs": [],
      "name": "implementation",
      "outputs": [
        {
          "internalType": "address",
          "name": "",
          "type": "address"
        }
      ],
      "stateMutability": "view",
      "type": "function"
    },
    {
      "inputs": [
        {
          "internalType": "bytes32",
          "name": "",
          "type": "bytes32"
        }
      ],
      "name": "passportDispatchers",
      "outputs": [
        {
          "internalType": "address",
          "name": "",
          "type": "address"
        }
      ],
      "stateMutability": "view",
      "type": "function"
    },
    {
      "inputs": [
        {
          "internalType": "bytes32",
          "name": "",
          "type": "bytes32"
        }
      ],
      "name": "passportVerifiers",
      "outputs": [
        {
          "internalType": "address",
          "name": "",
          "type": "address"
        }
      ],
      "stateMutability": "view",
      "type": "function"
    },
    {
      "inputs": [],
      "name": "proxiableUUID",
      "outputs": [
        {
          "internalType": "bytes32",
          "name": "",
          "type": "bytes32"
        }
      ],
      "stateMutability": "view",
      "type": "function"
    },
    {
      "inputs": [
        {
          "components": [
            {
              "internalType": "bytes32",
              "name": "dataType",
              "type": "bytes32"
            },
            {
              "internalType": "bytes",
              "name": "signedAttributes",
              "type": "bytes"
            },
            {
              "internalType": "uint256",
              "name": "keyOffset",
              "type": "uint256"
            },
            {
              "internalType": "uint256",
              "name": "expirationOffset",
              "type": "uint256"
            }
          ],
          "internalType": "struct Registration2.Certificate",
          "name": "certificate_",
          "type": "tuple"
        },
        {
          "components": [
            {
              "internalType": "bytes",
              "name": "signature",
              "type": "bytes"
            },
            {
              "internalType": "bytes",
              "name": "publicKey",
              "type": "bytes"
            }
          ],
          "internalType": "struct Registration2.ICAOMember",
          "name": "icaoMember_",
          "type": "tuple"
        },
        {
          "internalType": "bytes32[]",
          "name": "icaoMerkleProof_",
          "type": "bytes32[]"
        }
      ],
      "name": "registerCertificate",
      "outputs": [],
      "stateMutability": "nonpayable",
      "type": "function"
    },
    {
      "inputs": [
        {
          "internalType": "bytes32",
          "name": "certificatesRoot_",
          "type": "bytes32"
        },
        {
          "internalType": "uint256",
          "name": "sessionKey_",
          "type": "uint256"
        },
        {
          "internalType": "uint256",
          "name": "dgCommit_",
          "type": "uint256"
        },
        {
          "components": [
            {
              "internalType": "bytes32",
              "name": "dataType",
              "type": "bytes32"
            },
            {
              "internalType": "bytes32",
              "name": "zkType",
              "type": "bytes32"
            },
            {
              "internalType": "bytes",
              "name": "signature",
              "type": "bytes"
            },
            {
              "internalType": "bytes",
              "name": "publicKey",
              "type": "bytes"
            },
            {
              "internalType": "bytes32",
              "name": "passportHash",
              "type": "bytes32"
            }
          ],
          "internalType": "struct Registration2.Passport",
          "name": "passport_",
          "type": "tuple"
        },
        {
          "internalType": "bytes",
          "name": "zkPoints_",
          "type": "bytes"
        }
      ],
      "name": "registerViaNoir",
      "outputs": [],
      "stateMutability": "nonpayable",
      "type": "function"
    },
    {
      "inputs": [
        {
          "internalType": "uint256",
          "name": "sessionKey_",
          "type": "uint256"
        },
        {
          "components": [
            {
              "internalType": "bytes32",
              "name": "dataType",
              "type": "bytes32"
            },
            {
              "internalType": "bytes32",
              "name": "zkType",
              "type": "bytes32"
            },
            {
              "internalType": "bytes",
              "name": "signature",
              "type": "bytes"
            },
            {
              "internalType": "bytes",
              "name": "publicKey",
              "type": "bytes"
            },
            {
              "internalType": "bytes32",
              "name": "passportHash",
              "type": "bytes32"
            }
          ],
          "internalType": "struct Registration2.Passport",
          "name": "passport_",
          "type": "tuple"
        }
      ],
      "name": "revoke",
      "outputs": [],
      "stateMutability": "nonpayable",
      "type": "function"
    },
    {
      "inputs": [
        {
          "internalType": "uint256",
          "name": "sessionKey_",
          "type": "uint256"
        },
        {
          "components": [
            {
              "internalType": "bytes32",
              "name": "dataType",
              "type": "bytes32"
            },
            {
              "internalType": "bytes32",
              "name": "zkType",
              "type": "bytes32"
            },
            {
              "internalType": "bytes",
              "name": "signature",
              "type": "bytes"
            },
            {
              "internalType": "bytes",
              "name": "publicKey",
              "type": "bytes"
            },
            {
              "internalType": "bytes32",
              "name": "passportHash",
              "type": "bytes32"
            }
          ],
          "internalType": "struct Registration2.Passport",
          "name": "passport_",
          "type": "tuple"
        }
      ],
      "name": "revokeAllSessions",
      "outputs": [],
      "stateMutability": "nonpayable",
      "type": "function"
    },
    {
      "inputs": [
        {
          "internalType": "bytes32",
          "name": "certificateKey_",
          "type": "bytes32"
        }
      ],
      "name": "revokeCertificate",
      "outputs": [],
      "stateMutability": "nonpayable",
      "type": "function"
    },
    {
      "inputs": [
        {
          "internalType": "uint256",
          "name": "keepSessionKey_",
          "type": "uint256"
        },
        {
          "components": [
            {
              "internalType": "bytes32",
              "name": "dataType",
              "type": "bytes32"
            },
            {
              "internalType": "bytes32",
              "name": "zkType",
              "type": "bytes32"
            },
            {
              "internalType": "bytes",
              "name": "signature",
              "type": "bytes"
            },
            {
              "internalType": "bytes",
              "name": "publicKey",
              "type": "bytes"
            },
            {
              "internalType": "bytes32",
              "name": "passportHash",
              "type": "bytes32"
            }
          ],
          "internalType": "struct Registration2.Passport",
          "name": "passport_",
          "type": "tuple"
        }
      ],
      "name": "revokeOtherSessions",
      "outputs": [],
      "stateMutability": "nonpayable",
      "type": "function"
    },
    {
      "inputs": [],
      "name": "stateKeeper",
      "outputs": [
        {
          "internalType": "contract StateKeeper",
          "name": "",
          "type": "address"
        }
      ],
      "stateMutability": "view",
      "type": "function"
    },
    {
      "inputs": [
        {
          "internalType": "enum Registration2.MethodId",
          "name": "methodId_",
          "type": "uint8"
        },
        {
          "internalType": "bytes",
          "name": "data_",
          "type": "bytes"
        }
      ],
      "name": "updateDependency",
      "outputs": [],
      "stateMutability": "nonpayable",
      "type": "function"
    },
    {
      "inputs": [
        {
          "internalType": "address",
          "name": "newImplementation",
          "type": "address"
        },
        {
          "internalType": "bytes",
          "name": "data",
          "type": "bytes"
        }
      ],
      "name": "upgradeToAndCall",
      "outputs": [],
      "stateMutability": "payable",
      "type": "function"
    }
  ],
  "bytecode": "0x60a06040523060805234801561001457600080fd5b5061001d610022565b6100d4565b7ff0c57e16840df040f15088dc2f81fe391c3923bec73e23a9662efc9c229c6a00805468010000000000000000900460ff16156100725760405163f92ee8a960e01b815260040160405180910390fd5b80546001600160401b03908116146100d15780546001600160401b0319166001600160401b0390811782556040519081527fc7f505b2f371ae2175ee4913f4499e1f2633a7b5936321eed1cdaeb6115181d29060200160405180910390a15b50565b6080516122be6100fd600039600081816110230152818161104c015261119001526122be6000f3fe6080604052600436106100fe5760003560e01c80635c60da1b11610095578063ad3cb1cc11610064578063ad3cb1cc146102cd578063c3e6f8f91461030b578063c6cbc52a1461032b578063ccd0b62a1461034b578063dd9492a71461036b57600080fd5b80635c60da1b1461024257806361838d8e14610257578063621d5cca146102775780639261ca6a146102ad57600080fd5b80634d385c0c116100d15780634d385c0c146101da5780634f1ef286146101fa57806352d1902d1461020d5780635a0f28b11461022257600080fd5b806304bd8e82146101035780630d2478c91461015657806317a2453a1461017857806319f672a2146101ba575b600080fd5b34801561010f57600080fd5b5061013961011e366004611a53565b6001602052600090815260409020546001600160a01b031681565b6040516001600160a01b0390911681526020015b60405180910390f35b34801561016257600080fd5b50610176610171366004611a81565b6103a1565b005b34801561018457600080fd5b506101ac7f9a0f175c44aa7c405c6ab99fbc9aa9e2cdc8971d1fea806282f7746205e8b80781565b60405190815260200161014d565b3480156101c657600080fd5b506101766101d5366004611c3d565b6104c1565b3480156101e657600080fd5b506101766101f5366004611c83565b61057b565b610176610208366004611d0c565b6106e2565b34801561021957600080fd5b506101ac610701565b34801561022e57600080fd5b5061017661023d366004611d51565b61071e565b34801561024e57600080fd5b506101396107c8565b34801561026357600080fd5b50610176610272366004611c3d565b6107ee565b34801561028357600080fd5b50610139610292366004611a53565b6003602052600090815260409020546001600160a01b031681565b3480156102b957600080fd5b506101766102c8366004611c3d565b610873565b3480156102d957600080fd5b506102fe604051806040016040528060058152602001640352e302e360dc1b81525081565b60405161014d9190611e25565b34801561031757600080fd5b50600054610139906001600160a01b031681565b34801561033757600080fd5b50610176610346366004611a53565b6108f8565b34801561035757600080fd5b50610176610366366004611f4b565b610952565b34801561037757600080fd5b50610139610386366004611a53565b6002602052600090815260409020546001600160a01b031681565b7ff0c57e16840df040f15088dc2f81fe391c3923bec73e23a9662efc9c229c6a008054600160401b810460ff1615906001600160401b03166000811580156103e65750825b90506000826001600160401b031660011480156104025750303b155b905081158015610410575080155b1561042e5760405163f92ee8a960e01b815260040160405180910390fd5b845467ffffffffffffffff19166001178555831561045857845460ff60401b1916600160401b1785555b600080546001600160a01b0319166001600160a01b03881617905583156104b957845460ff60401b19168555604051600181527fc7f505b2f371ae2175ee4913f4499e1f2633a7b5936321eed1cdaeb6115181d29060200160405180910390a15b505050505050565b80517f65f0e8a3bb5583bfa39546604365561d323768e2e0157f9d7d088b9dfa1747f90161050a5760405162461bcd60e51b815260040161050190612031565b60405180910390fd5b60006105168383610c39565b60005460405163f3b4a54360e01b8152600481018390529192506001600160a01b03169063f3b4a543906024015b600060405180830381600087803b15801561055e57600080fd5b505af1158015610572573d6000803e3d6000fd5b50505050505050565b610583610db2565b600183600681111561059757610597612076565b14806105b4575060038360068111156105b2576105b2612076565b145b806105d0575060058360068111156105ce576105ce612076565b145b15610602576000806105e48385018561208c565b915091506105fb6105f486610e6c565b8383610f75565b5050505050565b600283600681111561061657610616612076565b14806106335750600483600681111561063157610631612076565b145b8061064f5750600683600681111561064d5761064d612076565b145b1561069557600061066282840184611a53565b905061068f61067085610e6c565b60008381526020919091526040902080546001600160a01b0319169055565b50505050565b60405162461bcd60e51b815260206004820152601e60248201527f526567697374726174696f6e3a20696e76616c6964206d6574686f64496400006044820152606401610501565b505050565b6106ea611018565b6106f3826110bd565b6106fd82826110c8565b5050565b600061070b611185565b5060008051602061226983398151915290565b600061072a8584610c39565b905061074e61073c84602001516111ce565b8783866080015160001c89898861124a565b6000546080840151604051638d65cad360e01b8152600481018490526024810191909152604481018790526001600160a01b0390911690638d65cad390606401600060405180830381600087803b1580156107a857600080fd5b505af11580156107bc573d6000803e3d6000fd5b50505050505050505050565b60006107e9600080516020612269833981519152546001600160a01b031690565b905090565b80517f65f0e8a3bb5583bfa39546604365561d323768e2e0157f9d7d088b9dfa1747f90161082e5760405162461bcd60e51b815260040161050190612031565b600061083a8383610c39565b6000546040516304d7630560e11b815260048101839052602481018690529192506001600160a01b0316906309aec60a90604401610544565b80517f65f0e8a3bb5583bfa39546604365561d323768e2e0157f9d7d088b9dfa1747f9016108b35760405162461bcd60e51b815260040161050190612031565b60006108bf8383610c39565b600054604051630357a70560e11b815260048101839052602481018690529192506001600160a01b0316906306af4e0a90604401610544565b60005460405163049917e760e11b8152600481018390526001600160a01b03909116906309322fce90602401600060405180830381600087803b15801561093e57600080fd5b505af11580156105fb573d6000803e3d6000fd5b600061096184600001516113c1565b905060006109838460200151805190602001208461144290919063ffffffff16565b905060008054906101000a90046001600160a01b03166001600160a01b031663280939856040518163ffffffff1660e01b8152600401602060405180830381865afa1580156109d6573d6000803e3d6000fd5b505050506040513d601f19601f820116820180604052508101906109fa91906120bc565b8114610a485760405162461bcd60e51b815260206004820181905260248201527f526567697374726174696f6e3a20696e76616c6964206963616f2070726f6f666044820152606401610501565b610a6082866020015186600001518760200151611485565b6000826001600160a01b03166310a7fc23876020015188604001516040518363ffffffff1660e01b8152600401610a989291906120d5565b600060405180830381865afa158015610ab5573d6000803e3d6000fd5b505050506040513d6000823e601f3d908101601f19168201604052610add91908101906120f7565b90506000836001600160a01b031663f73f47ba836040518263ffffffff1660e01b8152600401610b0d9190611e25565b602060405180830381865afa158015610b2a573d6000803e3d6000fd5b505050506040513d601f19601f82011682018060405250810190610b4e91906120bc565b6020880151606089015160405163475a46a960e11b81529293506000926001600160a01b03881692638eb48d5292610b88926004016120d5565b602060405180830381865afa158015610ba5573d6000803e3d6000fd5b505050506040513d601f19601f82011682018060405250810190610bc991906120bc565b6000546040516323e4f1ab60e11b815260048101859052602481018390529192506001600160a01b0316906347c9e35690604401600060405180830381600087803b158015610c1757600080fd5b505af1158015610c2b573d6000803e3d6000fd5b505050505050505050505050565b6000808311610c985760405162461bcd60e51b815260206004820152602560248201527f526567697374726174696f6e3a2073657373696f6e2063616e206e6f74206265604482015264207a65726f60d81b6064820152608401610501565b6000610ca78360000151611551565b6040516312221dc360e21b8152600481018690529091506000906001600160a01b03831690634888770c90602401600060405180830381865afa158015610cf2573d6000803e3d6000fd5b505050506040513d6000823e601f3d908101601f19168201604052610d1a91908101906120f7565b90506000826001600160a01b03166397b4367886606001516040518263ffffffff1660e01b8152600401610d4e9190611e25565b602060405180830381865afa158015610d6b573d6000803e3d6000fd5b505050506040513d601f19601f82011682018060405250810190610d8f91906120bc565b9050610d9e85604001516115cf565b610da983838761163c565b95945050505050565b6000546040516317aa5fb760e11b81523360048201526001600160a01b0390911690632f54bf6e90602401602060405180830381865afa158015610dfa573d6000803e3d6000fd5b505050506040513d601f19601f82011682018060405250810190610e1e9190612164565b610e6a5760405162461bcd60e51b815260206004820152601a60248201527f526567697374726174696f6e3a206e6f7420616e206f776e65720000000000006044820152606401610501565b565b60006001826006811115610e8257610e82612076565b1480610e9f57506002826006811115610e9d57610e9d612076565b145b15610eac57506001919050565b6003826006811115610ec057610ec0612076565b1480610edd57506004826006811115610edb57610edb612076565b145b15610eea57506002919050565b6005826006811115610efe57610efe612076565b1480610f1b57506006826006811115610f1957610f19612076565b145b15610f2857506003919050565b60405162461bcd60e51b815260206004820181905260248201527f526567697374726174696f6e3a20756e6b6e6f776e20646570656e64656e63796044820152606401610501565b919050565b6000828152602084905260409020546001600160a01b031615610fea5760405162461bcd60e51b815260206004820152602760248201527f526567697374726174696f6e3a206469737061746368657220616c72656164796044820152662065786973747360c81b6064820152608401610501565b60009182526020929092526040902080546001600160a01b0319166001600160a01b03909216919091179055565b306001600160a01b037f000000000000000000000000000000000000000000000000000000000000000016148061109f57507f00000000000000000000000000000000000000000000000000000000000000006001600160a01b0316611093600080516020612269833981519152546001600160a01b031690565b6001600160a01b031614155b15610e6a5760405163703e46dd60e11b815260040160405180910390fd5b6110c5610db2565b50565b816001600160a01b03166352d1902d6040518163ffffffff1660e01b8152600401602060405180830381865afa925050508015611122575060408051601f3d908101601f1916820190925261111f918101906120bc565b60015b61114a57604051634c9c8ce360e01b81526001600160a01b0383166004820152602401610501565b600080516020612269833981519152811461117b57604051632a87526960e21b815260048101829052602401610501565b6106dd8383611716565b306001600160a01b037f00000000000000000000000000000000000000000000000000000000000000001614610e6a5760405163703e46dd60e11b815260040160405180910390fd5b6000818152600360205260409020546001600160a01b031680610f705760405162461bcd60e51b815260206004820152602e60248201527f526567697374726174696f6e3a2070617373706f72742076657269666965722060448201526d191bd95cc81b9bdd08195e1a5cdd60921b6064820152608401610501565b856112548161176c565b60408051600580825260c082019092526000916020820160a0803683370190505090508660001b8160008151811061128e5761128e612186565b6020026020010181815250508560001b816001815181106112b1576112b1612186565b6020026020010181815250508360001b816002815181106112d4576112d4612186565b6020026020010181815250508460001b816003815181106112f7576112f7612186565b602002602001018181525050878160048151811061131757611317612186565b6020908102919091010152604051633a94343960e21b81526001600160a01b038a169063ea50d0e490611350908690859060040161219c565b602060405180830381865afa15801561136d573d6000803e3d6000fd5b505050506040513d601f19601f820116820180604052508101906113919190612164565b838290916113b45760405163eff4d24960e01b815260040161050192919061219c565b5050505050505050505050565b6000818152600160205260409020546001600160a01b031680610f705760405162461bcd60e51b815260206004820152603360248201527f526567697374726174696f6e3a2063657274696669636174652064697370617460448201527218da195c88191bd95cc81b9bdd08195e1a5cdd606a1b6064820152608401610501565b600081815b845181101561147d576114738286838151811061146657611466612186565b60200260200101516118ab565b9150600101611447565b509392505050565b604051635a933b9d60e01b81526001600160a01b03851690635a933b9d906114b5908690869086906004016121f6565b602060405180830381865afa1580156114d2573d6000803e3d6000fd5b505050506040513d601f19601f820116820180604052508101906114f69190612164565b61068f5760405162461bcd60e51b815260206004820152602660248201527f526567697374726174696f6e3a20696e76616c6964207835303920636572746960448201526566696361746560d01b6064820152608401610501565b6000818152600260205260409020546001600160a01b031680610f705760405162461bcd60e51b815260206004820152603060248201527f526567697374726174696f6e3a2070617373706f72742064697370617463686560448201526f1c88191bd95cc81b9bdd08195e1a5cdd60821b6064820152608401610501565b80516000036115db5750565b80516020820120600054604051635cf7c9fb60e11b8152600481018390526001600160a01b039091169063b9ef93f690602401600060405180830381600087803b15801561162857600080fd5b505af11580156104b9573d6000803e3d6000fd5b6040808201516060830151915163278f318d60e21b81526001600160a01b03861692639e3cc63492611673928792906004016121f6565b602060405180830381865afa158015611690573d6000803e3d6000fd5b505050506040513d601f19601f820116820180604052508101906116b49190612164565b6106dd5760405162461bcd60e51b815260206004820152602d60248201527f526567697374726174696f6e3a20696e76616c69642070617373706f7274206160448201526c3aba3432b73a34b1b0ba34b7b760991b6064820152608401610501565b61171f826118dd565b6040516001600160a01b038316907fbc7cd75a20ee27fd9adebab32041f755214dbc6bffa90cc0225b39da2e5c2d3b90600090a2805115611764576106dd8282611942565b6106fd6119af565b60008054906101000a90046001600160a01b03166001600160a01b031663260d91886040518163ffffffff1660e01b8152600401602060405180830381865afa1580156117bd573d6000803e3d6000fd5b505050506040513d601f19601f820116820180604052508101906117e1919061222f565b6001600160a01b03166330ef41b4826040518263ffffffff1660e01b815260040161180e91815260200190565b602060405180830381865afa15801561182b573d6000803e3d6000fd5b505050506040513d601f19601f8201168201806040525081019061184f9190612164565b6110c55760405162461bcd60e51b815260206004820152602760248201527f526567697374726174696f6e3a20696e76616c69642063657274696669636174604482015266195cc81c9bdbdd60ca1b6064820152608401610501565b60008183106118c75760008281526020849052604090206118d6565b60008381526020839052604090205b9392505050565b806001600160a01b03163b60000361191357604051634c9c8ce360e01b81526001600160a01b0382166004820152602401610501565b60008051602061226983398151915280546001600160a01b0319166001600160a01b0392909216919091179055565b6060600080846001600160a01b03168460405161195f919061224c565b600060405180830381855af49150503d806000811461199a576040519150601f19603f3d011682016040523d82523d6000602084013e61199f565b606091505b5091509150610da98583836119ce565b3415610e6a5760405163b398979f60e01b815260040160405180910390fd5b6060826119e3576119de82611a2a565b6118d6565b81511580156119fa57506001600160a01b0384163b155b15611a2357604051639996b31560e01b81526001600160a01b0385166004820152602401610501565b5092915050565b805115611a3a5780518082602001fd5b60405163d6bda27560e01b815260040160405180910390fd5b600060208284031215611a6557600080fd5b5035919050565b6001600160a01b03811681146110c557600080fd5b600060208284031215611a9357600080fd5b81356118d681611a6c565b634e487b7160e01b600052604160045260246000fd5b60405160a081016001600160401b0381118282101715611ad657611ad6611a9e565b60405290565b604051608081016001600160401b0381118282101715611ad657611ad6611a9e565b604051601f8201601f191681016001600160401b0381118282101715611b2657611b26611a9e565b604052919050565b60006001600160401b03821115611b4757611b47611a9e565b50601f01601f191660200190565b600082601f830112611b6657600080fd5b8135611b79611b7482611b2e565b611afe565b818152846020838601011115611b8e57600080fd5b816020850160208301376000918101602001919091529392505050565b600060a08284031215611bbd57600080fd5b611bc5611ab4565b8235815260208084013590820152905060408201356001600160401b03811115611bee57600080fd5b611bfa84828501611b55565b60408301525060608201356001600160401b03811115611c1957600080fd5b611c2584828501611b55565b60608301525060809182013591810191909152919050565b60008060408385031215611c5057600080fd5b8235915060208301356001600160401b03811115611c6d57600080fd5b611c7985828601611bab565b9150509250929050565b600080600060408486031215611c9857600080fd5b833560078110611ca757600080fd5b925060208401356001600160401b03811115611cc257600080fd5b8401601f81018613611cd357600080fd5b80356001600160401b03811115611ce957600080fd5b866020828401011115611cfb57600080fd5b939660209190910195509293505050565b60008060408385031215611d1f57600080fd5b8235611d2a81611a6c565b915060208301356001600160401b03811115611d4557600080fd5b611c7985828601611b55565b600080600080600060a08688031215611d6957600080fd5b85359450602086013593506040860135925060608601356001600160401b03811115611d9457600080fd5b611da088828901611bab565b92505060808601356001600160401b03811115611dbc57600080fd5b611dc888828901611b55565b9150509295509295909350565b60005b83811015611df0578181015183820152602001611dd8565b50506000910152565b60008151808452611e11816020860160208601611dd5565b601f01601f19169290920160200192915050565b6020815260006118d66020830184611df9565b600060408284031215611e4a57600080fd5b604080519081016001600160401b0381118282101715611e6c57611e6c611a9e565b60405290508082356001600160401b03811115611e8857600080fd5b611e9485828601611b55565b82525060208301356001600160401b03811115611eb057600080fd5b611ebc85828601611b55565b6020830152505092915050565b600082601f830112611eda57600080fd5b81356001600160401b03811115611ef357611ef3611a9e565b8060051b611f0360208201611afe565b91825260208185018101929081019086841115611f1f57600080fd5b6020860192505b83831015611f41578235825260209283019290910190611f26565b9695505050505050565b600080600060608486031215611f6057600080fd5b83356001600160401b03811115611f7657600080fd5b840160808187031215611f8857600080fd5b611f90611adc565b8135815260208201356001600160401b03811115611fad57600080fd5b611fb988828501611b55565b60208381019190915260408481013590840152606093840135938301939093525093508401356001600160401b03811115611ff357600080fd5b611fff86828701611e38565b92505060408401356001600160401b0381111561201b57600080fd5b61202786828701611ec9565b9150509250925092565b60208082526025908201527f526567697374726174696f6e3a2063616e2774207265766f6b6520776974686f604082015264757420414160d81b606082015260800190565b634e487b7160e01b600052602160045260246000fd5b6000806040838503121561209f57600080fd5b8235915060208301356120b181611a6c565b809150509250929050565b6000602082840312156120ce57600080fd5b5051919050565b6040815260006120e86040830185611df9565b90508260208301529392505050565b60006020828403121561210957600080fd5b81516001600160401b0381111561211f57600080fd5b8201601f8101841361213057600080fd5b805161213e611b7482611b2e565b81815285602083850101111561215357600080fd5b610da9826020830160208601611dd5565b60006020828403121561217657600080fd5b815180151581146118d657600080fd5b634e487b7160e01b600052603260045260246000fd5b6040815260006121af6040830185611df9565b828103602084015280845180835260208301915060208601925060005b818110156121ea5783518352602093840193909201916001016121cc565b50909695505050505050565b6060815260006122096060830186611df9565b828103602084015261221b8186611df9565b90508281036040840152611f418185611df9565b60006020828403121561224157600080fd5b81516118d681611a6c565b6000825161225e818460208701611dd5565b919091019291505056fe360894a13ba1a3210667c828492db98dca3e2076cc3735a920a3ca505d382bbca264697066735822122022ea1b726f4d65e520fd573e7a4358b68bc4b71cebdf514d8bfebe07d1576fd364736f6c634300081c0033",
  "linkReferences": {},
  "deployedLinkReferences": {}
}