{
  "_format": "hh-sol-artifact-1",
  "contractName": "Registration2",
  "sourceName": "contracts/registration/Registration2.sol",
  "abi": [
    {
      "inputs": [],
      "stateMutability": "nonpayable",
      "type": "constructor"
    },
    {
      "inputs": [
        {
          "internalType": "address",
          "name": "target",
          "type": "address"
        }
      ],
      "name": "AddressEmptyCode",
      "type": "error"
    },
    {
      "inputs": [
        {
          "internalType": "address",
          "name": "implementation",
          "type": "address"
        }
      ],
      "name": "ERC1967InvalidImplementation",
      "type": "error"
    },
    {
      "inputs": [],
      "name": "ERC1967NonPayable",
      "type": "error"
    },
    {
      "inputs": [],
      "name": "FailedCall",
      "type": "error"
    },
    {
      "inputs": [],
      "name": "InvalidInitialization",
      "type": "error"
    },
    {
      "inputs": [
        {
          "internalType": "bytes",
          "name": "proof",
          "type": "bytes"
        },
        {
          "internalType": "bytes32[]",
          "name": "pubSignals",
          "type": "bytes32[]"
        }
      ],
      "name": "InvalidNoirProof",
      "type": "error"
    },
    {
      "inputs": [],
      "name": "NotInitializing",
      "type": "error"
    },
    {
      "inputs": [],
      "name": "UUPSUnauthorizedCallContext",
      "type": "error"
    },
    {
      "inputs": [
        {
          "internalType": "bytes32",
          "name": "slot",
          "type": "bytes32"
        }
      ],
      "name": "UUPSUnsupportedProxiableUUID",
      "type": "error"
    },
    {
      "anonymous": false,
      "inputs": [
        {
          "indexed": false,
          "internalType": "uint64",
          "name": "version",
          "type": "uint64"
        }
      ],
      "name": "Initialized",
      "type": "event"
    },
    {
      "anonymous": false,
      "inputs": [
        {
          "indexed": true,
          "internalType": "address",
          "name": "implementation",
          "type": "address"
        }
      ],
      "name": "Upgraded",
      "type": "event"
    },
    {
      "inputs": [],
      "name": "P_NO_AA",
      "outputs": [
        {
          "internalType": "bytes32",
          "name": "",
          "type": "bytes32"
        }
      ],
      "stateMutability": "view",
      "type": "function"
    },
    {
      "inputs": [],
      "name": "UPGRADE_INTERFACE_VERSION",
      "outputs": [
        {
          "internalType": "string",
          "name": "",
          "type": "string"
        }
      ],
      "stateMutability": "view",
      "type": "function"
    },
    {
      "inputs": [
        {
          "internalType": "address",
          "name": "stateKeeper_",
          "type": "address"
        }
      ],
      "name": "__Registration_init",
      "outputs": [],
      "stateMutability": "nonpayable",
      "type": "function"
    },
    {
      "inputs": [
        {
          "internalType": "bytes32",
          "name": "",
          "type": "bytes32"
        }
      ],
      "name": "certificateDispatchers",
      "outputs": [
        {
          "internalType": "address",
          "name": "",
          "type": "address"
        }
      ],
      "stateMutability": "view",
      "type": "function"
    },
    {
      "inputs": [],
      "name": "implementation",
      "outputs": [
        {
          "internalType": "address",
          "name": "",
          "type": "address"
        }
      ],
      "stateMutability": "view",
      "type": "function"
    },
    {
      "inputs": [
        {
          "internalType": "bytes32",
          "name": "",
          "type": "bytes32"
        }
      ],
      "name": "passportDispatchers",
      "outputs": [
        {
          "internalType": "address",
          "name": "",
          "type": "address"
        }
      ],
      "stateMutability": "view",
      "type": "function"
    },
    {
      "inputs": [
        {
          "internalType": "bytes32",
          "name": "",
          "type": "bytes32"
        }
      ],
      "name": "passportVerifiers",
      "outputs": [
        {
          "internalType": "address",
          "name": "",
          "type": "address"
        }
      ],
      "stateMutability": "view",
      "type": "function"
    },
    {
      "inputs": [],
      "name": "proxiableUUID",
      "outputs": [
        {
          "internalType": "bytes32",
          "name": "",
          "type": "bytes32"
        }
      ],
      "stateMutability": "view",
      "type": "function"
    },
    {
      "inputs": [
        {
          "components": [
            {
              "internalType": "bytes32",
              "name": "dataType",
              "type": "bytes32"
            },
            {
              "internalType": "bytes",
              "name": "signedAttributes",
              "type": "bytes"
            },
            {
              "internalType": "uint256",
              "name": "keyOffset",
              "type": "uint256"
            },
            {
              "internalType": "uint256",
              "name": "expirationOffset",
              "type": "uint256"
            }
          ],
          "internalType": "struct Registration2.Certificate",
          "name": "certificate_",
          "type": "tuple"
        },
        {
          "components": [
            {
              "internalType": "bytes",
              "name": "signature",
              "type": "bytes"
            },
            {
              "internalType": "bytes",
              "name": "publicKey",
              "type": "bytes"
            }
          ],
          "internalType": "struct Registration2.ICAOMember",
          "name": "icaoMember_",
          "type": "tuple"
        },
        {
          "internalType": "bytes32[]",
          "name": "icaoMerkleProof_",
          "type": "bytes32[]"
        }
      ],
      "name": "registerCertificate",
      "outputs": [],
      "stateMutability": "nonpayable",
      "type": "function"
    },
    {
      "inputs": [
        {
          "internalType": "bytes32",
          "name": "certificatesRoot_",
          "type": "bytes32"
        },
        {
          "internalType": "uint256",
          "name": "sessionKey_",
          "type": "uint256"
        },
        {
          "internalType": "uint256",
          "name": "dgCommit_",
          "type": "uint256"
        },
        {
          "components": [
            {
              "internalType": "bytes32",
              "name": "dataType",
              "type": "bytes32"
            },
            {
              "internalType": "bytes32",
              "name": "zkType",
              "type": "bytes32"
            },
            {
              "internalType": "bytes",
              "name": "signature",
              "type": "bytes"
            },
            {
              "internalType": "bytes",
              "name": "publicKey",
              "type": "bytes"
            },
            {
              "internalType": "bytes32",
              "name": "passportHash",
              "type": "bytes32"
            }
          ],
          "internalType": "struct Registration2.Passport",
          "name": "passport_",
          "type": "tuple"
        },
        {
          "internalType": "bytes",
          "name": "zkPoints_",
          "type": "bytes"
        }
      ],
      "name": "registerViaNoir",
      "outputs": [],
      "stateMutability": "nonpayable",
      "type": "function"
    },
    {
      "inputs": [
        {
          "internalType": "uint256",
          "name": "sessionKey_",
          "type": "uint256"
        },
        {
          "components": [
            {
              "internalType": "bytes32",
              "name": "dataType",
              "type": "bytes32"
            },
            {
              "internalType": "bytes32",
              "name": "zkType",
              "type": "bytes32"
            },
            {
              "internalType": "bytes",
              "name": "signature",
              "type": "bytes"
            },
            {
              "internalType": "bytes",
              "name": "publicKey",
              "type": "bytes"
            },
            {
              "internalType": "bytes32",
              "name": "passportHash",
              "type": "bytes32"
            }
          ],
          "internalType": "struct Registration2.Passport",
          "name": "passport_",
          "type": "tuple"
        }
      ],
      "name": "revoke",
      "outputs": [],
      "stateMutability": "nonpayable",
      "type": "function"
    },
    {
      "inputs": [
        {
          "internalType": "uint256",
          "name": "sessionKey_",
          "type": "uint256"
        },
        {
          "components": [
            {
              "internalType": "bytes32",
              "name": "dataType",
              "type": "bytes32"
            },
            {
              "internalType": "bytes32",
              "name": "zkType",
              "type": "bytes32"
            },
            {
              "internalType": "bytes",
              "name": "signature",
              "type": "bytes"
            },
            {
              "internalType": "bytes",
              "name": "publicKey",
              "type": "bytes"
            },
            {
              "internalType": "bytes32",
              "name": "passportHash",
              "type": "bytes32"
            }
          ],
          "internalType": "struct Registration2.Passport",
          "name": "passport_",
          "type": "tuple"
        }
      ],
      "name": "revokeAllSessions",
      "outputs": [],
      "stateMutability": "nonpayable",
      "type": "function"
    },
    {
      "inputs": [
        {
          "internalType": "bytes32",
          "name": "certificateKey_",
          "type": "bytes32"
        }
      ],
      "name": "revokeCertificate",
      "outputs": [],
      "stateMutability": "nonpayable",
      "type": "function"
    },
    {
      "inputs": [
        {
          "internalType": "uint256",
          "name": "keepSessionKey_",
          "type": "uint256"
        },
        {
          "components": [
            {
              "internalType": "bytes32",
              "name": "dataType",
              "type": "bytes32"
            },
            {
              "internalType": "bytes32",
              "name": "zkType",
              "type": "bytes32"
            },
            {
              "internalType": "bytes",
              "name": "signature",
              "type": "bytes"
            },
            {
              "internalType": "bytes",
              "name": "publicKey",
              "type": "bytes"
            },
            {
              "internalType": "bytes32",
              "name": "passportHash",
              "type": "bytes32"
            }
          ],
          "internalType": "struct Registration2.Passport",
          "name": "passport_",
          "type": "tuple"
        }
      ],
      "name": "revokeOtherSessions",
      "outputs": [],
      "stateMutability": "nonpayable",
      "type": "function"
    },
    {
      "inputs": [],
      "name": "stateKeeper",
      "outputs": [
        {
          "internalType": "contract StateKeeper",
          "name": "",
          "type": "address"
        }
      ],
      "stateMutability": "view",
      "type": "function"
    },
    {
      "inputs": [
        {
          "internalType": "enum Registration2.MethodId",
          "name": "methodId_",
          "type": "uint8"
        },
        {
          "internalType": "bytes",
          "name": "data_",
          "type": "bytes"
        }
      ],
      "name": "updateDependency",
      "outputs": [],
      "stateMutability": "nonpayable",
      "type": "function"
    },
    {
      "inputs": [
        {
          "internalType": "address",
          "name": "newImplementation",
          "type": "address"
        },
        {
          "internalType": "bytes",
          "name": "data",
          "type": "bytes"
        }
      ],
      "name": "upgradeToAndCall",
      "outputs": [],
      "stateMutability": "payable",
      "type": "function"
    }
  ],
  "bytecode": "0x60a060405230608052348015610013575f5ffd5b5061001c610021565b6100d3565b7ff0c57e16840df040f15088dc2f81fe391c3923bec73e23a9662efc9c229c6a00805468010000000000000000900460ff16156100715760405163f92ee8a960e01b815260040160405180910390fd5b80546001600160401b03908116146100d05780546001600160401b0319166001600160401b0390811782556040519081527fc7f505b2f371ae2175ee4913f4499e1f2633a7b5936321eed1cdaeb6115181d29060200160405180910390a15b50565b6080516121cd6100f95f395f8181610fbf01528181610fe8015261112a01526121cd5ff3fe6080604052600436106100fa575f3560e01c80635c60da1b11610092578063ad3cb1cc11610062578063ad3cb1cc146102bb578063c3e6f8f9146102f8578063c6cbc52a14610316578063ccd0b62a14610335578063dd9492a714610354575f5ffd5b80635c60da1b1461023557806361838d8e14610249578063621d5cca146102685780639261ca6a1461029c575f5ffd5b80634d385c0c116100cd5780634d385c0c146101d05780634f1ef286146101ef57806352d1902d146102025780635a0f28b114610216575f5ffd5b806304bd8e82146100fe5780630d2478c91461014f57806317a2453a1461017057806319f672a2146101b1575b5f5ffd5b348015610109575f5ffd5b506101326101183660046119c8565b60016020525f90815260409020546001600160a01b031681565b6040516001600160a01b0390911681526020015b60405180910390f35b34801561015a575f5ffd5b5061016e6101693660046119f3565b610388565b005b34801561017b575f5ffd5b506101a37f9a0f175c44aa7c405c6ab99fbc9aa9e2cdc8971d1fea806282f7746205e8b80781565b604051908152602001610146565b3480156101bc575f5ffd5b5061016e6101cb366004611ba2565b6104a5565b3480156101db575f5ffd5b5061016e6101ea366004611be5565b610558565b61016e6101fd366004611c66565b6106bc565b34801561020d575f5ffd5b506101a36106db565b348015610221575f5ffd5b5061016e610230366004611ca8565b6106f6565b348015610240575f5ffd5b50610132610798565b348015610254575f5ffd5b5061016e610263366004611ba2565b6107bc565b348015610273575f5ffd5b506101326102823660046119c8565b60036020525f90815260409020546001600160a01b031681565b3480156102a7575f5ffd5b5061016e6102b6366004611ba2565b61083f565b3480156102c6575f5ffd5b506102eb604051806040016040528060058152602001640352e302e360dc1b81525081565b6040516101469190611d54565b348015610303575f5ffd5b505f54610132906001600160a01b031681565b348015610321575f5ffd5b5061016e6103303660046119c8565b6108c2565b348015610340575f5ffd5b5061016e61034f366004611e72565b610916565b34801561035f575f5ffd5b5061013261036e3660046119c8565b60026020525f90815260409020546001600160a01b031681565b7ff0c57e16840df040f15088dc2f81fe391c3923bec73e23a9662efc9c229c6a008054600160401b810460ff1615906001600160401b03165f811580156103cc5750825b90505f826001600160401b031660011480156103e75750303b155b9050811580156103f5575080155b156104135760405163f92ee8a960e01b815260040160405180910390fd5b845467ffffffffffffffff19166001178555831561043d57845460ff60401b1916600160401b1785555b5f80546001600160a01b0319166001600160a01b038816179055831561049d57845460ff60401b19168555604051600181527fc7f505b2f371ae2175ee4913f4499e1f2633a7b5936321eed1cdaeb6115181d29060200160405180910390a15b505050505050565b80517f65f0e8a3bb5583bfa39546604365561d323768e2e0157f9d7d088b9dfa1747f9016104ee5760405162461bcd60e51b81526004016104e590611f50565b60405180910390fd5b5f6104f98383610be6565b5f5460405163f3b4a54360e01b8152600481018390529192506001600160a01b03169063f3b4a543906024015b5f604051808303815f87803b15801561053d575f5ffd5b505af115801561054f573d5f5f3e3d5ffd5b50505050505050565b610560610d54565b600183600681111561057457610574611f95565b14806105915750600383600681111561058f5761058f611f95565b145b806105ad575060058360068111156105ab576105ab611f95565b145b156105de575f806105c083850185611fa9565b915091506105d76105d086610e0b565b8383610f13565b5050505050565b60028360068111156105f2576105f2611f95565b148061060f5750600483600681111561060d5761060d611f95565b145b8061062b5750600683600681111561062957610629611f95565b145b1561066f575f61063d828401846119c8565b905061066961064b85610e0b565b5f8381526020919091526040902080546001600160a01b0319169055565b50505050565b60405162461bcd60e51b815260206004820152601e60248201527f526567697374726174696f6e3a20696e76616c6964206d6574686f644964000060448201526064016104e5565b505050565b6106c4610fb4565b6106cd82611058565b6106d78282611063565b5050565b5f6106e461111f565b505f5160206121785f395f51905f5290565b5f6107018584610be6565b90506107246107138460200151611168565b878386608001515f1c8989886111e3565b5f546080840151604051638d65cad360e01b8152600481018490526024810191909152604481018790526001600160a01b0390911690638d65cad3906064015f604051808303815f87803b15801561077a575f5ffd5b505af115801561078c573d5f5f3e3d5ffd5b50505050505050505050565b5f6107b75f5160206121785f395f51905f52546001600160a01b031690565b905090565b80517f65f0e8a3bb5583bfa39546604365561d323768e2e0157f9d7d088b9dfa1747f9016107fc5760405162461bcd60e51b81526004016104e590611f50565b5f6108078383610be6565b5f546040516304d7630560e11b815260048101839052602481018690529192506001600160a01b0316906309aec60a90604401610526565b80517f65f0e8a3bb5583bfa39546604365561d323768e2e0157f9d7d088b9dfa1747f90161087f5760405162461bcd60e51b81526004016104e590611f50565b5f61088a8383610be6565b5f54604051630357a70560e11b815260048101839052602481018690529192506001600160a01b0316906306af4e0a90604401610526565b5f5460405163049917e760e11b8152600481018390526001600160a01b03909116906309322fce906024015f604051808303815f87803b158015610904575f5ffd5b505af11580156105d7573d5f5f3e3d5ffd5b5f610923845f0151611352565b90505f610944846020015180519060200120846113d290919063ffffffff16565b90505f5f9054906101000a90046001600160a01b03166001600160a01b031663280939856040518163ffffffff1660e01b8152600401602060405180830381865afa158015610995573d5f5f3e3d5ffd5b505050506040513d601f19601f820116820180604052508101906109b99190611fd7565b8114610a075760405162461bcd60e51b815260206004820181905260248201527f526567697374726174696f6e3a20696e76616c6964206963616f2070726f6f6660448201526064016104e5565b610a1e828660200151865f01518760200151611414565b5f826001600160a01b03166310a7fc23876020015188604001516040518363ffffffff1660e01b8152600401610a55929190611fee565b5f60405180830381865afa158015610a6f573d5f5f3e3d5ffd5b505050506040513d5f823e601f3d908101601f19168201604052610a96919081019061200f565b90505f836001600160a01b031663f73f47ba836040518263ffffffff1660e01b8152600401610ac59190611d54565b602060405180830381865afa158015610ae0573d5f5f3e3d5ffd5b505050506040513d601f19601f82011682018060405250810190610b049190611fd7565b6020880151606089015160405163475a46a960e11b81529293505f926001600160a01b03881692638eb48d5292610b3d92600401611fee565b602060405180830381865afa158015610b58573d5f5f3e3d5ffd5b505050506040513d601f19601f82011682018060405250810190610b7c9190611fd7565b5f546040516323e4f1ab60e11b815260048101859052602481018390529192506001600160a01b0316906347c9e356906044015f604051808303815f87803b158015610bc6575f5ffd5b505af1158015610bd8573d5f5f3e3d5ffd5b505050505050505050505050565b5f5f8311610c445760405162461bcd60e51b815260206004820152602560248201527f526567697374726174696f6e3a2073657373696f6e2063616e206e6f74206265604482015264207a65726f60d81b60648201526084016104e5565b5f610c51835f01516114de565b6040516312221dc360e21b8152600481018690529091505f906001600160a01b03831690634888770c906024015f60405180830381865afa158015610c98573d5f5f3e3d5ffd5b505050506040513d5f823e601f3d908101601f19168201604052610cbf919081019061200f565b90505f826001600160a01b03166397b4367886606001516040518263ffffffff1660e01b8152600401610cf29190611d54565b602060405180830381865afa158015610d0d573d5f5f3e3d5ffd5b505050506040513d601f19601f82011682018060405250810190610d319190611fd7565b9050610d40856040015161155b565b610d4b8383876115c1565b95945050505050565b5f546040516317aa5fb760e11b81523360048201526001600160a01b0390911690632f54bf6e90602401602060405180830381865afa158015610d99573d5f5f3e3d5ffd5b505050506040513d601f19601f82011682018060405250810190610dbd9190612083565b610e095760405162461bcd60e51b815260206004820152601a60248201527f526567697374726174696f6e3a206e6f7420616e206f776e657200000000000060448201526064016104e5565b565b5f6001826006811115610e2057610e20611f95565b1480610e3d57506002826006811115610e3b57610e3b611f95565b145b15610e4a57506001919050565b6003826006811115610e5e57610e5e611f95565b1480610e7b57506004826006811115610e7957610e79611f95565b145b15610e8857506002919050565b6005826006811115610e9c57610e9c611f95565b1480610eb957506006826006811115610eb757610eb7611f95565b145b15610ec657506003919050565b60405162461bcd60e51b815260206004820181905260248201527f526567697374726174696f6e3a20756e6b6e6f776e20646570656e64656e637960448201526064016104e5565b919050565b5f828152602084905260409020546001600160a01b031615610f875760405162461bcd60e51b815260206004820152602760248201527f526567697374726174696f6e3a206469737061746368657220616c72656164796044820152662065786973747360c81b60648201526084016104e5565b5f9182526020929092526040902080546001600160a01b0319166001600160a01b03909216919091179055565b306001600160a01b037f000000000000000000000000000000000000000000000000000000000000000016148061103a57507f00000000000000000000000000000000000000000000000000000000000000006001600160a01b031661102e5f5160206121785f395f51905f52546001600160a01b031690565b6001600160a01b031614155b15610e095760405163703e46dd60e11b815260040160405180910390fd5b611060610d54565b50565b816001600160a01b03166352d1902d6040518163ffffffff1660e01b8152600401602060405180830381865afa9250505080156110bd575060408051601f3d908101601f191682019092526110ba91810190611fd7565b60015b6110e557604051634c9c8ce360e01b81526001600160a01b03831660048201526024016104e5565b5f5160206121785f395f51905f52811461111557604051632a87526960e21b8152600481018290526024016104e5565b6106b78383611699565b306001600160a01b037f00000000000000000000000000000000000000000000000000000000000000001614610e095760405163703e46dd60e11b815260040160405180910390fd5b5f818152600360205260409020546001600160a01b031680610f0e5760405162461bcd60e51b815260206004820152602e60248201527f526567697374726174696f6e3a2070617373706f72742076657269666965722060448201526d191bd95cc81b9bdd08195e1a5cdd60921b60648201526084016104e5565b856111ed816116ee565b60408051600580825260c082019092525f916020820160a080368337019050509050865f1b815f81518110611224576112246120a2565b602002602001018181525050855f1b81600181518110611246576112466120a2565b602002602001018181525050835f1b81600281518110611268576112686120a2565b602002602001018181525050845f1b8160038151811061128a5761128a6120a2565b60200260200101818152505087816004815181106112aa576112aa6120a2565b6020908102919091010152604051633a94343960e21b81526001600160a01b038a169063ea50d0e4906112e390869085906004016120b6565b602060405180830381865afa1580156112fe573d5f5f3e3d5ffd5b505050506040513d601f19601f820116820180604052508101906113229190612083565b838290916113455760405163eff4d24960e01b81526004016104e59291906120b6565b5050505050505050505050565b5f818152600160205260409020546001600160a01b031680610f0e5760405162461bcd60e51b815260206004820152603360248201527f526567697374726174696f6e3a2063657274696669636174652064697370617460448201527218da195c88191bd95cc81b9bdd08195e1a5cdd606a1b60648201526084016104e5565b5f81815b845181101561140c57611402828683815181106113f5576113f56120a2565b6020026020010151611829565b91506001016113d6565b509392505050565b604051635a933b9d60e01b81526001600160a01b03851690635a933b9d906114449086908690869060040161210e565b602060405180830381865afa15801561145f573d5f5f3e3d5ffd5b505050506040513d601f19601f820116820180604052508101906114839190612083565b6106695760405162461bcd60e51b815260206004820152602660248201527f526567697374726174696f6e3a20696e76616c6964207835303920636572746960448201526566696361746560d01b60648201526084016104e5565b5f818152600260205260409020546001600160a01b031680610f0e5760405162461bcd60e51b815260206004820152603060248201527f526567697374726174696f6e3a2070617373706f72742064697370617463686560448201526f1c88191bd95cc81b9bdd08195e1a5cdd60821b60648201526084016104e5565b80515f036115665750565b805160208201205f54604051635cf7c9fb60e11b8152600481018390526001600160a01b039091169063b9ef93f6906024015f604051808303815f87803b1580156115af575f5ffd5b505af115801561049d573d5f5f3e3d5ffd5b6040808201516060830151915163278f318d60e21b81526001600160a01b03861692639e3cc634926115f89287929060040161210e565b602060405180830381865afa158015611613573d5f5f3e3d5ffd5b505050506040513d601f19601f820116820180604052508101906116379190612083565b6106b75760405162461bcd60e51b815260206004820152602d60248201527f526567697374726174696f6e3a20696e76616c69642070617373706f7274206160448201526c3aba3432b73a34b1b0ba34b7b760991b60648201526084016104e5565b6116a282611858565b6040516001600160a01b038316907fbc7cd75a20ee27fd9adebab32041f755214dbc6bffa90cc0225b39da2e5c2d3b905f90a28051156116e6576106b782826118bb565b6106d7611924565b5f5f9054906101000a90046001600160a01b03166001600160a01b031663260d91886040518163ffffffff1660e01b8152600401602060405180830381865afa15801561173d573d5f5f3e3d5ffd5b505050506040513d601f19601f820116820180604052508101906117619190612146565b6001600160a01b03166330ef41b4826040518263ffffffff1660e01b815260040161178e91815260200190565b602060405180830381865afa1580156117a9573d5f5f3e3d5ffd5b505050506040513d601f19601f820116820180604052508101906117cd9190612083565b6110605760405162461bcd60e51b815260206004820152602760248201527f526567697374726174696f6e3a20696e76616c69642063657274696669636174604482015266195cc81c9bdbdd60ca1b60648201526084016104e5565b5f818310611843575f828152602084905260409020611851565b5f8381526020839052604090205b9392505050565b806001600160a01b03163b5f0361188d57604051634c9c8ce360e01b81526001600160a01b03821660048201526024016104e5565b5f5160206121785f395f51905f5280546001600160a01b0319166001600160a01b0392909216919091179055565b60605f5f846001600160a01b0316846040516118d79190612161565b5f60405180830381855af49150503d805f811461190f576040519150601f19603f3d011682016040523d82523d5f602084013e611914565b606091505b5091509150610d4b858383611943565b3415610e095760405163b398979f60e01b815260040160405180910390fd5b606082611958576119538261199f565b611851565b815115801561196f57506001600160a01b0384163b155b1561199857604051639996b31560e01b81526001600160a01b03851660048201526024016104e5565b5092915050565b8051156119af5780518082602001fd5b60405163d6bda27560e01b815260040160405180910390fd5b5f602082840312156119d8575f5ffd5b5035919050565b6001600160a01b0381168114611060575f5ffd5b5f60208284031215611a03575f5ffd5b8135611851816119df565b634e487b7160e01b5f52604160045260245ffd5b60405160a081016001600160401b0381118282101715611a4457611a44611a0e565b60405290565b604051608081016001600160401b0381118282101715611a4457611a44611a0e565b604051601f8201601f191681016001600160401b0381118282101715611a9457611a94611a0e565b604052919050565b5f6001600160401b03821115611ab457611ab4611a0e565b50601f01601f191660200190565b5f82601f830112611ad1575f5ffd5b8135611ae4611adf82611a9c565b611a6c565b818152846020838601011115611af8575f5ffd5b816020850160208301375f918101602001919091529392505050565b5f60a08284031215611b24575f5ffd5b611b2c611a22565b8235815260208084013590820152905060408201356001600160401b03811115611b54575f5ffd5b611b6084828501611ac2565b60408301525060608201356001600160401b03811115611b7e575f5ffd5b611b8a84828501611ac2565b60608301525060809182013591810191909152919050565b5f5f60408385031215611bb3575f5ffd5b8235915060208301356001600160401b03811115611bcf575f5ffd5b611bdb85828601611b14565b9150509250929050565b5f5f5f60408486031215611bf7575f5ffd5b833560078110611c05575f5ffd5b925060208401356001600160401b03811115611c1f575f5ffd5b8401601f81018613611c2f575f5ffd5b80356001600160401b03811115611c44575f5ffd5b866020828401011115611c55575f5ffd5b939660209190910195509293505050565b5f5f60408385031215611c77575f5ffd5b8235611c82816119df565b915060208301356001600160401b03811115611c9c575f5ffd5b611bdb85828601611ac2565b5f5f5f5f5f60a08688031215611cbc575f5ffd5b85359450602086013593506040860135925060608601356001600160401b03811115611ce6575f5ffd5b611cf288828901611b14565b92505060808601356001600160401b03811115611d0d575f5ffd5b611d1988828901611ac2565b9150509295509295909350565b5f81518084528060208401602086015e5f602082860101526020601f19601f83011685010191505092915050565b602081525f6118516020830184611d26565b5f60408284031215611d76575f5ffd5b604080519081016001600160401b0381118282101715611d9857611d98611a0e565b60405290508082356001600160401b03811115611db3575f5ffd5b611dbf85828601611ac2565b82525060208301356001600160401b03811115611dda575f5ffd5b611de685828601611ac2565b6020830152505092915050565b5f82601f830112611e02575f5ffd5b81356001600160401b03811115611e1b57611e1b611a0e565b8060051b611e2b60208201611a6c565b91825260208185018101929081019086841115611e46575f5ffd5b6020860192505b83831015611e68578235825260209283019290910190611e4d565b9695505050505050565b5f5f5f60608486031215611e84575f5ffd5b83356001600160401b03811115611e99575f5ffd5b840160808187031215611eaa575f5ffd5b611eb2611a4a565b8135815260208201356001600160401b03811115611ece575f5ffd5b611eda88828501611ac2565b60208381019190915260408481013590840152606093840135938301939093525093508401356001600160401b03811115611f13575f5ffd5b611f1f86828701611d66565b92505060408401356001600160401b03811115611f3a575f5ffd5b611f4686828701611df3565b9150509250925092565b60208082526025908201527f526567697374726174696f6e3a2063616e2774207265766f6b6520776974686f604082015264757420414160d81b606082015260800190565b634e487b7160e01b5f52602160045260245ffd5b5f5f60408385031215611fba575f5ffd5b823591506020830135611fcc816119df565b809150509250929050565b5f60208284031215611fe7575f5ffd5b5051919050565b604081525f6120006040830185611d26565b90508260208301529392505050565b5f6020828403121561201f575f5ffd5b81516001600160401b03811115612034575f5ffd5b8201601f81018413612044575f5ffd5b8051612052611adf82611a9c565b818152856020838501011115612066575f5ffd5b8160208401602083015e5f91810160200191909152949350505050565b5f60208284031215612093575f5ffd5b81518015158114611851575f5ffd5b634e487b7160e01b5f52603260045260245ffd5b604081525f6120c86040830185611d26565b82810360208401528084518083526020830191506020860192505f5b818110156121025783518352602093840193909201916001016120e4565b50909695505050505050565b606081525f6121206060830186611d26565b82810360208401526121328186611d26565b90508281036040840152611e688185611d26565b5f60208284031215612156575f5ffd5b8151611851816119df565b5f82518060208501845e5f92019182525091905056fe360894a13ba1a3210667c828492db98dca3e2076cc3735a920a3ca505d382bbca2646970667358221220d96b627a5ff29fd726cedb30f6d5f1b581b44fec1c902375c197098f95f0834864736f6c634300081c0033",
  "linkReferences": {},
  "deployedLinkReferences": {}
}