{
  "_format": "hh-sol-artifact-1",
  "contractName": "StateKeeper",
  "sourceName": "contracts/state/StateKeeper.sol",
  "abi": [
    {
      "inputs": [],
      "stateMutability": "nonpayable",
      "type": "constructor"
    },
    {
      "inputs": [
        {
          "internalType": "address",
          "name": "target",
          "type": "address"
        }
      ],
      "name": "AddressEmptyCode",
      "type": "error"
    },
    {
      "inputs": [
        {
          "internalType": "address",
          "name": "implementation",
          "type": "address"
        }
      ],
      "name": "ERC1967InvalidImplementation",
      "type": "error"
    },
    {
      "inputs": [],
      "name": "ERC1967NonPayable",
      "type": "error"
    },
    {
      "inputs": [],
      "name": "FailedCall",
      "type": "error"
    },
    {
      "inputs": [],
      "name": "InvalidInitialization",
      "type": "error"
    },
    {
      "inputs": [],
      "name": "InvalidOwner",
      "type": "error"
    },
    {
      "inputs": [],
      "name": "NotInitializing",
      "type": "error"
    },
    {
      "inputs": [],
      "name": "UUPSUnauthorizedCallContext",
      "type": "error"
    },
    {
      "inputs": [
        {
          "internalType": "bytes32",
          "name": "slot",
          "type": "bytes32"
        }
      ],
      "name": "UUPSUnsupportedProxiableUUID",
      "type": "error"
    },
    {
      "inputs": [
        {
          "internalType": "address",
          "name": "account",
          "type": "address"
        }
      ],
      "name": "UnauthorizedAccount",
      "type": "error"
    },
    {
      "anonymous": false,
      "inputs": [
        {
          "indexed": false,
          "internalType": "bytes32",
          "name": "passportKey",
          "type": "bytes32"
        },
        {
          "indexed": false,
          "internalType": "bytes32",
          "name": "sessionKey",
          "type": "bytes32"
        }
      ],
      "name": "BondAdded",
      "type": "event"
    },
    {
      "anonymous": false,
      "inputs": [
        {
          "indexed": false,
          "internalType": "bytes32",
          "name": "passportKey",
          "type": "bytes32"
        },
        {
          "indexed": false,
          "internalType": "bytes32",
          "name": "sessionKey",
          "type": "bytes32"
        }
      ],
      "name": "BondRevoked",
      "type": "event"
    },
    {
      "anonymous": false,
      "inputs": [
        {
          "indexed": false,
          "internalType": "bytes32",
          "name": "passportKey",
          "type": "bytes32"
        },
        {
          "indexed": false,
          "internalType": "bytes32",
          "name": "sessionKey",
          "type": "bytes32"
        }
      ],
      "name": "BondSessionReissued",
      "type": "event"
    },
    {
      "anonymous": false,
      "inputs": [
        {
          "indexed": false,
          "internalType": "bytes32",
          "name": "certificateKey",
          "type": "bytes32"
        },
        {
          "indexed": false,
          "internalType": "uint256",
          "name": "expirationTimestamp",
          "type": "uint256"
        }
      ],
      "name": "CertificateAdded",
      "type": "event"
    },
    {
      "anonymous": false,
      "inputs": [
        {
          "indexed": false,
          "internalType": "bytes32",
          "name": "certificateKey",
          "type": "bytes32"
        }
      ],
      "name": "CertificateRemoved",
      "type": "event"
    },
    {
      "anonymous": false,
      "inputs": [
        {
          "indexed": false,
          "internalType": "uint64",
          "name": "version",
          "type": "uint64"
        }
      ],
      "name": "Initialized",
      "type": "event"
    },
    {
      "anonymous": false,
      "inputs": [
        {
          "indexed": false,
          "internalType": "address[]",
          "name": "newOwners",
          "type": "address[]"
        }
      ],
      "name": "OwnersAdded",
      "type": "event"
    },
    {
      "anonymous": false,
      "inputs": [
        {
          "indexed": false,
          "internalType": "address[]",
          "name": "removedOwners",
          "type": "address[]"
        }
      ],
      "name": "OwnersRemoved",
      "type": "event"
    },
    {
      "anonymous": false,
      "inputs": [
        {
          "indexed": true,
          "internalType": "address",
          "name": "implementation",
          "type": "address"
        }
      ],
      "name": "Upgraded",
      "type": "event"
    },
    {
      "inputs": [],
      "name": "REVOKED",
      "outputs": [
        {
          "internalType": "bytes32",
          "name": "",
          "type": "bytes32"
        }
      ],
      "stateMutability": "view",
      "type": "function"
    },
    {
      "inputs": [],
      "name": "UPGRADE_INTERFACE_VERSION",
      "outputs": [
        {
          "internalType": "string",
          "name": "",
          "type": "string"
        }
      ],
      "stateMutability": "view",
      "type": "function"
    },
    {
      "inputs": [],
      "name": "USED",
      "outputs": [
        {
          "internalType": "bytes32",
          "name": "",
          "type": "bytes32"
        }
      ],
      "stateMutability": "view",
      "type": "function"
    },
    {
      "inputs": [
        {
          "internalType": "address",
          "name": "initialOwner_",
          "type": "address"
        },
        {
          "internalType": "address",
          "name": "certificatesSmt_",
          "type": "address"
        },
        {
          "internalType": "bytes32",
          "name": "icaoMasterTreeMerkleRoot_",
          "type": "bytes32"
        }
      ],
      "name": "__StateKeeper_init",
      "outputs": [],
      "stateMutability": "nonpayable",
      "type": "function"
    },
    {
      "inputs": [],
      "name": "__StateKeeper_init_v2",
      "outputs": [],
      "stateMutability": "nonpayable",
      "type": "function"
    },
    {
      "inputs": [
        {
          "internalType": "bytes32",
          "name": "passportKey_",
          "type": "bytes32"
        },
        {
          "internalType": "bytes32",
          "name": "passportHash_",
          "type": "bytes32"
        },
        {
          "internalType": "bytes32",
          "name": "sessionKey_",
          "type": "bytes32"
        }
      ],
      "name": "addBond",
      "outputs": [],
      "stateMutability": "nonpayable",
      "type": "function"
    },
    {
      "inputs": [
        {
          "internalType": "bytes32",
          "name": "certificateKey_",
          "type": "bytes32"
        },
        {
          "internalType": "uint256",
          "name": "expirationTimestamp_",
          "type": "uint256"
        }
      ],
      "name": "addCertificate",
      "outputs": [],
      "stateMutability": "nonpayable",
      "type": "function"
    },
    {
      "inputs": [
        {
          "internalType": "address[]",
          "name": "newOwners_",
          "type": "address[]"
        }
      ],
      "name": "addOwners",
      "outputs": [],
      "stateMutability": "nonpayable",
      "type": "function"
    },
    {
      "inputs": [],
      "name": "certificatesSmt",
      "outputs": [
        {
          "internalType": "contract PoseidonSMT",
          "name": "",
          "type": "address"
        }
      ],
      "stateMutability": "view",
      "type": "function"
    },
    {
      "inputs": [
        {
          "internalType": "bytes32",
          "name": "newRoot_",
          "type": "bytes32"
        }
      ],
      "name": "changeICAOMasterTreeRoot",
      "outputs": [],
      "stateMutability": "nonpayable",
      "type": "function"
    },
    {
      "inputs": [
        {
          "internalType": "bytes32",
          "name": "certificateKey_",
          "type": "bytes32"
        }
      ],
      "name": "getCertificateInfo",
      "outputs": [
        {
          "components": [
            {
              "internalType": "uint64",
              "name": "expirationTimestamp",
              "type": "uint64"
            }
          ],
          "internalType": "struct StateKeeper.CertificateInfo",
          "name": "",
          "type": "tuple"
        }
      ],
      "stateMutability": "view",
      "type": "function"
    },
    {
      "inputs": [],
      "name": "getOwners",
      "outputs": [
        {
          "internalType": "address[]",
          "name": "",
          "type": "address[]"
        }
      ],
      "stateMutability": "view",
      "type": "function"
    },
    {
      "inputs": [
        {
          "internalType": "bytes32",
          "name": "passportKey_",
          "type": "bytes32"
        }
      ],
      "name": "getPassportInfo",
      "outputs": [
        {
          "components": [
            {
              "internalType": "uint64",
              "name": "activeSessionCount",
              "type": "uint64"
            }
          ],
          "internalType": "struct StateKeeper.PassportInfo",
          "name": "passportInfo_",
          "type": "tuple"
        }
      ],
      "stateMutability": "view",
      "type": "function"
    },
    {
      "inputs": [
        {
          "internalType": "bytes32",
          "name": "passportKey_",
          "type": "bytes32"
        }
      ],
      "name": "getPassportSessions",
      "outputs": [
        {
          "internalType": "bytes32[]",
          "name": "sessionKeys_",
          "type": "bytes32[]"
        }
      ],
      "stateMutability": "view",
      "type": "function"
    },
    {
      "inputs": [
        {
          "internalType": "bytes32",
          "name": "passportKey_",
          "type": "bytes32"
        }
      ],
      "name": "getPassportSessionsInfo",
      "outputs": [
        {
          "internalType": "bytes32[]",
          "name": "sessionKeys_",
          "type": "bytes32[]"
        },
        {
          "components": [
            {
              "internalType": "bytes32",
              "name": "activePassport",
              "type": "bytes32"
            },
            {
              "internalType": "uint64",
              "name": "issueTimestamp",
              "type": "uint64"
            }
          ],
          "internalType": "struct StateKeeper.SessionInfo[]",
          "name": "sessionInfos_",
          "type": "tuple[]"
        }
      ],
      "stateMutability": "view",
      "type": "function"
    },
    {
      "inputs": [
        {
          "internalType": "string",
          "name": "key_",
          "type": "string"
        }
      ],
      "name": "getRegistrationByKey",
      "outputs": [
        {
          "internalType": "address",
          "name": "",
          "type": "address"
        }
      ],
      "stateMutability": "view",
      "type": "function"
    },
    {
      "inputs": [],
      "name": "getRegistrations",
      "outputs": [
        {
          "internalType": "string[]",
          "name": "keys_",
          "type": "string[]"
        },
        {
          "internalType": "address[]",
          "name": "values_",
          "type": "address[]"
        }
      ],
      "stateMutability": "view",
      "type": "function"
    },
    {
      "inputs": [
        {
          "internalType": "bytes32",
          "name": "sessionKey_",
          "type": "bytes32"
        }
      ],
      "name": "getSessionInfo",
      "outputs": [
        {
          "components": [
            {
              "internalType": "bytes32",
              "name": "activePassport",
              "type": "bytes32"
            },
            {
              "internalType": "uint64",
              "name": "issueTimestamp",
              "type": "uint64"
            }
          ],
          "internalType": "struct StateKeeper.SessionInfo",
          "name": "sessionInfo_",
          "type": "tuple"
        }
      ],
      "stateMutability": "view",
      "type": "function"
    },
    {
      "inputs": [],
      "name": "icaoMasterTreeMerkleRoot",
      "outputs": [
        {
          "internalType": "bytes32",
          "name": "",
          "type": "bytes32"
        }
      ],
      "stateMutability": "view",
      "type": "function"
    },
    {
      "inputs": [],
      "name": "implementation",
      "outputs": [
        {
          "internalType": "address",
          "name": "",
          "type": "address"
        }
      ],
      "stateMutability": "view",
      "type": "function"
    },
    {
      "inputs": [
        {
          "internalType": "address",
          "name": "address_",
          "type": "address"
        }
      ],
      "name": "isOwner",
      "outputs": [
        {
          "internalType": "bool",
          "name": "",
          "type": "bool"
        }
      ],
      "stateMutability": "view",
      "type": "function"
    },
    {
      "inputs": [
        {
          "internalType": "bytes32",
          "name": "passportKey_",
          "type": "bytes32"
        }
      ],
      "name": "isPassportFullyRevoked",
      "outputs": [
        {
          "internalType": "bool",
          "name": "isFullyRevoked_",
          "type": "bool"
        }
      ],
      "stateMutability": "view",
      "type": "function"
    },
    {
      "inputs": [
        {
          "internalType": "address",
          "name": "registration_",
          "type": "address"
        }
      ],
      "name": "isRegistration",
      "outputs": [
        {
          "internalType": "bool",
          "name": "",
          "type": "bool"
        }
      ],
      "stateMutability": "view",
      "type": "function"
    },
    {
      "inputs": [],
      "name": "proxiableUUID",
      "outputs": [
        {
          "internalType": "bytes32",
          "name": "",
          "type": "bytes32"
        }
      ],
      "stateMutability": "view",
      "type": "function"
    },
    {
      "inputs": [
        {
          "internalType": "bytes32",
          "name": "certificateKey_",
          "type": "bytes32"
        }
      ],
      "name": "removeCertificate",
      "outputs": [],
      "stateMutability": "nonpayable",
      "type": "function"
    },
    {
      "inputs": [
        {
          "internalType": "address[]",
          "name": "oldOwners_",
          "type": "address[]"
        }
      ],
      "name": "removeOwners",
      "outputs": [],
      "stateMutability": "nonpayable",
      "type": "function"
    },
    {
      "inputs": [],
      "name": "renounceOwnership",
      "outputs": [],
      "stateMutability": "nonpayable",
      "type": "function"
    },
    {
      "inputs": [
        {
          "internalType": "bytes32",
          "name": "passportKey_",
          "type": "bytes32"
        }
      ],
      "name": "revokeAllBonds",
      "outputs": [],
      "stateMutability": "nonpayable",
      "type": "function"
    },
    {
      "inputs": [
        {
          "internalType": "bytes32",
          "name": "passportKey_",
          "type": "bytes32"
        },
        {
          "internalType": "bytes32",
          "name": "sessionKey_",
          "type": "bytes32"
        }
      ],
      "name": "revokeBond",
      "outputs": [],
      "stateMutability": "nonpayable",
      "type": "function"
    },
    {
      "inputs": [
        {
          "internalType": "bytes32",
          "name": "passportKey_",
          "type": "bytes32"
        },
        {
          "internalType": "bytes32[]",
          "name": "sessionKeys_",
          "type": "bytes32[]"
        }
      ],
      "name": "revokeBonds",
      "outputs": [],
      "stateMutability": "nonpayable",
      "type": "function"
    },
    {
      "inputs": [
        {
          "internalType": "bytes32",
          "name": "passportKey_",
          "type": "bytes32"
        },
        {
          "internalType": "bytes32",
          "name": "keepSessionKey_",
          "type": "bytes32"
        }
      ],
      "name": "revokeBondsExcept",
      "outputs": [],
      "stateMutability": "nonpayable",
      "type": "function"
    },
    {
      "inputs": [
        {
          "internalType": "enum StateKeeper.MethodId",
          "name": "methodId_",
          "type": "uint8"
        },
        {
          "internalType": "bytes",
          "name": "data_",
          "type": "bytes"
        }
      ],
      "name": "updateRegistrationSet",
      "outputs": [],
      "stateMutability": "nonpayable",
      "type": "function"
    },
    {
      "inputs": [
        {
          "internalType": "address",
          "name": "newImplementation",
          "type": "address"
        },
        {
          "internalType": "bytes",
          "name": "data",
          "type": "bytes"
        }
      ],
      "name": "upgradeToAndCall",
      "outputs": [],
      "stateMutability": "payable",
      "type": "function"
    },
    {
      "inputs": [
        {
          "internalType": "bytes32",
          "name": "sigHash_",
          "type": "bytes32"
        }
      ],
      "name": "useSignature",
      "outputs": [],
      "stateMutability": "nonpayable",
      "type": "function"
    },
    {
      "inputs": [
        {
          "internalType": "bytes32",
          "name": "",
          "type": "bytes32"
        }
      ],
      "name": "usedSignatures",
      "outputs": [
        {
          "internalType": "bool",
          "name": "",
          "type": "bool"
        }
      ],
      "stateMutability": "view",
      "type": "function"
    }
  ],
  "bytecode": "0x60a06040523060805234801561001457600080fd5b5061001d610022565b6100d4565b7ff0c57e16840df040f15088dc2f81fe391c3923bec73e23a9662efc9c229c6a00805468010000000000000000900460ff16156100725760405163f92ee8a960e01b815260040160405180910390fd5b80546001600160401b03908116146100d15780546001600160401b0319166001600160401b0390811782556040519081527fc7f505b2f371ae2175ee4913f4499e1f2633a7b5936321eed1cdaeb6115181d29060200160405180910390a15b50565b608051612fb56100fd60003960008181611b8401528181611bad0152611cee0152612fb56000f3fe6080604052600436106102045760003560e01c80636c46a2c511610118578063b9ef93f6116100a0578063d1e8076a1161006f578063d1e8076a146106a1578063da45b383146106c4578063e6c292e814610733578063f3b4a54314610767578063f978fd611461078757600080fd5b8063b9ef93f614610600578063c152a33614610620578063c1654dc814610654578063c7e904f11461068157600080fd5b8063936dd712116100e7578063936dd71214610540578063a0e67e2b14610560578063a9a5e3af14610582578063a9f6c1e2146105a2578063ad3cb1cc146105c257600080fd5b80636c46a2c5146104cb578063715018a6146104eb57806372b9e087146105005780638d65cad31461052057600080fd5b806337f7e1dd1161019b5780634f1ef2861161016a5780634f1ef2861461042157806352d1902d146104345780635c60da1b1461044957806369fab6301461045e5780636a70a17f146104ab57600080fd5b806337f7e1dd1461034e5780633b65c5dd146103b357806347c9e356146103ec57806347caf5fb1461040c57600080fd5b80631a88210f116101d75780631a88210f1461028b578063260d9188146102c257806328093985146102fa5780632f54bf6e1461031e57600080fd5b806304bb9fc11461020957806306af4e0a1461022b57806309322fce1461024b57806309aec60a1461026b575b600080fd5b34801561021557600080fd5b506102296102243660046125ea565b6107b7565b005b34801561023757600080fd5b50610229610246366004612673565b610ab8565b34801561025757600080fd5b50610229610266366004612695565b610bfc565b34801561027757600080fd5b50610229610286366004612673565b610d4b565b34801561029757600080fd5b506102ab6102a6366004612695565b610d61565b6040516102b99291906126ea565b60405180910390f35b3480156102ce57600080fd5b506002546102e2906001600160a01b031681565b6040516001600160a01b0390911681526020016102b9565b34801561030657600080fd5b5061031060035481565b6040519081526020016102b9565b34801561032a57600080fd5b5061033e61033936600461277e565b610eb5565b60405190151581526020016102b9565b34801561035a57600080fd5b5061039b610369366004612695565b6040805160208082018352600091829052928152600583528190208151928301909152546001600160401b0316815290565b60405190516001600160401b031681526020016102b9565b3480156103bf57600080fd5b5061033e6103ce36600461277e565b6001600160a01b03166000908152600c602052604090205460ff1690565b3480156103f857600080fd5b50610229610407366004612673565b610ed7565b34801561041857600080fd5b5061022961100c565b61022961042f36600461283a565b6110e0565b34801561044057600080fd5b506103106110fb565b34801561045557600080fd5b506102e2611118565b34801561046a57600080fd5b5061039b610479366004612695565b6040805160208082018352600091829052928152600683528190208151928301909152546001600160401b0316815290565b3480156104b757600080fd5b5061033e6104c6366004612695565b61113e565b3480156104d757600080fd5b506102296104e6366004612932565b611175565b3480156104f757600080fd5b50610229611189565b34801561050c57600080fd5b506102e261051b36600461298e565b6111a4565b34801561052c57600080fd5b5061022961053b3660046129c2565b6111d5565b34801561054c57600080fd5b5061022961055b366004612695565b6113ff565b34801561056c57600080fd5b5061057561140c565b6040516102b99190612a29565b34801561058e57600080fd5b5061022961059d366004612932565b61142c565b3480156105ae57600080fd5b506102296105bd366004612a3c565b61143d565b3480156105ce57600080fd5b506105f3604051806040016040528060058152602001640352e302e360dc1b81525081565b6040516102b99190612afa565b34801561060c57600080fd5b5061022961061b366004612695565b6114cd565b34801561062c57600080fd5b506103107fd116c8141a03af4e4da955b106de0a9b8627570b09600e574e5e6410ca2028cd81565b34801561066057600080fd5b5061067461066f366004612695565b61154f565b6040516102b99190612b0d565b34801561068d57600080fd5b5061022961069c366004612b20565b6115b1565b3480156106ad57600080fd5b506106b66116f4565b6040516102b9929190612b5d565b3480156106d057600080fd5b506107266106df366004612695565b604080518082019091526000808252602082015250600090815260076020908152604091829020825180840190935280548352600101546001600160401b03169082015290565b6040516102b99190612bcc565b34801561073f57600080fd5b506103107ff762965bdb8dff81b8c1397e6074e78216cd3eefe37835af6bd83d5348ea57f381565b34801561077357600080fd5b50610229610782366004612695565b6117d2565b34801561079357600080fd5b5061033e6107a2366004612695565b60046020526000908152604090205460ff1681565b6107bf611861565b60028360038111156107d3576107d3612bec565b03610950576000806107e783850185612c84565b9150915060005b82518110156109485761082483828151811061080c5761080c612ce1565b6020026020010151600961188990919063ffffffff16565b6108815760405162461bcd60e51b815260206004820152602360248201527f53746174654b65657065723a206475706c69636174652072656769737472617460448201526234b7b760e91b60648201526084015b60405180910390fd5b81818151811061089357610893612ce1565b6020026020010151600b8483815181106108af576108af612ce1565b60200260200101516040516108c49190612cf7565b908152602001604051809103902060006101000a8154816001600160a01b0302191690836001600160a01b031602179055506001600c600084848151811061090e5761090e612ce1565b6020908102919091018101516001600160a01b03168252810191909152604001600020805460ff19169115159190911790556001016107ee565b505050505050565b600383600381111561096457610964612bec565b03610a6b57600061097782840184612d13565b905060005b8151811015610a6457600c6000600b84848151811061099d5761099d612ce1565b60200260200101516040516109b29190612cf7565b9081526040805160209281900383019020546001600160a01b031683529082019290925201600020805460ff191690558151600b908390839081106109f9576109f9612ce1565b6020026020010151604051610a0e9190612cf7565b90815260405190819003602001902080546001600160a01b03191690558151610a5b90839083908110610a4357610a43612ce1565b6020026020010151600961189590919063ffffffff16565b5060010161097c565b5050505050565b60405162461bcd60e51b815260206004820152601b60248201527f53746174654b65657065723a20496e76616c6964206d6574686f6400000000006044820152606401610878565b505050565b610ac06118a1565b6000828152600660209081526040808320848452600790925290912080548414610b485760405162461bcd60e51b815260206004820152603360248201527f53746174654b65657065723a206b65657053657373696f6e206e6f7420626f756044820152721b99081d1bc81d1a1a5cc81c185cdcdc1bdc9d606a1b6064820152608401610878565b600084815260086020908152604080832080548251818502810185019093528083529192909190830182828015610b9e57602002820191906000526020600020905b815481526020019060010190808311610b8a575b5050505050905060005b81518110156109485784828281518110610bc457610bc4612ce1565b602002602001015114610bf457610bf486838381518110610be757610be7612ce1565b6020026020010151611900565b600101610ba8565b610c046118a1565b600081815260056020526040902080546001600160401b031615801590610c3657508054426001600160401b03909116105b610c925760405162461bcd60e51b815260206004820152602760248201527f53746174654b65657065723a206365727469666963617465206973206e6f7420604482015266195e1c1a5c995960ca1b6064820152608401610878565b60008281526005602052604090819020805467ffffffffffffffff1916905560025490516395bc267360e01b8152600481018490526001600160a01b03909116906395bc267390602401600060405180830381600087803b158015610cf657600080fd5b505af1158015610d0a573d6000803e3d6000fd5b505050507f51d6e7e7475c981f5a20eebd7c32eedbad5c375ce0c04e69c585e1016884309182604051610d3f91815260200190565b60405180910390a15050565b610d536118a1565b610d5d8282611900565b5050565b60608060086000848152602001908152602001600020805480602002602001604051908101604052809291908181526020018280548015610dc157602002820191906000526020600020905b815481526020019060010190808311610dad575b5050505050915081516001600160401b03811115610de157610de1612799565b604051908082528060200260200182016040528015610e2657816020015b6040805180820190915260008082526020820152815260200190600190039081610dff5790505b50905060005b8251811015610eaf5760076000848381518110610e4b57610e4b612ce1565b6020908102919091018101518252818101929092526040908101600020815180830190925280548252600101546001600160401b0316918101919091528251839083908110610e9c57610e9c612ce1565b6020908102919091010152600101610e2c565b50915091565b6000600080516020612f60833981519152610ed08184611b3e565b9392505050565b610edf6118a1565b42610eee826309660180612d5d565b11610f475760405162461bcd60e51b815260206004820152602360248201527f53746174654b65657065723a20636572746966696361746520697320657870696044820152621c995960ea1b6064820152608401610878565b60008281526005602052604090819020805467ffffffffffffffff19166001600160401b03841617905560025490516368ef2c9560e11b815260048101849052602481018490526001600160a01b039091169063d1de592a90604401600060405180830381600087803b158015610fbd57600080fd5b505af1158015610fd1573d6000803e3d6000fd5b505060408051858152602081018590527fdd806c7ed389b44cc5098f8ba58fce2b7ae0fd8f94a7362f5e52bf2f5f9cae969350019050610d3f565b7ff0c57e16840df040f15088dc2f81fe391c3923bec73e23a9662efc9c229c6a00805460029190600160401b900460ff1680611055575080546001600160401b03808416911610155b156110735760405163f92ee8a960e01b815260040160405180910390fd5b805468ffffffffffffffffff19166001600160401b03831617600160401b17815561109c611b60565b805460ff60401b191681556040516001600160401b03831681527fc7f505b2f371ae2175ee4913f4499e1f2633a7b5936321eed1cdaeb6115181d290602001610d3f565b6110e8611b79565b6110f182611c1e565b610d5d8282611c26565b6000611105611ce3565b50600080516020612f4083398151915290565b6000611139600080516020612f40833981519152546001600160a01b031690565b905090565b6000818152600660205260408120546001600160401b031615801561116f5750600082815260086020526040902054155b92915050565b61117d611861565b61118681611d2c565b50565b611191611861565b6111a261119d33611d9d565b611df8565b565b6000600b826040516111b69190612cf7565b908152604051908190036020019020546001600160a01b031692915050565b6111dd6118a1565b826111e6579091905b60008381526006602090815260408083208484526007909252909120815481546001600160401b039091161590158061123f575081547ff762965bdb8dff81b8c1397e6074e78216cd3eefe37835af6bd83d5348ea57f3145b61129b5760405162461bcd60e51b815260206004820152602760248201527f53746174654b65657065723a2073657373696f6e20616c7265616479207265676044820152661a5cdd195c995960ca1b6064820152608401610878565b8080156112a757508515155b80156112b257508415155b1561134657600085815260066020526040902080546001600160401b0316156113335760405162461bcd60e51b815260206004820152602d60248201527f53746174654b65657065723a2070617373706f7274206861736820616c72656160448201526c191e481c9959da5cdd195c9959609a1b6064820152608401610878565b805467ffffffffffffffff191660011790555b6000868152600860209081526040822080546001810182559083529082200185905583546001600160401b031690849061137f83612d70565b82546101009290920a6001600160401b0381810219909316918316021790915587845560018401805467ffffffffffffffff1916429092169190911790555060408051878152602081018690527f87092beaddcf0a16fb9360208b92ce770205be7c83981e39e7c040f3365e1d06910160405180910390a1505050505050565b611407611861565b600355565b6060600080516020612f6083398151915261142681611e40565b91505090565b611434611861565b61118681611df8565b6114456118a1565b806114925760405162461bcd60e51b815260206004820181905260248201527f53746174654b65657065723a20656d7074792073657373696f6e2061727261796044820152606401610878565b60005b818110156114c7576114bf848484848181106114b3576114b3612ce1565b90506020020135611900565b600101611495565b50505050565b6114d56118a1565b60008181526004602052604090205460ff16156115345760405162461bcd60e51b815260206004820152601b60248201527f53746174654b65657065723a207369676e6174757265207573656400000000006044820152606401610878565b6000908152600460205260409020805460ff19166001179055565b6000818152600860209081526040918290208054835181840281018401909452808452606093928301828280156115a557602002820191906000526020600020905b815481526020019060010190808311611591575b50505050509050919050565b7ff0c57e16840df040f15088dc2f81fe391c3923bec73e23a9662efc9c229c6a008054600160401b810460ff1615906001600160401b03166000811580156115f65750825b90506000826001600160401b031660011480156116125750303b155b905081158015611620575080155b1561163e5760405163f92ee8a960e01b815260040160405180910390fd5b845467ffffffffffffffff19166001178555831561166857845460ff60401b1916600160401b1785555b611670611b60565b600280546001600160a01b0319166001600160a01b038981169190911790915560038790556116a4906104e6908a16611d9d565b83156116ea57845460ff60401b19168555604051600181527fc7f505b2f371ae2175ee4913f4499e1f2633a7b5936321eed1cdaeb6115181d29060200160405180910390a15b5050505050505050565b6060806117016009611e4d565b915081516001600160401b0381111561171c5761171c612799565b604051908082528060200260200182016040528015611745578160200160208202803683370190505b50905060005b82518110156117cd57600b83828151811061176857611768612ce1565b602002602001015160405161177d9190612cf7565b9081526040519081900360200190205482516001600160a01b03909116908390839081106117ad576117ad612ce1565b6001600160a01b039092166020928302919091019091015260010161174b565b509091565b6117da6118a1565b60008181526008602090815260408083208054825181850281018501909352808352919290919083018282801561183057602002820191906000526020600020905b81548152602001906001019080831161181c575b5050505050905060005b8151811015610ab35761185983838381518110610be757610be7612ce1565b60010161183a565b61186a33610eb5565b6111a2576040516332b2baa360e01b8152336004820152602401610878565b6000610ed08383611e5a565b6000610ed08383611ec7565b336000908152600c602052604090205460ff166111a25760405162461bcd60e51b815260206004820152601f60248201527f53746174654b65657065723a206e6f74206120726567697374726174696f6e006044820152606401610878565b60008281526006602090815260408083208484526007909252909120805484146119845760405162461bcd60e51b815260206004820152602f60248201527f53746174654b65657065723a2073657373696f6e206e6f7420626f756e64207460448201526e1bc81d1a1a5cc81c185cdcdc1bdc9d608a1b6064820152608401610878565b81546001600160401b03166119db5760405162461bcd60e51b815260206004820152601f60248201527f53746174654b65657065723a206e6f206163746976652073657373696f6e73006044820152606401610878565b7ff762965bdb8dff81b8c1397e6074e78216cd3eefe37835af6bd83d5348ea57f381556000848152600860205260408120905b8154811015611ab85784828281548110611a2a57611a2a612ce1565b906000526020600020015403611ab05781548290611a4a90600190612d9b565b81548110611a5a57611a5a612ce1565b9060005260206000200154828281548110611a7757611a77612ce1565b906000526020600020018190555081805480611a9557611a95612dae565b60019003818190600052602060002001600090559055611ab8565b600101611a0e565b5082546001600160401b0316836000611ad083612dc4565b91906101000a8154816001600160401b0302191690836001600160401b03160217905550507f18b1ebf9bb79fcc8e5ab11ee140888c82f028d83dba90562b8afad91bbc15db08585604051611b2f929190918252602082015260400190565b60405180910390a15050505050565b6001600160a01b03811660009081526001830160205260408120541515610ed0565b611b68612061565b6111a2611b7433611d9d565b611d2c565b306001600160a01b037f0000000000000000000000000000000000000000000000000000000000000000161480611c0057507f00000000000000000000000000000000000000000000000000000000000000006001600160a01b0316611bf4600080516020612f40833981519152546001600160a01b031690565b6001600160a01b031614155b156111a25760405163703e46dd60e11b815260040160405180910390fd5b611186611861565b816001600160a01b03166352d1902d6040518163ffffffff1660e01b8152600401602060405180830381865afa925050508015611c80575060408051601f3d908101601f19168201909252611c7d91810190612de7565b60015b611ca857604051634c9c8ce360e01b81526001600160a01b0383166004820152602401610878565b600080516020612f408339815191528114611cd957604051632a87526960e21b815260048101829052602401610878565b610ab383836120aa565b306001600160a01b037f000000000000000000000000000000000000000000000000000000000000000016146111a25760405163703e46dd60e11b815260040160405180910390fd5b600080516020612f60833981519152611d458183612100565b611d50816000611b3e565b15611d6e576040516349e27cff60e01b815260040160405180910390fd5b7f5fd1e185ef572e7f662fcc63b7c9e778b996190372868af5fe137132c811398e82604051610d3f9190612a29565b604080516001808252818301909252606091602080830190803683370190505090508181600081518110611dd357611dd3612ce1565b60200260200101906001600160a01b031690816001600160a01b031681525050919050565b600080516020612f60833981519152611e118183612141565b7f0bbb8c3531454b5141cebfe14eba43275a099c31e3357a4653412a08b05ce0cc82604051610d3f9190612a29565b60606000610ed083612182565b60606000610ed0836121dc565b80516020808301919091206000908152600184019091526040812054611ebf57825460018101845560008481526020902001611e968382612e81565b50508154815160208084019190912060009081526001808601909252604090209190915561116f565b50600061116f565b805160208083019190912060008181526001850190925260408220548015612056576000611ef6600183612d9b565b8654909150600090611f0a90600190612d9b565b9050818114612008576000876000018281548110611f2a57611f2a612ce1565b906000526020600020018054611f3f90612e00565b80601f0160208091040260200160405190810160405280929190818152602001828054611f6b90612e00565b8015611fb85780601f10611f8d57610100808354040283529160200191611fb8565b820191906000526020600020905b815481529060010190602001808311611f9b57829003601f168201915b5050505050905080886000018481548110611fd557611fd5612ce1565b906000526020600020019081611feb9190612e81565b508051602091820120600090815260018901909152604090208390555b865487908061201957612019612dae565b600190038181906000526020600020016000612035919061259c565b9055505050600090815260018085016020526040822091909155905061116f565b60009250505061116f565b7ff0c57e16840df040f15088dc2f81fe391c3923bec73e23a9662efc9c229c6a0054600160401b900460ff166111a257604051631afcd79f60e31b815260040160405180910390fd5b6120b3826122b9565b6040516001600160a01b038316907fbc7cd75a20ee27fd9adebab32041f755214dbc6bffa90cc0225b39da2e5c2d3b90600090a28051156120f857610ab3828261231e565b610d5d612394565b60005b8151811015610ab35761213882828151811061212157612121612ce1565b6020026020010151846123b390919063ffffffff16565b50600101612103565b60005b8151811015610ab35761217982828151811061216257612162612ce1565b6020026020010151846123c890919063ffffffff16565b50600101612144565b6060816000018054806020026020016040519081016040528092919081815260200182805480156115a557602002820191906000526020600020908154815260200190600101908083116115915750505050509050919050565b606081600001805480602002602001604051908101604052809291908181526020016000905b828210156122ae57838290600052602060002001805461222190612e00565b80601f016020809104026020016040519081016040528092919081815260200182805461224d90612e00565b801561229a5780601f1061226f5761010080835404028352916020019161229a565b820191906000526020600020905b81548152906001019060200180831161227d57829003601f168201915b505050505081526020019060010190612202565b505050509050919050565b806001600160a01b03163b6000036122ef57604051634c9c8ce360e01b81526001600160a01b0382166004820152602401610878565b600080516020612f4083398151915280546001600160a01b0319166001600160a01b0392909216919091179055565b6060600080846001600160a01b03168460405161233b9190612cf7565b600060405180830381855af49150503d8060008114612376576040519150601f19603f3d011682016040523d82523d6000602084013e61237b565b606091505b509150915061238b8583836123dd565b95945050505050565b34156111a25760405163b398979f60e01b815260040160405180910390fd5b6000610ed0836001600160a01b038416612439565b6000610ed0836001600160a01b038416612480565b6060826123f2576123ed82612573565b610ed0565b815115801561240957506001600160a01b0384163b155b1561243257604051639996b31560e01b81526001600160a01b0385166004820152602401610878565b5092915050565b6000818152600183016020526040812054611ebf5750815460018181018455600084815260208082209093018490558454848252828601909352604090209190915561116f565b600081815260018301602052604081205480156125695760006124a4600183612d9b565b85549091506000906124b890600190612d9b565b905080821461251d5760008660000182815481106124d8576124d8612ce1565b90600052602060002001549050808760000184815481106124fb576124fb612ce1565b6000918252602080832090910192909255918252600188019052604090208390555b855486908061252e5761252e612dae565b60019003818190600052602060002001600090559055856001016000868152602001908152602001600020600090556001935050505061116f565b600091505061116f565b8051156125835780518082602001fd5b60405163d6bda27560e01b815260040160405180910390fd5b5080546125a890612e00565b6000825580601f106125b8575050565b601f01602090049060005260206000209081019061118691905b808211156125e657600081556001016125d2565b5090565b6000806000604084860312156125ff57600080fd5b83356004811061260e57600080fd5b925060208401356001600160401b0381111561262957600080fd5b8401601f8101861361263a57600080fd5b80356001600160401b0381111561265057600080fd5b86602082840101111561266257600080fd5b939660209190910195509293505050565b6000806040838503121561268657600080fd5b50508035926020909101359150565b6000602082840312156126a757600080fd5b5035919050565b600081518084526020840193506020830160005b828110156126e05781518652602095860195909101906001016126c2565b5093949350505050565b6040815260006126fd60408301856126ae565b828103602084015280845180835260208301915060208601925060005b8181101561275657612740838551805182526020908101516001600160401b0316910152565b602093909301926040929092019160010161271a565b50909695505050505050565b80356001600160a01b038116811461277957600080fd5b919050565b60006020828403121561279057600080fd5b610ed082612762565b634e487b7160e01b600052604160045260246000fd5b604051601f8201601f191681016001600160401b03811182821017156127d7576127d7612799565b604052919050565b6000806001600160401b038411156127f9576127f9612799565b50601f8301601f191660200161280e816127af565b91505082815283838301111561282357600080fd5b828260208301376000602084830101529392505050565b6000806040838503121561284d57600080fd5b61285683612762565b915060208301356001600160401b0381111561287157600080fd5b8301601f8101851361288257600080fd5b612891858235602084016127df565b9150509250929050565b60006001600160401b038211156128b4576128b4612799565b5060051b60200190565b600082601f8301126128cf57600080fd5b81356128e26128dd8261289b565b6127af565b8082825260208201915060208360051b86010192508583111561290457600080fd5b602085015b838110156129285761291a81612762565b835260209283019201612909565b5095945050505050565b60006020828403121561294457600080fd5b81356001600160401b0381111561295a57600080fd5b612966848285016128be565b949350505050565b600082601f83011261297f57600080fd5b610ed0838335602085016127df565b6000602082840312156129a057600080fd5b81356001600160401b038111156129b657600080fd5b6129668482850161296e565b6000806000606084860312156129d757600080fd5b505081359360208301359350604090920135919050565b600081518084526020840193506020830160005b828110156126e05781516001600160a01b0316865260209586019590910190600101612a02565b602081526000610ed060208301846129ee565b600080600060408486031215612a5157600080fd5b8335925060208401356001600160401b03811115612a6e57600080fd5b8401601f81018613612a7f57600080fd5b80356001600160401b03811115612a9557600080fd5b8660208260051b840101111561266257600080fd5b60005b83811015612ac5578181015183820152602001612aad565b50506000910152565b60008151808452612ae6816020860160208601612aaa565b601f01601f19169290920160200192915050565b602081526000610ed06020830184612ace565b602081526000610ed060208301846126ae565b600080600060608486031215612b3557600080fd5b612b3e84612762565b9250612b4c60208501612762565b929592945050506040919091013590565b6000604082016040835280855180835260608501915060608160051b86010192506020870160005b82811015612bb657605f19878603018452612ba1858351612ace565b94506020938401939190910190600101612b85565b50505050828103602084015261238b81856129ee565b815181526020808301516001600160401b0316908201526040810161116f565b634e487b7160e01b600052602160045260246000fd5b600082601f830112612c1357600080fd5b8135612c216128dd8261289b565b8082825260208201915060208360051b860101925085831115612c4357600080fd5b602085015b838110156129285780356001600160401b03811115612c6657600080fd5b612c75886020838a010161296e565b84525060209283019201612c48565b60008060408385031215612c9757600080fd5b82356001600160401b03811115612cad57600080fd5b612cb985828601612c02565b92505060208301356001600160401b03811115612cd557600080fd5b612891858286016128be565b634e487b7160e01b600052603260045260246000fd5b60008251612d09818460208701612aaa565b9190910192915050565b600060208284031215612d2557600080fd5b81356001600160401b03811115612d3b57600080fd5b61296684828501612c02565b634e487b7160e01b600052601160045260246000fd5b8082018082111561116f5761116f612d47565b60006001600160401b0382166001600160401b038103612d9257612d92612d47565b60010192915050565b8181038181111561116f5761116f612d47565b634e487b7160e01b600052603160045260246000fd5b60006001600160401b03821680612ddd57612ddd612d47565b6000190192915050565b600060208284031215612df957600080fd5b5051919050565b600181811c90821680612e1457607f821691505b602082108103612e3457634e487b7160e01b600052602260045260246000fd5b50919050565b601f821115610ab357806000526020600020601f840160051c81016020851015612e615750805b601f840160051c820191505b81811015610a645760008155600101612e6d565b81516001600160401b03811115612e9a57612e9a612799565b612eae81612ea88454612e00565b84612e3a565b6020601f821160018114612ee25760008315612eca5750848201515b600019600385901b1c1916600184901b178455610a64565b600084815260208120601f198516915b82811015612f125787850151825560209485019460019092019101612ef2565b5084821015612f305786840151600019600387901b60f8161c191681555b50505050600190811b0190555056fe360894a13ba1a3210667c828492db98dca3e2076cc3735a920a3ca505d382bbc54985b7dba18117ef28d5d113b6eab9fb186b92b1987f5efdadbc365eb2a5cbaa2646970667358221220999d25cc7fa13be7ed22b913ebab9c52f97980b2db5129d808aa1cc1ef20b52864736f6c634300081c0033",
  "linkReferences": {},
  "deployedLinkReferences": {}
}