{
  "_format": "hh-sol-artifact-1",
  "contractName": "StateKeeper",
  "sourceName": "contracts/state/StateKeeper.sol",
  "abi": [
    {
      "inputs": [],
      "stateMutability": "nonpayable",
      "type": "constructor"
    },
    {
      "inputs": [
        {
          "internalType": "address",
          "name": "target",
          "type": "address"
        }
      ],
      "name": "AddressEmptyCode",
      "type": "error"
    },
    {
      "inputs": [
        {
          "internalType": "address",
          "name": "implementation",
          "type": "address"
        }
      ],
      "name": "ERC1967InvalidImplementation",
      "type": "error"
    },
    {
      "inputs": [],
      "name": "ERC1967NonPayable",
      "type": "error"
    },
    {
      "inputs": [],
      "name": "FailedCall",
      "type": "error"
    },
    {
      "inputs": [],
      "name": "InvalidInitialization",
      "type": "error"
    },
    {
      "inputs": [],
      "name": "InvalidOwner",
      "type": "error"
    },
    {
      "inputs": [],
      "name": "NotInitializing",
      "type": "error"
    },
    {
      "inputs": [],
      "name": "UUPSUnauthorizedCallContext",
      "type": "error"
    },
    {
      "inputs": [
        {
          "internalType": "bytes32",
          "name": "slot",
          "type": "bytes32"
        }
      ],
      "name": "UUPSUnsupportedProxiableUUID",
      "type": "error"
    },
    {
      "inputs": [
        {
          "internalType": "address",
          "name": "account",
          "type": "address"
        }
      ],
      "name": "UnauthorizedAccount",
      "type": "error"
    },
    {
      "anonymous": false,
      "inputs": [
        {
          "indexed": false,
          "internalType": "bytes32",
          "name": "passportKey",
          "type": "bytes32"
        },
        {
          "indexed": false,
          "internalType": "bytes32",
          "name": "identityKey",
          "type": "bytes32"
        }
      ],
      "name": "BondAdded",
      "type": "event"
    },
    {
      "anonymous": false,
      "inputs": [
        {
          "indexed": false,
          "internalType": "bytes32",
          "name": "passportKey",
          "type": "bytes32"
        },
        {
          "indexed": false,
          "internalType": "bytes32",
          "name": "identityKey",
          "type": "bytes32"
        }
      ],
      "name": "BondIdentityReissued",
      "type": "event"
    },
    {
      "anonymous": false,
      "inputs": [
        {
          "indexed": false,
          "internalType": "bytes32",
          "name": "passportKey",
          "type": "bytes32"
        },
        {
          "indexed": false,
          "internalType": "bytes32",
          "name": "identityKey",
          "type": "bytes32"
        }
      ],
      "name": "BondRevoked",
      "type": "event"
    },
    {
      "anonymous": false,
      "inputs": [
        {
          "indexed": false,
          "internalType": "bytes32",
          "name": "certificateKey",
          "type": "bytes32"
        },
        {
          "indexed": false,
          "internalType": "uint256",
          "name": "expirationTimestamp",
          "type": "uint256"
        }
      ],
      "name": "CertificateAdded",
      "type": "event"
    },
    {
      "anonymous": false,
      "inputs": [
        {
          "indexed": false,
          "internalType": "bytes32",
          "name": "certificateKey",
          "type": "bytes32"
        }
      ],
      "name": "CertificateRemoved",
      "type": "event"
    },
    {
      "anonymous": false,
      "inputs": [
        {
          "indexed": false,
          "internalType": "uint64",
          "name": "version",
          "type": "uint64"
        }
      ],
      "name": "Initialized",
      "type": "event"
    },
    {
      "anonymous": false,
      "inputs": [
        {
          "indexed": false,
          "internalType": "address[]",
          "name": "newOwners",
          "type": "address[]"
        }
      ],
      "name": "OwnersAdded",
      "type": "event"
    },
    {
      "anonymous": false,
      "inputs": [
        {
          "indexed": false,
          "internalType": "address[]",
          "name": "removedOwners",
          "type": "address[]"
        }
      ],
      "name": "OwnersRemoved",
      "type": "event"
    },
    {
      "anonymous": false,
      "inputs": [
        {
          "indexed": true,
          "internalType": "address",
          "name": "implementation",
          "type": "address"
        }
      ],
      "name": "Upgraded",
      "type": "event"
    },
    {
      "inputs": [],
      "name": "ICAO_PREFIX",
      "outputs": [
        {
          "internalType": "string",
          "name": "",
          "type": "string"
        }
      ],
      "stateMutability": "view",
      "type": "function"
    },
    {
      "inputs": [],
      "name": "REVOKED",
      "outputs": [
        {
          "internalType": "bytes32",
          "name": "",
          "type": "bytes32"
        }
      ],
      "stateMutability": "view",
      "type": "function"
    },
    {
      "inputs": [],
      "name": "UPGRADE_INTERFACE_VERSION",
      "outputs": [
        {
          "internalType": "string",
          "name": "",
          "type": "string"
        }
      ],
      "stateMutability": "view",
      "type": "function"
    },
    {
      "inputs": [],
      "name": "USED",
      "outputs": [
        {
          "internalType": "bytes32",
          "name": "",
          "type": "bytes32"
        }
      ],
      "stateMutability": "view",
      "type": "function"
    },
    {
      "inputs": [
        {
          "internalType": "address",
          "name": "initialOwner_",
          "type": "address"
        },
        {
          "internalType": "address",
          "name": "registrationSmt_",
          "type": "address"
        },
        {
          "internalType": "address",
          "name": "certificatesSmt_",
          "type": "address"
        },
        {
          "internalType": "bytes32",
          "name": "icaoMasterTreeMerkleRoot_",
          "type": "bytes32"
        }
      ],
      "name": "__StateKeeper_init",
      "outputs": [],
      "stateMutability": "nonpayable",
      "type": "function"
    },
    {
      "inputs": [],
      "name": "__StateKeeper_init_v2",
      "outputs": [],
      "stateMutability": "nonpayable",
      "type": "function"
    },
    {
      "inputs": [
        {
          "internalType": "bytes32",
          "name": "passportKey_",
          "type": "bytes32"
        },
        {
          "internalType": "bytes32",
          "name": "passportHash_",
          "type": "bytes32"
        },
        {
          "internalType": "bytes32",
          "name": "identityKey_",
          "type": "bytes32"
        },
        {
          "internalType": "uint256",
          "name": "dgCommit_",
          "type": "uint256"
        }
      ],
      "name": "addBond",
      "outputs": [],
      "stateMutability": "nonpayable",
      "type": "function"
    },
    {
      "inputs": [
        {
          "internalType": "bytes32",
          "name": "certificateKey_",
          "type": "bytes32"
        },
        {
          "internalType": "uint256",
          "name": "expirationTimestamp_",
          "type": "uint256"
        }
      ],
      "name": "addCertificate",
      "outputs": [],
      "stateMutability": "nonpayable",
      "type": "function"
    },
    {
      "inputs": [
        {
          "internalType": "address[]",
          "name": "newOwners_",
          "type": "address[]"
        }
      ],
      "name": "addOwners",
      "outputs": [],
      "stateMutability": "nonpayable",
      "type": "function"
    },
    {
      "inputs": [],
      "name": "certificatesSmt",
      "outputs": [
        {
          "internalType": "contract PoseidonSMT",
          "name": "",
          "type": "address"
        }
      ],
      "stateMutability": "view",
      "type": "function"
    },
    {
      "inputs": [
        {
          "internalType": "bytes32",
          "name": "newRoot_",
          "type": "bytes32"
        }
      ],
      "name": "changeICAOMasterTreeRoot",
      "outputs": [],
      "stateMutability": "nonpayable",
      "type": "function"
    },
    {
      "inputs": [
        {
          "internalType": "bytes32",
          "name": "certificateKey_",
          "type": "bytes32"
        }
      ],
      "name": "getCertificateInfo",
      "outputs": [
        {
          "components": [
            {
              "internalType": "uint64",
              "name": "expirationTimestamp",
              "type": "uint64"
            }
          ],
          "internalType": "struct StateKeeper.CertificateInfo",
          "name": "",
          "type": "tuple"
        }
      ],
      "stateMutability": "view",
      "type": "function"
    },
    {
      "inputs": [],
      "name": "getOwners",
      "outputs": [
        {
          "internalType": "address[]",
          "name": "",
          "type": "address[]"
        }
      ],
      "stateMutability": "view",
      "type": "function"
    },
    {
      "inputs": [
        {
          "internalType": "bytes32",
          "name": "passportKey_",
          "type": "bytes32"
        }
      ],
      "name": "getPassportInfo",
      "outputs": [
        {
          "components": [
            {
              "internalType": "bytes32",
              "name": "activeIdentity",
              "type": "bytes32"
            },
            {
              "internalType": "uint64",
              "name": "identityReissueCounter",
              "type": "uint64"
            }
          ],
          "internalType": "struct StateKeeper.PassportInfo",
          "name": "passportInfo_",
          "type": "tuple"
        },
        {
          "components": [
            {
              "internalType": "bytes32",
              "name": "activePassport",
              "type": "bytes32"
            },
            {
              "internalType": "uint64",
              "name": "issueTimestamp",
              "type": "uint64"
            }
          ],
          "internalType": "struct StateKeeper.IdentityInfo",
          "name": "identityInfo_",
          "type": "tuple"
        }
      ],
      "stateMutability": "view",
      "type": "function"
    },
    {
      "inputs": [
        {
          "internalType": "string",
          "name": "key_",
          "type": "string"
        }
      ],
      "name": "getRegistrationByKey",
      "outputs": [
        {
          "internalType": "address",
          "name": "",
          "type": "address"
        }
      ],
      "stateMutability": "view",
      "type": "function"
    },
    {
      "inputs": [],
      "name": "getRegistrations",
      "outputs": [
        {
          "internalType": "string[]",
          "name": "keys_",
          "type": "string[]"
        },
        {
          "internalType": "address[]",
          "name": "values_",
          "type": "address[]"
        }
      ],
      "stateMutability": "view",
      "type": "function"
    },
    {
      "inputs": [],
      "name": "icaoMasterTreeMerkleRoot",
      "outputs": [
        {
          "internalType": "bytes32",
          "name": "",
          "type": "bytes32"
        }
      ],
      "stateMutability": "view",
      "type": "function"
    },
    {
      "inputs": [],
      "name": "implementation",
      "outputs": [
        {
          "internalType": "address",
          "name": "",
          "type": "address"
        }
      ],
      "stateMutability": "view",
      "type": "function"
    },
    {
      "inputs": [
        {
          "internalType": "address",
          "name": "address_",
          "type": "address"
        }
      ],
      "name": "isOwner",
      "outputs": [
        {
          "internalType": "bool",
          "name": "",
          "type": "bool"
        }
      ],
      "stateMutability": "view",
      "type": "function"
    },
    {
      "inputs": [
        {
          "internalType": "address",
          "name": "registration_",
          "type": "address"
        }
      ],
      "name": "isRegistration",
      "outputs": [
        {
          "internalType": "bool",
          "name": "",
          "type": "bool"
        }
      ],
      "stateMutability": "view",
      "type": "function"
    },
    {
      "inputs": [],
      "name": "proxiableUUID",
      "outputs": [
        {
          "internalType": "bytes32",
          "name": "",
          "type": "bytes32"
        }
      ],
      "stateMutability": "view",
      "type": "function"
    },
    {
      "inputs": [],
      "name": "registrationSmt",
      "outputs": [
        {
          "internalType": "contract PoseidonSMT",
          "name": "",
          "type": "address"
        }
      ],
      "stateMutability": "view",
      "type": "function"
    },
    {
      "inputs": [
        {
          "internalType": "bytes32",
          "name": "passportKey_",
          "type": "bytes32"
        },
        {
          "internalType": "bytes32",
          "name": "identityKey_",
          "type": "bytes32"
        },
        {
          "internalType": "uint256",
          "name": "dgCommit_",
          "type": "uint256"
        }
      ],
      "name": "reissueBondIdentity",
      "outputs": [],
      "stateMutability": "nonpayable",
      "type": "function"
    },
    {
      "inputs": [
        {
          "internalType": "bytes32",
          "name": "certificateKey_",
          "type": "bytes32"
        }
      ],
      "name": "removeCertificate",
      "outputs": [],
      "stateMutability": "nonpayable",
      "type": "function"
    },
    {
      "inputs": [
        {
          "internalType": "address[]",
          "name": "oldOwners_",
          "type": "address[]"
        }
      ],
      "name": "removeOwners",
      "outputs": [],
      "stateMutability": "nonpayable",
      "type": "function"
    },
    {
      "inputs": [],
      "name": "renounceOwnership",
      "outputs": [],
      "stateMutability": "nonpayable",
      "type": "function"
    },
    {
      "inputs": [
        {
          "internalType": "bytes32",
          "name": "passportKey_",
          "type": "bytes32"
        },
        {
          "internalType": "bytes32",
          "name": "identityKey_",
          "type": "bytes32"
        }
      ],
      "name": "revokeBond",
      "outputs": [],
      "stateMutability": "nonpayable",
      "type": "function"
    },
    {
      "inputs": [
        {
          "internalType": "enum StateKeeper.MethodId",
          "name": "methodId_",
          "type": "uint8"
        },
        {
          "internalType": "bytes",
          "name": "data_",
          "type": "bytes"
        }
      ],
      "name": "updateRegistrationSet",
      "outputs": [],
      "stateMutability": "nonpayable",
      "type": "function"
    },
    {
      "inputs": [
        {
          "internalType": "address",
          "name": "newImplementation",
          "type": "address"
        },
        {
          "internalType": "bytes",
          "name": "data",
          "type": "bytes"
        }
      ],
      "name": "upgradeToAndCall",
      "outputs": [],
      "stateMutability": "payable",
      "type": "function"
    },
    {
      "inputs": [
        {
          "internalType": "bytes32",
          "name": "sigHash_",
          "type": "bytes32"
        }
      ],
      "name": "useSignature",
      "outputs": [],
      "stateMutability": "nonpayable",
      "type": "function"
    },
    {
      "inputs": [
        {
          "internalType": "bytes32",
          "name": "",
          "type": "bytes32"
        }
      ],
      "name": "usedSignatures",
      "outputs": [
        {
          "internalType": "bool",
          "name": "",
          "type": "bool"
        }
      ],
      "stateMutability": "view",
      "type": "function"
    }
  ],
  "bytecode": "0x60a06040523060805234801561001457600080fd5b5061001d610022565b6100d4565b7ff0c57e16840df040f15088dc2f81fe391c3923bec73e23a9662efc9c229c6a00805468010000000000000000900460ff16156100725760405163f92ee8a960e01b815260040160405180910390fd5b80546001600160401b03908116146100d15780546001600160401b0319166001600160401b0390811782556040519081527fc7f505b2f371ae2175ee4913f4499e1f2633a7b5936321eed1cdaeb6115181d29060200160405180910390a15b50565b608051612f626100fd60003960008181611b3a01528181611b630152611ca40152612f626000f3fe6080604052600436106101d85760003560e01c806369fab63011610102578063acbbc5cc11610095578063c152a33611610064578063c152a336146105e3578063d1e8076a14610617578063e6c292e81461063a578063f978fd611461065c57600080fd5b8063acbbc5cc14610552578063ad3cb1cc14610572578063b3861922146105a3578063b9ef93f6146105c357600080fd5b806393680589116100d157806393680589146104d0578063936dd712146104f0578063a0e67e2b14610510578063a9a5e3af1461053257600080fd5b806369fab6301461044d5780636c46a2c51461047b578063715018a61461049b57806372b9e087146104b057600080fd5b80632f54bf6e1161017a57806347caf5fb1161014957806347caf5fb146103fb5780634f1ef2861461041057806352d1902d146104235780635c60da1b1461043857600080fd5b80632f54bf6e1461030d57806337f7e1dd1461033d5780633b65c5dd146103a257806347c9e356146103db57600080fd5b80631f649377116101b65780631f6493771461023f578063260d91881461029157806328093985146102c95780632e6d0ed2146102ed57600080fd5b806304bb9fc1146101dd57806309322fce146101ff57806309aec60a1461021f575b600080fd5b3480156101e957600080fd5b506101fd6101f83660046125a2565b61068c565b005b34801561020b57600080fd5b506101fd61021a36600461262b565b61098d565b34801561022b57600080fd5b506101fd61023a366004612644565b610adc565b34801561024b57600080fd5b5061027b6040518060400160405280601081526020016f14985c9a5b5bc810d4d0d0481c9bdbdd60821b81525081565b60405161028891906126b6565b60405180910390f35b34801561029d57600080fd5b506003546102b1906001600160a01b031681565b6040516001600160a01b039091168152602001610288565b3480156102d557600080fd5b506102df60045481565b604051908152602001610288565b3480156102f957600080fd5b506101fd6103083660046126c9565b610d9a565b34801561031957600080fd5b5061032d610328366004612717565b6110ed565b6040519015158152602001610288565b34801561034957600080fd5b5061038a61035836600461262b565b6040805160208082018352600091829052928152600683528190208151928301909152546001600160401b0316815290565b60405190516001600160401b03168152602001610288565b3480156103ae57600080fd5b5061032d6103bd366004612717565b6001600160a01b03166000908152600c602052604090205460ff1690565b3480156103e757600080fd5b506101fd6103f6366004612644565b61110f565b34801561040757600080fd5b506101fd611244565b6101fd61041e3660046127d3565b611318565b34801561042f57600080fd5b506102df611337565b34801561044457600080fd5b506102b1611354565b34801561045957600080fd5b5061046d61046836600461262b565b61137a565b604051610288929190612834565b34801561048757600080fd5b506101fd610496366004612905565b61141b565b3480156104a757600080fd5b506101fd61142f565b3480156104bc57600080fd5b506102b16104cb366004612961565b61144a565b3480156104dc57600080fd5b506101fd6104eb366004612995565b61147b565b3480156104fc57600080fd5b506101fd61050b36600461262b565b61175c565b34801561051c57600080fd5b50610525611769565b6040516102889190612a06565b34801561053e57600080fd5b506101fd61054d366004612905565b611789565b34801561055e57600080fd5b506002546102b1906001600160a01b031681565b34801561057e57600080fd5b5061027b604051806040016040528060058152602001640352e302e360dc1b81525081565b3480156105af57600080fd5b506101fd6105be366004612a19565b61179a565b3480156105cf57600080fd5b506101fd6105de36600461262b565b6118ec565b3480156105ef57600080fd5b506102df7fd116c8141a03af4e4da955b106de0a9b8627570b09600e574e5e6410ca2028cd81565b34801561062357600080fd5b5061062c61196e565b604051610288929190612a64565b34801561064657600080fd5b506102df600080516020612eed83398151915281565b34801561066857600080fd5b5061032d61067736600461262b565b60056020526000908152604090205460ff1681565b610694611a4c565b60028360038111156106a8576106a8612ad3565b03610825576000806106bc83850185612b6b565b9150915060005b825181101561081d576106f98382815181106106e1576106e1612bc8565b60200260200101516009611a7490919063ffffffff16565b6107565760405162461bcd60e51b815260206004820152602360248201527f53746174654b65657065723a206475706c69636174652072656769737472617460448201526234b7b760e91b60648201526084015b60405180910390fd5b81818151811061076857610768612bc8565b6020026020010151600b84838151811061078457610784612bc8565b60200260200101516040516107999190612bde565b908152602001604051809103902060006101000a8154816001600160a01b0302191690836001600160a01b031602179055506001600c60008484815181106107e3576107e3612bc8565b6020908102919091018101516001600160a01b03168252810191909152604001600020805460ff19169115159190911790556001016106c3565b505050505050565b600383600381111561083957610839612ad3565b0361094057600061084c82840184612bfa565b905060005b815181101561093957600c6000600b84848151811061087257610872612bc8565b60200260200101516040516108879190612bde565b9081526040805160209281900383019020546001600160a01b031683529082019290925201600020805460ff191690558151600b908390839081106108ce576108ce612bc8565b60200260200101516040516108e39190612bde565b90815260405190819003602001902080546001600160a01b031916905581516109309083908390811061091857610918612bc8565b60200260200101516009611a8990919063ffffffff16565b50600101610851565b5050505050565b60405162461bcd60e51b815260206004820152601b60248201527f53746174654b65657065723a20496e76616c6964206d6574686f640000000000604482015260640161074d565b505050565b610995611a95565b600081815260066020526040902080546001600160401b0316158015906109c757508054426001600160401b03909116105b610a235760405162461bcd60e51b815260206004820152602760248201527f53746174654b65657065723a206365727469666963617465206973206e6f7420604482015266195e1c1a5c995960ca1b606482015260840161074d565b60008281526006602052604090819020805467ffffffffffffffff1916905560035490516395bc267360e01b8152600481018490526001600160a01b03909116906395bc267390602401600060405180830381600087803b158015610a8757600080fd5b505af1158015610a9b573d6000803e3d6000fd5b505050507f51d6e7e7475c981f5a20eebd7c32eedbad5c375ce0c04e69c585e1016884309182604051610ad091815260200190565b60405180910390a15050565b610ae4611a95565b6000828152600760209081526040808320848452600890925290912081548314610b5e5760405162461bcd60e51b815260206004820152602560248201527f53746174654b65657065723a2070617373706f727420616c72656164792072656044820152641d9bdad95960da1b606482015260840161074d565b80548414610bbc5760405162461bcd60e51b815260206004820152602560248201527f53746174654b65657065723a206964656e7469747920616c72656164792072656044820152641d9bdad95960da1b606482015260840161074d565b600080516020612eed83398151915280835581556040805180820182528581526020810185905290516314d2f97b60e11b815260009173__$fd835ae95726e2da80b3c026db35133873$__916329a5f2f691610c1a91600401612c2e565b602060405180830381865af4158015610c37573d6000803e3d6000fd5b505050506040513d601f19601f82011682018060405250810190610c5b9190612c5f565b60408051602081018252600080516020612eed83398151915281529051631caab9a760e01b815291925060009173__$72a6d4d9e3cd7f397ed7f071553719015a$__91631caab9a791610cb19190600401612c78565b602060405180830381865af4158015610cce573d6000803e3d6000fd5b505050506040513d601f19601f82011682018060405250810190610cf29190612c5f565b6002546040516309fabe1f60e11b815260048101859052602481018390529192506001600160a01b0316906313f57c3e90604401600060405180830381600087803b158015610d4057600080fd5b505af1158015610d54573d6000803e3d6000fd5b505060408051898152602081018990527f18b1ebf9bb79fcc8e5ab11ee140888c82f028d83dba90562b8afad91bbc15db0935001905060405180910390a1505050505050565b610da2611a95565b83610dab579192915b60008481526007602090815260408083208584526008909252909120815415610e275760405162461bcd60e51b815260206004820152602860248201527f53746174654b65657065723a2070617373706f727420616c726561647920726560448201526719da5cdd195c995960c21b606482015260840161074d565b805415610e465760405162461bcd60e51b815260040161074d90612ca0565b8515801590610e5457508415155b15610ef0576000858152600760205260409020805415610ecc5760405162461bcd60e51b815260206004820152602d60248201527f53746174654b65657065723a2070617373706f7274206861736820616c72656160448201526c191e481c9959da5cdd195c9959609a1b606482015260840161074d565b7fd116c8141a03af4e4da955b106de0a9b8627570b09600e574e5e6410ca2028cd90555b83825585815560018101805467ffffffffffffffff1916426001600160401b03161790556040805180820182528781526020810186905290516314d2f97b60e11b815260009173__$fd835ae95726e2da80b3c026db35133873$__916329a5f2f691610f5e91600401612c2e565b602060405180830381865af4158015610f7b573d6000803e3d6000fd5b505050506040513d601f19601f82011682018060405250810190610f9f9190612c5f565b6040805160608101825286815260018601546001600160401b03908116602083015242168183015290516304b98e1d60e31b815291925060009173__$e42d85122f6128c9a7dd8478ad2c48bccc$__916325cc70e8916110029190600401612ce8565b602060405180830381865af415801561101f573d6000803e3d6000fd5b505050506040513d601f19601f820116820180604052508101906110439190612c5f565b6002546040516368ef2c9560e11b815260048101859052602481018390529192506001600160a01b03169063d1de592a90604401600060405180830381600087803b15801561109157600080fd5b505af11580156110a5573d6000803e3d6000fd5b5050604080518b8152602081018a90527f87092beaddcf0a16fb9360208b92ce770205be7c83981e39e7c040f3365e1d06935001905060405180910390a15050505050505050565b6000600080516020612f0d8339815191526111088184611af4565b9392505050565b611117611a95565b42611126826309660180612d26565b1161117f5760405162461bcd60e51b815260206004820152602360248201527f53746174654b65657065723a20636572746966696361746520697320657870696044820152621c995960ea1b606482015260840161074d565b60008281526006602052604090819020805467ffffffffffffffff19166001600160401b03841617905560035490516368ef2c9560e11b815260048101849052602481018490526001600160a01b039091169063d1de592a90604401600060405180830381600087803b1580156111f557600080fd5b505af1158015611209573d6000803e3d6000fd5b505060408051858152602081018590527fdd806c7ed389b44cc5098f8ba58fce2b7ae0fd8f94a7362f5e52bf2f5f9cae969350019050610ad0565b7ff0c57e16840df040f15088dc2f81fe391c3923bec73e23a9662efc9c229c6a00805460029190600160401b900460ff168061128d575080546001600160401b03808416911610155b156112ab5760405163f92ee8a960e01b815260040160405180910390fd5b805468ffffffffffffffffff19166001600160401b03831617600160401b1781556112d4611b16565b805460ff60401b191681556040516001600160401b03831681527fc7f505b2f371ae2175ee4913f4499e1f2633a7b5936321eed1cdaeb6115181d290602001610ad0565b611320611b2f565b61132982611bd4565b6113338282611bdc565b5050565b6000611341611c99565b50600080516020612ecd83398151915290565b6000611375600080516020612ecd833981519152546001600160a01b031690565b905090565b60408051808201825260008082526020918201819052825180840184528181528083018290528482526007835290839020835180850190945280548085526001909101546001600160401b03169284019290925290600080516020612eed8339815191521461141657508051600090815260086020908152604091829020825180840190935280548352600101546001600160401b0316908201525b915091565b611423611a4c565b61142c81611ce2565b50565b611437611a4c565b61144861144333611d53565b611dae565b565b6000600b8260405161145c9190612bde565b908152604051908190036020019020546001600160a01b031692915050565b611483611a95565b600083815260076020908152604080832085845260089092529091208154600080516020612eed833981519152146115095760405162461bcd60e51b8152602060048201526024808201527f53746174654b65657065723a2070617373706f7274206973206e6f74207265766044820152631bdad95960e21b606482015260840161074d565b8054156115285760405162461bcd60e51b815260040161074d90612ca0565b838255600182018054600090611546906001600160401b0316612d39565b82546101009290920a6001600160401b0381810219909316918316021790915585825560018201805467ffffffffffffffff1916429092169190911790556040805180820182528681526020810186905290516314d2f97b60e11b815260009173__$fd835ae95726e2da80b3c026db35133873$__916329a5f2f6916115ce91600401612c2e565b602060405180830381865af41580156115eb573d6000803e3d6000fd5b505050506040513d601f19601f8201168201806040525081019061160f9190612c5f565b6040805160608101825286815260018601546001600160401b03908116602083015242168183015290516304b98e1d60e31b815291925060009173__$e42d85122f6128c9a7dd8478ad2c48bccc$__916325cc70e8916116729190600401612ce8565b602060405180830381865af415801561168f573d6000803e3d6000fd5b505050506040513d601f19601f820116820180604052508101906116b39190612c5f565b6002546040516368ef2c9560e11b815260048101859052602481018390529192506001600160a01b03169063d1de592a90604401600060405180830381600087803b15801561170157600080fd5b505af1158015611715573d6000803e3d6000fd5b5050604080518a8152602081018a90527fb9c4f6c9c5e8ff08f33a92d0bac680dd9b3e8e738f47e5e85022bccef790c9d7935001905060405180910390a150505050505050565b611764611a4c565b600455565b6060600080516020612f0d83398151915261178381611df6565b91505090565b611791611a4c565b61142c81611dae565b7ff0c57e16840df040f15088dc2f81fe391c3923bec73e23a9662efc9c229c6a008054600160401b810460ff1615906001600160401b03166000811580156117df5750825b90506000826001600160401b031660011480156117fb5750303b155b905081158015611809575080155b156118275760405163f92ee8a960e01b815260040160405180910390fd5b845467ffffffffffffffff19166001178555831561185157845460ff60401b1916600160401b1785555b611859611b16565b600280546001600160a01b03808b166001600160a01b031992831617909255600380548a84169216919091179055600487905561189b90610496908b16611d53565b83156118e157845460ff60401b19168555604051600181527fc7f505b2f371ae2175ee4913f4499e1f2633a7b5936321eed1cdaeb6115181d29060200160405180910390a15b505050505050505050565b6118f4611a95565b60008181526005602052604090205460ff16156119535760405162461bcd60e51b815260206004820152601b60248201527f53746174654b65657065723a207369676e617475726520757365640000000000604482015260640161074d565b6000908152600560205260409020805460ff19166001179055565b60608061197b6009611e03565b915081516001600160401b0381111561199657611996612732565b6040519080825280602002602001820160405280156119bf578160200160208202803683370190505b50905060005b8251811015611a4757600b8382815181106119e2576119e2612bc8565b60200260200101516040516119f79190612bde565b9081526040519081900360200190205482516001600160a01b0390911690839083908110611a2757611a27612bc8565b6001600160a01b03909216602092830291909101909101526001016119c5565b509091565b611a55336110ed565b611448576040516332b2baa360e01b815233600482015260240161074d565b6000611a808383611e10565b90505b92915050565b6000611a808383611e7d565b336000908152600c602052604090205460ff166114485760405162461bcd60e51b815260206004820152601f60248201527f53746174654b65657065723a206e6f74206120726567697374726174696f6e00604482015260640161074d565b6001600160a01b03811660009081526001830160205260408120541515611a80565b611b1e612017565b611448611b2a33611d53565b611ce2565b306001600160a01b037f0000000000000000000000000000000000000000000000000000000000000000161480611bb657507f00000000000000000000000000000000000000000000000000000000000000006001600160a01b0316611baa600080516020612ecd833981519152546001600160a01b031690565b6001600160a01b031614155b156114485760405163703e46dd60e11b815260040160405180910390fd5b61142c611a4c565b816001600160a01b03166352d1902d6040518163ffffffff1660e01b8152600401602060405180830381865afa925050508015611c36575060408051601f3d908101601f19168201909252611c3391810190612c5f565b60015b611c5e57604051634c9c8ce360e01b81526001600160a01b038316600482015260240161074d565b600080516020612ecd8339815191528114611c8f57604051632a87526960e21b81526004810182905260240161074d565b6109888383612060565b306001600160a01b037f000000000000000000000000000000000000000000000000000000000000000016146114485760405163703e46dd60e11b815260040160405180910390fd5b600080516020612f0d833981519152611cfb81836120b6565b611d06816000611af4565b15611d24576040516349e27cff60e01b815260040160405180910390fd5b7f5fd1e185ef572e7f662fcc63b7c9e778b996190372868af5fe137132c811398e82604051610ad09190612a06565b604080516001808252818301909252606091602080830190803683370190505090508181600081518110611d8957611d89612bc8565b60200260200101906001600160a01b031690816001600160a01b031681525050919050565b600080516020612f0d833981519152611dc781836120f7565b7f0bbb8c3531454b5141cebfe14eba43275a099c31e3357a4653412a08b05ce0cc82604051610ad09190612a06565b6060600061110883612138565b6060600061110883612194565b80516020808301919091206000908152600184019091526040812054611e7557825460018101845560008481526020902001611e4c8382612de5565b505081548151602080840191909120600090815260018086019092526040902091909155611a83565b506000611a83565b80516020808301919091206000818152600185019092526040822054801561200c576000611eac600183612ea3565b8654909150600090611ec090600190612ea3565b9050818114611fbe576000876000018281548110611ee057611ee0612bc8565b906000526020600020018054611ef590612d64565b80601f0160208091040260200160405190810160405280929190818152602001828054611f2190612d64565b8015611f6e5780601f10611f4357610100808354040283529160200191611f6e565b820191906000526020600020905b815481529060010190602001808311611f5157829003601f168201915b5050505050905080886000018481548110611f8b57611f8b612bc8565b906000526020600020019081611fa19190612de5565b508051602091820120600090815260018901909152604090208390555b8654879080611fcf57611fcf612eb6565b600190038181906000526020600020016000611feb9190612554565b90555050506000908152600180850160205260408220919091559050611a83565b600092505050611a83565b7ff0c57e16840df040f15088dc2f81fe391c3923bec73e23a9662efc9c229c6a0054600160401b900460ff1661144857604051631afcd79f60e31b815260040160405180910390fd5b61206982612271565b6040516001600160a01b038316907fbc7cd75a20ee27fd9adebab32041f755214dbc6bffa90cc0225b39da2e5c2d3b90600090a28051156120ae5761098882826122d6565b61133361234c565b60005b8151811015610988576120ee8282815181106120d7576120d7612bc8565b60200260200101518461236b90919063ffffffff16565b506001016120b9565b60005b81518110156109885761212f82828151811061211857612118612bc8565b60200260200101518461238090919063ffffffff16565b506001016120fa565b60608160000180548060200260200160405190810160405280929190818152602001828054801561218857602002820191906000526020600020905b815481526020019060010190808311612174575b50505050509050919050565b606081600001805480602002602001604051908101604052809291908181526020016000905b828210156122665783829060005260206000200180546121d990612d64565b80601f016020809104026020016040519081016040528092919081815260200182805461220590612d64565b80156122525780601f1061222757610100808354040283529160200191612252565b820191906000526020600020905b81548152906001019060200180831161223557829003601f168201915b5050505050815260200190600101906121ba565b505050509050919050565b806001600160a01b03163b6000036122a757604051634c9c8ce360e01b81526001600160a01b038216600482015260240161074d565b600080516020612ecd83398151915280546001600160a01b0319166001600160a01b0392909216919091179055565b6060600080846001600160a01b0316846040516122f39190612bde565b600060405180830381855af49150503d806000811461232e576040519150601f19603f3d011682016040523d82523d6000602084013e612333565b606091505b5091509150612343858383612395565b95945050505050565b34156114485760405163b398979f60e01b815260040160405180910390fd5b6000611a80836001600160a01b0384166123f1565b6000611a80836001600160a01b038416612438565b6060826123aa576123a58261252b565b611108565b81511580156123c157506001600160a01b0384163b155b156123ea57604051639996b31560e01b81526001600160a01b038516600482015260240161074d565b5092915050565b6000818152600183016020526040812054611e7557508154600181810184556000848152602080822090930184905584548482528286019093526040902091909155611a83565b6000818152600183016020526040812054801561252157600061245c600183612ea3565b855490915060009061247090600190612ea3565b90508082146124d557600086600001828154811061249057612490612bc8565b90600052602060002001549050808760000184815481106124b3576124b3612bc8565b6000918252602080832090910192909255918252600188019052604090208390555b85548690806124e6576124e6612eb6565b600190038181906000526020600020016000905590558560010160008681526020019081526020016000206000905560019350505050611a83565b6000915050611a83565b80511561253b5780518082602001fd5b60405163d6bda27560e01b815260040160405180910390fd5b50805461256090612d64565b6000825580601f10612570575050565b601f01602090049060005260206000209081019061142c91905b8082111561259e576000815560010161258a565b5090565b6000806000604084860312156125b757600080fd5b8335600481106125c657600080fd5b925060208401356001600160401b038111156125e157600080fd5b8401601f810186136125f257600080fd5b80356001600160401b0381111561260857600080fd5b86602082840101111561261a57600080fd5b939660209190910195509293505050565b60006020828403121561263d57600080fd5b5035919050565b6000806040838503121561265757600080fd5b50508035926020909101359150565b60005b83811015612681578181015183820152602001612669565b50506000910152565b600081518084526126a2816020860160208601612666565b601f01601f19169290920160200192915050565b602081526000611a80602083018461268a565b600080600080608085870312156126df57600080fd5b5050823594602084013594506040840135936060013592509050565b80356001600160a01b038116811461271257600080fd5b919050565b60006020828403121561272957600080fd5b611a80826126fb565b634e487b7160e01b600052604160045260246000fd5b604051601f8201601f191681016001600160401b038111828210171561277057612770612732565b604052919050565b6000806001600160401b0384111561279257612792612732565b50601f8301601f19166020016127a781612748565b9150508281528383830111156127bc57600080fd5b828260208301376000602084830101529392505050565b600080604083850312156127e657600080fd5b6127ef836126fb565b915060208301356001600160401b0381111561280a57600080fd5b8301601f8101851361281b57600080fd5b61282a85823560208401612778565b9150509250929050565b825181526020808401516001600160401b031690820152608081018251604083015260208301516001600160401b03166060830152611108565b60006001600160401b0382111561288757612887612732565b5060051b60200190565b600082601f8301126128a257600080fd5b81356128b56128b08261286e565b612748565b8082825260208201915060208360051b8601019250858311156128d757600080fd5b602085015b838110156128fb576128ed816126fb565b8352602092830192016128dc565b5095945050505050565b60006020828403121561291757600080fd5b81356001600160401b0381111561292d57600080fd5b61293984828501612891565b949350505050565b600082601f83011261295257600080fd5b611a8083833560208501612778565b60006020828403121561297357600080fd5b81356001600160401b0381111561298957600080fd5b61293984828501612941565b6000806000606084860312156129aa57600080fd5b505081359360208301359350604090920135919050565b600081518084526020840193506020830160005b828110156129fc5781516001600160a01b03168652602095860195909101906001016129d5565b5093949350505050565b602081526000611a8060208301846129c1565b60008060008060808587031215612a2f57600080fd5b612a38856126fb565b9350612a46602086016126fb565b9250612a54604086016126fb565b9396929550929360600135925050565b6000604082016040835280855180835260608501915060608160051b86010192506020870160005b82811015612abd57605f19878603018452612aa885835161268a565b94506020938401939190910190600101612a8c565b50505050828103602084015261234381856129c1565b634e487b7160e01b600052602160045260246000fd5b600082601f830112612afa57600080fd5b8135612b086128b08261286e565b8082825260208201915060208360051b860101925085831115612b2a57600080fd5b602085015b838110156128fb5780356001600160401b03811115612b4d57600080fd5b612b5c886020838a0101612941565b84525060209283019201612b2f565b60008060408385031215612b7e57600080fd5b82356001600160401b03811115612b9457600080fd5b612ba085828601612ae9565b92505060208301356001600160401b03811115612bbc57600080fd5b61282a85828601612891565b634e487b7160e01b600052603260045260246000fd5b60008251612bf0818460208701612666565b9190910192915050565b600060208284031215612c0c57600080fd5b81356001600160401b03811115612c2257600080fd5b61293984828501612ae9565b60408101818360005b6002811015612c56578151835260209283019290910190600101612c37565b50505092915050565b600060208284031215612c7157600080fd5b5051919050565b60208101818360005b6001811015612c56578151835260209283019290910190600101612c81565b60208082526028908201527f53746174654b65657065723a206964656e7469747920616c726561647920726560408201526719da5cdd195c995960c21b606082015260800190565b60608101818360005b6003811015612c56578151835260209283019290910190600101612cf1565b634e487b7160e01b600052601160045260246000fd5b80820180821115611a8357611a83612d10565b60006001600160401b0382166001600160401b038103612d5b57612d5b612d10565b60010192915050565b600181811c90821680612d7857607f821691505b602082108103612d9857634e487b7160e01b600052602260045260246000fd5b50919050565b601f82111561098857806000526020600020601f840160051c81016020851015612dc55750805b601f840160051c820191505b818110156109395760008155600101612dd1565b81516001600160401b03811115612dfe57612dfe612732565b612e1281612e0c8454612d64565b84612d9e565b6020601f821160018114612e465760008315612e2e5750848201515b600019600385901b1c1916600184901b178455610939565b600084815260208120601f198516915b82811015612e765787850151825560209485019460019092019101612e56565b5084821015612e945786840151600019600387901b60f8161c191681555b50505050600190811b01905550565b81810381811115611a8357611a83612d10565b634e487b7160e01b600052603160045260246000fdfe360894a13ba1a3210667c828492db98dca3e2076cc3735a920a3ca505d382bbcf762965bdb8dff81b8c1397e6074e78216cd3eefe37835af6bd83d5348ea57f354985b7dba18117ef28d5d113b6eab9fb186b92b1987f5efdadbc365eb2a5cbaa2646970667358221220b3663f0e55d3dc19d4e2253bf7af6c1a1976092b2fd421563905fd6ceb79e90164736f6c634300081c0033",
  "linkReferences": {
    "contracts/libraries/Poseidon.sol": {
      "PoseidonUnit1L": [
        {
          "length": 20,
          "start": 3463
        }
      ],
      "PoseidonUnit2L": [
        {
          "length": 20,
          "start": 3313
        },
        {
          "length": 20,
          "start": 4149
        },
        {
          "length": 20,
          "start": 5797
        }
      ],
      "PoseidonUnit3L": [
        {
          "length": 20,
          "start": 4312
        },
        {
          "length": 20,
          "start": 5960
        }
      ]
    }
  },
  "deployedLinkReferences": {
    "contracts/libraries/Poseidon.sol": {
      "PoseidonUnit1L": [
        {
          "length": 20,
          "start": 3210
        }
      ],
      "PoseidonUnit2L": [
        {
          "length": 20,
          "start": 3060
        },
        {
          "length": 20,
          "start": 3896
        },
        {
          "length": 20,
          "start": 5544
        }
      ],
      "PoseidonUnit3L": [
        {
          "length": 20,
          "start": 4059
        },
        {
          "length": 20,
          "start": 5707
        }
      ]
    }
  }
}