{
  "_format": "hh-sol-artifact-1",
  "contractName": "StateKeeper",
  "sourceName": "contracts/state/StateKeeper.sol",
  "abi": [
    {
      "inputs": [],
      "stateMutability": "nonpayable",
      "type": "constructor"
    },
    {
      "inputs": [
        {
          "internalType": "address",
          "name": "target",
          "type": "address"
        }
      ],
      "name": "AddressEmptyCode",
      "type": "error"
    },
    {
      "inputs": [
        {
          "internalType": "address",
          "name": "implementation",
          "type": "address"
        }
      ],
      "name": "ERC1967InvalidImplementation",
      "type": "error"
    },
    {
      "inputs": [],
      "name": "ERC1967NonPayable",
      "type": "error"
    },
    {
      "inputs": [],
      "name": "FailedCall",
      "type": "error"
    },
    {
      "inputs": [],
      "name": "InvalidInitialization",
      "type": "error"
    },
    {
      "inputs": [],
      "name": "InvalidOwner",
      "type": "error"
    },
    {
      "inputs": [],
      "name": "NotInitializing",
      "type": "error"
    },
    {
      "inputs": [],
      "name": "UUPSUnauthorizedCallContext",
      "type": "error"
    },
    {
      "inputs": [
        {
          "internalType": "bytes32",
          "name": "slot",
          "type": "bytes32"
        }
      ],
      "name": "UUPSUnsupportedProxiableUUID",
      "type": "error"
    },
    {
      "inputs": [
        {
          "internalType": "address",
          "name": "account",
          "type": "address"
        }
      ],
      "name": "UnauthorizedAccount",
      "type": "error"
    },
    {
      "anonymous": false,
      "inputs": [
        {
          "indexed": false,
          "internalType": "bytes32",
          "name": "passportKey",
          "type": "bytes32"
        },
        {
          "indexed": false,
          "internalType": "bytes32",
          "name": "sessionKey",
          "type": "bytes32"
        }
      ],
      "name": "BondAdded",
      "type": "event"
    },
    {
      "anonymous": false,
      "inputs": [
        {
          "indexed": false,
          "internalType": "bytes32",
          "name": "passportKey",
          "type": "bytes32"
        },
        {
          "indexed": false,
          "internalType": "bytes32",
          "name": "sessionKey",
          "type": "bytes32"
        }
      ],
      "name": "BondRevoked",
      "type": "event"
    },
    {
      "anonymous": false,
      "inputs": [
        {
          "indexed": false,
          "internalType": "bytes32",
          "name": "passportKey",
          "type": "bytes32"
        },
        {
          "indexed": false,
          "internalType": "bytes32",
          "name": "sessionKey",
          "type": "bytes32"
        }
      ],
      "name": "BondSessionReissued",
      "type": "event"
    },
    {
      "anonymous": false,
      "inputs": [
        {
          "indexed": false,
          "internalType": "bytes32",
          "name": "certificateKey",
          "type": "bytes32"
        },
        {
          "indexed": false,
          "internalType": "uint256",
          "name": "expirationTimestamp",
          "type": "uint256"
        }
      ],
      "name": "CertificateAdded",
      "type": "event"
    },
    {
      "anonymous": false,
      "inputs": [
        {
          "indexed": false,
          "internalType": "bytes32",
          "name": "certificateKey",
          "type": "bytes32"
        }
      ],
      "name": "CertificateRemoved",
      "type": "event"
    },
    {
      "anonymous": false,
      "inputs": [
        {
          "indexed": false,
          "internalType": "uint64",
          "name": "version",
          "type": "uint64"
        }
      ],
      "name": "Initialized",
      "type": "event"
    },
    {
      "anonymous": false,
      "inputs": [
        {
          "indexed": false,
          "internalType": "address[]",
          "name": "newOwners",
          "type": "address[]"
        }
      ],
      "name": "OwnersAdded",
      "type": "event"
    },
    {
      "anonymous": false,
      "inputs": [
        {
          "indexed": false,
          "internalType": "address[]",
          "name": "removedOwners",
          "type": "address[]"
        }
      ],
      "name": "OwnersRemoved",
      "type": "event"
    },
    {
      "anonymous": false,
      "inputs": [
        {
          "indexed": true,
          "internalType": "address",
          "name": "implementation",
          "type": "address"
        }
      ],
      "name": "Upgraded",
      "type": "event"
    },
    {
      "inputs": [],
      "name": "REVOKED",
      "outputs": [
        {
          "internalType": "bytes32",
          "name": "",
          "type": "bytes32"
        }
      ],
      "stateMutability": "view",
      "type": "function"
    },
    {
      "inputs": [],
      "name": "UPGRADE_INTERFACE_VERSION",
      "outputs": [
        {
          "internalType": "string",
          "name": "",
          "type": "string"
        }
      ],
      "stateMutability": "view",
      "type": "function"
    },
    {
      "inputs": [],
      "name": "USED",
      "outputs": [
        {
          "internalType": "bytes32",
          "name": "",
          "type": "bytes32"
        }
      ],
      "stateMutability": "view",
      "type": "function"
    },
    {
      "inputs": [
        {
          "internalType": "address",
          "name": "initialOwner_",
          "type": "address"
        },
        {
          "internalType": "address",
          "name": "certificatesSmt_",
          "type": "address"
        },
        {
          "internalType": "bytes32",
          "name": "icaoMasterTreeMerkleRoot_",
          "type": "bytes32"
        }
      ],
      "name": "__StateKeeper_init",
      "outputs": [],
      "stateMutability": "nonpayable",
      "type": "function"
    },
    {
      "inputs": [],
      "name": "__StateKeeper_init_v2",
      "outputs": [],
      "stateMutability": "nonpayable",
      "type": "function"
    },
    {
      "inputs": [
        {
          "internalType": "bytes32",
          "name": "passportKey_",
          "type": "bytes32"
        },
        {
          "internalType": "bytes32",
          "name": "passportHash_",
          "type": "bytes32"
        },
        {
          "internalType": "bytes32",
          "name": "sessionKey_",
          "type": "bytes32"
        }
      ],
      "name": "addBond",
      "outputs": [],
      "stateMutability": "nonpayable",
      "type": "function"
    },
    {
      "inputs": [
        {
          "internalType": "bytes32",
          "name": "certificateKey_",
          "type": "bytes32"
        },
        {
          "internalType": "uint256",
          "name": "expirationTimestamp_",
          "type": "uint256"
        }
      ],
      "name": "addCertificate",
      "outputs": [],
      "stateMutability": "nonpayable",
      "type": "function"
    },
    {
      "inputs": [
        {
          "internalType": "address[]",
          "name": "newOwners_",
          "type": "address[]"
        }
      ],
      "name": "addOwners",
      "outputs": [],
      "stateMutability": "nonpayable",
      "type": "function"
    },
    {
      "inputs": [],
      "name": "certificatesSmt",
      "outputs": [
        {
          "internalType": "contract PoseidonSMT",
          "name": "",
          "type": "address"
        }
      ],
      "stateMutability": "view",
      "type": "function"
    },
    {
      "inputs": [
        {
          "internalType": "bytes32",
          "name": "newRoot_",
          "type": "bytes32"
        }
      ],
      "name": "changeICAOMasterTreeRoot",
      "outputs": [],
      "stateMutability": "nonpayable",
      "type": "function"
    },
    {
      "inputs": [
        {
          "internalType": "bytes32",
          "name": "certificateKey_",
          "type": "bytes32"
        }
      ],
      "name": "getCertificateInfo",
      "outputs": [
        {
          "components": [
            {
              "internalType": "uint64",
              "name": "expirationTimestamp",
              "type": "uint64"
            }
          ],
          "internalType": "struct StateKeeper.CertificateInfo",
          "name": "",
          "type": "tuple"
        }
      ],
      "stateMutability": "view",
      "type": "function"
    },
    {
      "inputs": [],
      "name": "getOwners",
      "outputs": [
        {
          "internalType": "address[]",
          "name": "",
          "type": "address[]"
        }
      ],
      "stateMutability": "view",
      "type": "function"
    },
    {
      "inputs": [
        {
          "internalType": "bytes32",
          "name": "passportKey_",
          "type": "bytes32"
        }
      ],
      "name": "getPassportInfo",
      "outputs": [
        {
          "components": [
            {
              "internalType": "uint64",
              "name": "activeSessionCount",
              "type": "uint64"
            }
          ],
          "internalType": "struct StateKeeper.PassportInfo",
          "name": "passportInfo_",
          "type": "tuple"
        }
      ],
      "stateMutability": "view",
      "type": "function"
    },
    {
      "inputs": [
        {
          "internalType": "bytes32",
          "name": "passportKey_",
          "type": "bytes32"
        }
      ],
      "name": "getPassportSessions",
      "outputs": [
        {
          "internalType": "bytes32[]",
          "name": "sessionKeys_",
          "type": "bytes32[]"
        }
      ],
      "stateMutability": "view",
      "type": "function"
    },
    {
      "inputs": [
        {
          "internalType": "bytes32",
          "name": "passportKey_",
          "type": "bytes32"
        }
      ],
      "name": "getPassportSessionsInfo",
      "outputs": [
        {
          "internalType": "bytes32[]",
          "name": "sessionKeys_",
          "type": "bytes32[]"
        },
        {
          "components": [
            {
              "internalType": "bytes32",
              "name": "activePassport",
              "type": "bytes32"
            },
            {
              "internalType": "uint64",
              "name": "issueTimestamp",
              "type": "uint64"
            }
          ],
          "internalType": "struct StateKeeper.SessionInfo[]",
          "name": "sessionInfos_",
          "type": "tuple[]"
        }
      ],
      "stateMutability": "view",
      "type": "function"
    },
    {
      "inputs": [
        {
          "internalType": "string",
          "name": "key_",
          "type": "string"
        }
      ],
      "name": "getRegistrationByKey",
      "outputs": [
        {
          "internalType": "address",
          "name": "",
          "type": "address"
        }
      ],
      "stateMutability": "view",
      "type": "function"
    },
    {
      "inputs": [],
      "name": "getRegistrations",
      "outputs": [
        {
          "internalType": "string[]",
          "name": "keys_",
          "type": "string[]"
        },
        {
          "internalType": "address[]",
          "name": "values_",
          "type": "address[]"
        }
      ],
      "stateMutability": "view",
      "type": "function"
    },
    {
      "inputs": [
        {
          "internalType": "bytes32",
          "name": "sessionKey_",
          "type": "bytes32"
        }
      ],
      "name": "getSessionInfo",
      "outputs": [
        {
          "components": [
            {
              "internalType": "bytes32",
              "name": "activePassport",
              "type": "bytes32"
            },
            {
              "internalType": "uint64",
              "name": "issueTimestamp",
              "type": "uint64"
            }
          ],
          "internalType": "struct StateKeeper.SessionInfo",
          "name": "sessionInfo_",
          "type": "tuple"
        }
      ],
      "stateMutability": "view",
      "type": "function"
    },
    {
      "inputs": [],
      "name": "icaoMasterTreeMerkleRoot",
      "outputs": [
        {
          "internalType": "bytes32",
          "name": "",
          "type": "bytes32"
        }
      ],
      "stateMutability": "view",
      "type": "function"
    },
    {
      "inputs": [],
      "name": "implementation",
      "outputs": [
        {
          "internalType": "address",
          "name": "",
          "type": "address"
        }
      ],
      "stateMutability": "view",
      "type": "function"
    },
    {
      "inputs": [
        {
          "internalType": "address",
          "name": "address_",
          "type": "address"
        }
      ],
      "name": "isOwner",
      "outputs": [
        {
          "internalType": "bool",
          "name": "",
          "type": "bool"
        }
      ],
      "stateMutability": "view",
      "type": "function"
    },
    {
      "inputs": [
        {
          "internalType": "bytes32",
          "name": "passportKey_",
          "type": "bytes32"
        }
      ],
      "name": "isPassportFullyRevoked",
      "outputs": [
        {
          "internalType": "bool",
          "name": "isFullyRevoked_",
          "type": "bool"
        }
      ],
      "stateMutability": "view",
      "type": "function"
    },
    {
      "inputs": [
        {
          "internalType": "address",
          "name": "registration_",
          "type": "address"
        }
      ],
      "name": "isRegistration",
      "outputs": [
        {
          "internalType": "bool",
          "name": "",
          "type": "bool"
        }
      ],
      "stateMutability": "view",
      "type": "function"
    },
    {
      "inputs": [],
      "name": "proxiableUUID",
      "outputs": [
        {
          "internalType": "bytes32",
          "name": "",
          "type": "bytes32"
        }
      ],
      "stateMutability": "view",
      "type": "function"
    },
    {
      "inputs": [
        {
          "internalType": "bytes32",
          "name": "certificateKey_",
          "type": "bytes32"
        }
      ],
      "name": "removeCertificate",
      "outputs": [],
      "stateMutability": "nonpayable",
      "type": "function"
    },
    {
      "inputs": [
        {
          "internalType": "address[]",
          "name": "oldOwners_",
          "type": "address[]"
        }
      ],
      "name": "removeOwners",
      "outputs": [],
      "stateMutability": "nonpayable",
      "type": "function"
    },
    {
      "inputs": [],
      "name": "renounceOwnership",
      "outputs": [],
      "stateMutability": "nonpayable",
      "type": "function"
    },
    {
      "inputs": [
        {
          "internalType": "bytes32",
          "name": "passportKey_",
          "type": "bytes32"
        }
      ],
      "name": "revokeAllBonds",
      "outputs": [],
      "stateMutability": "nonpayable",
      "type": "function"
    },
    {
      "inputs": [
        {
          "internalType": "bytes32",
          "name": "passportKey_",
          "type": "bytes32"
        },
        {
          "internalType": "bytes32",
          "name": "sessionKey_",
          "type": "bytes32"
        }
      ],
      "name": "revokeBond",
      "outputs": [],
      "stateMutability": "nonpayable",
      "type": "function"
    },
    {
      "inputs": [
        {
          "internalType": "bytes32",
          "name": "passportKey_",
          "type": "bytes32"
        },
        {
          "internalType": "bytes32[]",
          "name": "sessionKeys_",
          "type": "bytes32[]"
        }
      ],
      "name": "revokeBonds",
      "outputs": [],
      "stateMutability": "nonpayable",
      "type": "function"
    },
    {
      "inputs": [
        {
          "internalType": "bytes32",
          "name": "passportKey_",
          "type": "bytes32"
        },
        {
          "internalType": "bytes32",
          "name": "keepSessionKey_",
          "type": "bytes32"
        }
      ],
      "name": "revokeBondsExcept",
      "outputs": [],
      "stateMutability": "nonpayable",
      "type": "function"
    },
    {
      "inputs": [
        {
          "internalType": "enum StateKeeper.MethodId",
          "name": "methodId_",
          "type": "uint8"
        },
        {
          "internalType": "bytes",
          "name": "data_",
          "type": "bytes"
        }
      ],
      "name": "updateRegistrationSet",
      "outputs": [],
      "stateMutability": "nonpayable",
      "type": "function"
    },
    {
      "inputs": [
        {
          "internalType": "address",
          "name": "newImplementation",
          "type": "address"
        },
        {
          "internalType": "bytes",
          "name": "data",
          "type": "bytes"
        }
      ],
      "name": "upgradeToAndCall",
      "outputs": [],
      "stateMutability": "payable",
      "type": "function"
    },
    {
      "inputs": [
        {
          "internalType": "bytes32",
          "name": "sigHash_",
          "type": "bytes32"
        }
      ],
      "name": "useSignature",
      "outputs": [],
      "stateMutability": "nonpayable",
      "type": "function"
    },
    {
      "inputs": [
        {
          "internalType": "bytes32",
          "name": "",
          "type": "bytes32"
        }
      ],
      "name": "usedSignatures",
      "outputs": [
        {
          "internalType": "bool",
          "name": "",
          "type": "bool"
        }
      ],
      "stateMutability": "view",
      "type": "function"
    }
  ],
  "bytecode": "0x60a060405230608052348015610013575f5ffd5b5061001c610021565b6100d3565b7ff0c57e16840df040f15088dc2f81fe391c3923bec73e23a9662efc9c229c6a00805468010000000000000000900460ff16156100715760405163f92ee8a960e01b815260040160405180910390fd5b80546001600160401b03908116146100d05780546001600160401b0319166001600160401b0390811782556040519081527fc7f505b2f371ae2175ee4913f4499e1f2633a7b5936321eed1cdaeb6115181d29060200160405180910390a15b50565b608051612d7e6100f95f395f8181611a0e01528181611a370152611b760152612d7e5ff3fe6080604052600436106101fc575f3560e01c80636c46a2c511610113578063b9ef93f61161009d578063d1e8076a1161006d578063d1e8076a14610677578063da45b38314610699578063e6c292e814610705578063f3b4a54314610738578063f978fd6114610757575f5ffd5b8063b9ef93f6146105da578063c152a336146105f9578063c1654dc81461062c578063c7e904f114610658575f5ffd5b8063936dd712116100e3578063936dd7121461051f578063a0e67e2b1461053e578063a9a5e3af1461055f578063a9f6c1e21461057e578063ad3cb1cc1461059d575f5ffd5b80636c46a2c5146104ae578063715018a6146104cd57806372b9e087146104e15780638d65cad314610500575f5ffd5b806337f7e1dd116101945780634f1ef286116101645780634f1ef2861461040957806352d1902d1461041c5780635c60da1b1461043057806369fab630146104445780636a70a17f1461048f575f5ffd5b806337f7e1dd1461033c5780633b65c5dd1461039f57806347c9e356146103d657806347caf5fb146103f5575f5ffd5b80631a88210f116101cf5780631a88210f1461027e578063260d9188146102b457806328093985146102ea5780632f54bf6e1461030d575f5ffd5b806304bb9fc11461020057806306af4e0a1461022157806309322fce1461024057806309aec60a1461025f575b5f5ffd5b34801561020b575f5ffd5b5061021f61021a36600461242c565b610785565b005b34801561022c575f5ffd5b5061021f61023b3660046124ad565b610a7e565b34801561024b575f5ffd5b5061021f61025a3660046124cd565b610bbf565b34801561026a575f5ffd5b5061021f6102793660046124ad565b610d05565b348015610289575f5ffd5b5061029d6102983660046124cd565b610d1b565b6040516102ab92919061251e565b60405180910390f35b3480156102bf575f5ffd5b505f546102d2906001600160a01b031681565b6040516001600160a01b0390911681526020016102ab565b3480156102f5575f5ffd5b506102ff60015481565b6040519081526020016102ab565b348015610318575f5ffd5b5061032c6103273660046125af565b610e67565b60405190151581526020016102ab565b348015610347575f5ffd5b506103876103563660046124cd565b60408051602080820183525f91829052928152600383528190208151928301909152546001600160401b0316815290565b60405190516001600160401b031681526020016102ab565b3480156103aa575f5ffd5b5061032c6103b93660046125af565b6001600160a01b03165f908152600a602052604090205460ff1690565b3480156103e1575f5ffd5b5061021f6103f03660046124ad565b610e87565b348015610400575f5ffd5b5061021f610fb4565b61021f610417366004612664565b611088565b348015610427575f5ffd5b506102ff6110a3565b34801561043b575f5ffd5b506102d26110be565b34801561044f575f5ffd5b5061038761045e3660046124cd565b60408051602080820183525f91829052928152600483528190208151928301909152546001600160401b0316815290565b34801561049a575f5ffd5b5061032c6104a93660046124cd565b6110e2565b3480156104b9575f5ffd5b5061021f6104c8366004612754565b611117565b3480156104d8575f5ffd5b5061021f61112b565b3480156104ec575f5ffd5b506102d26104fb3660046127ab565b611146565b34801561050b575f5ffd5b5061021f61051a3660046127dc565b611176565b34801561052a575f5ffd5b5061021f6105393660046124cd565b6112b3565b348015610549575f5ffd5b506105526112c0565b6040516102ab919061283e565b34801561056a575f5ffd5b5061021f610579366004612754565b6112df565b348015610589575f5ffd5b5061021f610598366004612850565b6112f0565b3480156105a8575f5ffd5b506105cd604051806040016040528060058152602001640352e302e360dc1b81525081565b6040516102ab91906128e5565b3480156105e5575f5ffd5b5061021f6105f43660046124cd565b61137f565b348015610604575f5ffd5b506102ff7fd116c8141a03af4e4da955b106de0a9b8627570b09600e574e5e6410ca2028cd81565b348015610637575f5ffd5b5061064b6106463660046124cd565b6113ff565b6040516102ab91906128f7565b348015610663575f5ffd5b5061021f610672366004612909565b61145e565b348015610682575f5ffd5b5061068b61159e565b6040516102ab929190612943565b3480156106a4575f5ffd5b506106f86106b33660046124cd565b604080518082019091525f8082526020820152505f90815260056020908152604091829020825180840190935280548352600101546001600160401b03169082015290565b6040516102ab91906129b0565b348015610710575f5ffd5b506102ff7ff762965bdb8dff81b8c1397e6074e78216cd3eefe37835af6bd83d5348ea57f381565b348015610743575f5ffd5b5061021f6107523660046124cd565b61167b565b348015610762575f5ffd5b5061032c6107713660046124cd565b60026020525f908152604090205460ff1681565b61078d611708565b60028360038111156107a1576107a16129d0565b0361091a575f806107b483850185612a62565b90925090505f5b8251811015610912576107f18382815181106107d9576107d9612abb565b6020026020010151600761173090919063ffffffff16565b61084e5760405162461bcd60e51b815260206004820152602360248201527f53746174654b65657065723a206475706c69636174652072656769737472617460448201526234b7b760e91b60648201526084015b60405180910390fd5b81818151811061086057610860612abb565b6020026020010151600984838151811061087c5761087c612abb565b60200260200101516040516108919190612ae6565b90815260200160405180910390205f6101000a8154816001600160a01b0302191690836001600160a01b031602179055506001600a5f8484815181106108d9576108d9612abb565b6020908102919091018101516001600160a01b031682528101919091526040015f20805460ff19169115159190911790556001016107bb565b505050505050565b600383600381111561092e5761092e6129d0565b03610a31575f61094082840184612af1565b90505f5b8151811015610a2a57600a5f600984848151811061096457610964612abb565b60200260200101516040516109799190612ae6565b9081526040805160209281900383019020546001600160a01b0316835290820192909252015f20805460ff1916905581516009908390839081106109bf576109bf612abb565b60200260200101516040516109d49190612ae6565b90815260405190819003602001902080546001600160a01b03191690558151610a2190839083908110610a0957610a09612abb565b6020026020010151600761173b90919063ffffffff16565b50600101610944565b5050505050565b60405162461bcd60e51b815260206004820152601b60248201527f53746174654b65657065723a20496e76616c6964206d6574686f6400000000006044820152606401610845565b505050565b610a86611746565b5f828152600460209081526040808320848452600590925290912080548414610b0d5760405162461bcd60e51b815260206004820152603360248201527f53746174654b65657065723a206b65657053657373696f6e206e6f7420626f756044820152721b99081d1bc81d1a1a5cc81c185cdcdc1bdc9d606a1b6064820152608401610845565b5f84815260066020908152604080832080548251818502810185019093528083529192909190830182828015610b6057602002820191905f5260205f20905b815481526020019060010190808311610b4c575b509394505f93505050505b81518110156109125784828281518110610b8757610b87612abb565b602002602001015114610bb757610bb786838381518110610baa57610baa612abb565b60200260200101516117a4565b600101610b6b565b610bc7611746565b5f81815260036020526040902080546001600160401b031615801590610bf857508054426001600160401b03909116105b610c545760405162461bcd60e51b815260206004820152602760248201527f53746174654b65657065723a206365727469666963617465206973206e6f7420604482015266195e1c1a5c995960ca1b6064820152608401610845565b5f82815260036020526040808220805467ffffffffffffffff19169055905490516395bc267360e01b8152600481018490526001600160a01b03909116906395bc2673906024015f604051808303815f87803b158015610cb2575f5ffd5b505af1158015610cc4573d5f5f3e3d5ffd5b505050507f51d6e7e7475c981f5a20eebd7c32eedbad5c375ce0c04e69c585e1016884309182604051610cf991815260200190565b60405180910390a15050565b610d0d611746565b610d1782826117a4565b5050565b60608060065f8481526020019081526020015f20805480602002602001604051908101604052809291908181526020018280548015610d7757602002820191905f5260205f20905b815481526020019060010190808311610d63575b5050505050915081516001600160401b03811115610d9757610d976125c8565b604051908082528060200260200182016040528015610ddb57816020015b604080518082019091525f8082526020820152815260200190600190039081610db55790505b5090505f5b8251811015610e615760055f848381518110610dfe57610dfe612abb565b60209081029190910181015182528181019290925260409081015f20815180830190925280548252600101546001600160401b0316918101919091528251839083908110610e4e57610e4e612abb565b6020908102919091010152600101610de0565b50915091565b5f5f516020612d295f395f51905f52610e8081846119c9565b9392505050565b610e8f611746565b42610e9e826309660180612b36565b11610ef75760405162461bcd60e51b815260206004820152602360248201527f53746174654b65657065723a20636572746966696361746520697320657870696044820152621c995960ea1b6064820152608401610845565b5f82815260036020526040808220805467ffffffffffffffff19166001600160401b038516179055905490516368ef2c9560e11b815260048101849052602481018490526001600160a01b039091169063d1de592a906044015f604051808303815f87803b158015610f67575f5ffd5b505af1158015610f79573d5f5f3e3d5ffd5b505060408051858152602081018590527fdd806c7ed389b44cc5098f8ba58fce2b7ae0fd8f94a7362f5e52bf2f5f9cae969350019050610cf9565b7ff0c57e16840df040f15088dc2f81fe391c3923bec73e23a9662efc9c229c6a00805460029190600160401b900460ff1680610ffd575080546001600160401b03808416911610155b1561101b5760405163f92ee8a960e01b815260040160405180910390fd5b805468ffffffffffffffffff19166001600160401b03831617600160401b1781556110446119ea565b805460ff60401b191681556040516001600160401b03831681527fc7f505b2f371ae2175ee4913f4499e1f2633a7b5936321eed1cdaeb6115181d290602001610cf9565b611090611a03565b61109982611aa7565b610d178282611aaf565b5f6110ac611b6b565b505f516020612d095f395f51905f5290565b5f6110dd5f516020612d095f395f51905f52546001600160a01b031690565b905090565b5f818152600460205260408120546001600160401b031615801561111157505f82815260066020526040902054155b92915050565b61111f611708565b61112881611bb4565b50565b611133611708565b61114461113f33611c23565b611c7d565b565b5f6009826040516111579190612ae6565b908152604051908190036020019020546001600160a01b031692915050565b61117e611746565b82611187579091905b5f83815260046020908152604080832084845260059092529091208054156111fb5760405162461bcd60e51b815260206004820152602160248201527f53746174654b65657065723a2073657373696f6e20616c7265616479207573656044820152601960fa1b6064820152608401610845565b5f858152600660209081526040822080546001810182559083529082200184905582546001600160401b031690839061123383612b49565b82546101009290920a6001600160401b0381810219909316918316021790915586835560018301805467ffffffffffffffff1916429092169190911790555060408051868152602081018590527f87092beaddcf0a16fb9360208b92ce770205be7c83981e39e7c040f3365e1d0691015b60405180910390a15050505050565b6112bb611708565b600155565b60605f516020612d295f395f51905f526112d981611cc4565b91505090565b6112e7611708565b61112881611c7d565b6112f8611746565b806113455760405162461bcd60e51b815260206004820181905260248201527f53746174654b65657065723a20656d7074792073657373696f6e2061727261796044820152606401610845565b5f5b81811015611379576113718484848481811061136557611365612abb565b905060200201356117a4565b600101611347565b50505050565b611387611746565b5f8181526002602052604090205460ff16156113e55760405162461bcd60e51b815260206004820152601b60248201527f53746174654b65657065723a207369676e6174757265207573656400000000006044820152606401610845565b5f908152600260205260409020805460ff19166001179055565b5f8181526006602090815260409182902080548351818402810184019094528084526060939283018282801561145257602002820191905f5260205f20905b81548152602001906001019080831161143e575b50505050509050919050565b7ff0c57e16840df040f15088dc2f81fe391c3923bec73e23a9662efc9c229c6a008054600160401b810460ff1615906001600160401b03165f811580156114a25750825b90505f826001600160401b031660011480156114bd5750303b155b9050811580156114cb575080155b156114e95760405163f92ee8a960e01b815260040160405180910390fd5b845467ffffffffffffffff19166001178555831561151357845460ff60401b1916600160401b1785555b61151b6119ea565b5f80546001600160a01b0319166001600160a01b0389811691909117909155600187905561154e906104c8908a16611c23565b831561159457845460ff60401b19168555604051600181527fc7f505b2f371ae2175ee4913f4499e1f2633a7b5936321eed1cdaeb6115181d29060200160405180910390a15b5050505050505050565b6060806115ab6007611cd0565b915081516001600160401b038111156115c6576115c66125c8565b6040519080825280602002602001820160405280156115ef578160200160208202803683370190505b5090505f5b825181101561167657600983828151811061161157611611612abb565b60200260200101516040516116269190612ae6565b9081526040519081900360200190205482516001600160a01b039091169083908390811061165657611656612abb565b6001600160a01b03909216602092830291909101909101526001016115f4565b509091565b611683611746565b5f818152600660209081526040808320805482518185028101850190935280835291929091908301828280156116d657602002820191905f5260205f20905b8154815260200190600101908083116116c2575b509394505f93505050505b8151811015610a795761170083838381518110610baa57610baa612abb565b6001016116e1565b61171133610e67565b611144576040516332b2baa360e01b8152336004820152602401610845565b5f610e808383611cdc565b5f610e808383611d45565b335f908152600a602052604090205460ff166111445760405162461bcd60e51b815260206004820152601f60248201527f53746174654b65657065723a206e6f74206120726567697374726174696f6e006044820152606401610845565b5f8281526004602090815260408083208484526005909252909120805484146118275760405162461bcd60e51b815260206004820152602f60248201527f53746174654b65657065723a2073657373696f6e206e6f7420626f756e64207460448201526e1bc81d1a1a5cc81c185cdcdc1bdc9d608a1b6064820152608401610845565b81546001600160401b031661187e5760405162461bcd60e51b815260206004820152601f60248201527f53746174654b65657065723a206e6f206163746976652073657373696f6e73006044820152606401610845565b7ff762965bdb8dff81b8c1397e6074e78216cd3eefe37835af6bd83d5348ea57f381555f848152600660205260408120905b815481101561199257848282815481106118cc576118cc612abb565b905f5260205f2001540361198a57815482906118ea90600190612b73565b815481106118fa576118fa612abb565b905f5260205f20015482828154811061191557611915612abb565b905f5260205f2001819055508180548061193157611931612b86565b5f8281526020812082015f1990810182905590910190915584546001600160401b031690859061196083612b9a565b91906101000a8154816001600160401b0302191690836001600160401b0316021790555050611992565b6001016118b0565b5060408051868152602081018690527f18b1ebf9bb79fcc8e5ab11ee140888c82f028d83dba90562b8afad91bbc15db091016112a4565b6001600160a01b0381165f9081526001830160205260408120541515610e80565b6119f2611ecd565b6111446119fe33611c23565b611bb4565b306001600160a01b037f0000000000000000000000000000000000000000000000000000000000000000161480611a8957507f00000000000000000000000000000000000000000000000000000000000000006001600160a01b0316611a7d5f516020612d095f395f51905f52546001600160a01b031690565b6001600160a01b031614155b156111445760405163703e46dd60e11b815260040160405180910390fd5b611128611708565b816001600160a01b03166352d1902d6040518163ffffffff1660e01b8152600401602060405180830381865afa925050508015611b09575060408051601f3d908101601f19168201909252611b0691810190612bbb565b60015b611b3157604051634c9c8ce360e01b81526001600160a01b0383166004820152602401610845565b5f516020612d095f395f51905f528114611b6157604051632a87526960e21b815260048101829052602401610845565b610a798383611f16565b306001600160a01b037f000000000000000000000000000000000000000000000000000000000000000016146111445760405163703e46dd60e11b815260040160405180910390fd5b5f516020612d295f395f51905f52611bcc8183611f6b565b611bd6815f6119c9565b15611bf4576040516349e27cff60e01b815260040160405180910390fd5b7f5fd1e185ef572e7f662fcc63b7c9e778b996190372868af5fe137132c811398e82604051610cf9919061283e565b6040805160018082528183019092526060916020808301908036833701905050905081815f81518110611c5857611c58612abb565b60200260200101906001600160a01b031690816001600160a01b031681525050919050565b5f516020612d295f395f51905f52611c958183611fab565b7f0bbb8c3531454b5141cebfe14eba43275a099c31e3357a4653412a08b05ce0cc82604051610cf9919061283e565b60605f610e8083611feb565b60605f610e8083612042565b80516020808301919091205f908152600184019091526040812054611d3e5782546001810184555f8481526020902001611d168382612c4e565b5050815481516020808401919091205f90815260018086019092526040902091909155611111565b505f611111565b80516020808301919091205f8181526001850190925260408220548015611ec3575f611d72600183612b73565b86549091505f90611d8590600190612b73565b9050818114611e79575f875f018281548110611da357611da3612abb565b905f5260205f20018054611db690612bd2565b80601f0160208091040260200160405190810160405280929190818152602001828054611de290612bd2565b8015611e2d5780601f10611e0457610100808354040283529160200191611e2d565b820191905f5260205f20905b815481529060010190602001808311611e1057829003601f168201915b5050505050905080885f018481548110611e4957611e49612abb565b905f5260205f20019081611e5d9190612c4e565b5080516020918201205f90815260018901909152604090208390555b8654879080611e8a57611e8a612b86565b600190038181905f5260205f20015f611ea391906123e2565b90555050505f908152600180850160205260408220919091559050611111565b5f92505050611111565b7ff0c57e16840df040f15088dc2f81fe391c3923bec73e23a9662efc9c229c6a0054600160401b900460ff1661114457604051631afcd79f60e31b815260040160405180910390fd5b611f1f82612119565b6040516001600160a01b038316907fbc7cd75a20ee27fd9adebab32041f755214dbc6bffa90cc0225b39da2e5c2d3b905f90a2805115611f6357610a79828261217c565b610d176121ee565b5f5b8151811015610a7957611fa2828281518110611f8b57611f8b612abb565b60200260200101518461220d90919063ffffffff16565b50600101611f6d565b5f5b8151811015610a7957611fe2828281518110611fcb57611fcb612abb565b60200260200101518461222190919063ffffffff16565b50600101611fad565b6060815f0180548060200260200160405190810160405280929190818152602001828054801561145257602002820191905f5260205f209081548152602001906001019080831161143e5750505050509050919050565b6060815f01805480602002602001604051908101604052809291908181526020015f905b8282101561210e578382905f5260205f2001805461208390612bd2565b80601f01602080910402602001604051908101604052809291908181526020018280546120af90612bd2565b80156120fa5780601f106120d1576101008083540402835291602001916120fa565b820191905f5260205f20905b8154815290600101906020018083116120dd57829003601f168201915b505050505081526020019060010190612066565b505050509050919050565b806001600160a01b03163b5f0361214e57604051634c9c8ce360e01b81526001600160a01b0382166004820152602401610845565b5f516020612d095f395f51905f5280546001600160a01b0319166001600160a01b0392909216919091179055565b60605f5f846001600160a01b0316846040516121989190612ae6565b5f60405180830381855af49150503d805f81146121d0576040519150601f19603f3d011682016040523d82523d5f602084013e6121d5565b606091505b50915091506121e5858383612235565b95945050505050565b34156111445760405163b398979f60e01b815260040160405180910390fd5b5f610e80836001600160a01b038416612291565b5f610e80836001600160a01b0384166122d6565b60608261224a57612245826123b9565b610e80565b815115801561226157506001600160a01b0384163b155b1561228a57604051639996b31560e01b81526001600160a01b0385166004820152602401610845565b5092915050565b5f818152600183016020526040812054611d3e57508154600181810184555f848152602080822090930184905584548482528286019093526040902091909155611111565b5f81815260018301602052604081205480156123b0575f6122f8600183612b73565b85549091505f9061230b90600190612b73565b905080821461236a575f865f01828154811061232957612329612abb565b905f5260205f200154905080875f01848154811061234957612349612abb565b5f918252602080832090910192909255918252600188019052604090208390555b855486908061237b5761237b612b86565b600190038181905f5260205f20015f90559055856001015f8681526020019081526020015f205f905560019350505050611111565b5f915050611111565b8051156123c95780518082602001fd5b60405163d6bda27560e01b815260040160405180910390fd5b5080546123ee90612bd2565b5f825580601f106123fd575050565b601f0160209004905f5260205f209081019061112891905b80821115612428575f8155600101612415565b5090565b5f5f5f6040848603121561243e575f5ffd5b83356004811061244c575f5ffd5b925060208401356001600160401b03811115612466575f5ffd5b8401601f81018613612476575f5ffd5b80356001600160401b0381111561248b575f5ffd5b86602082840101111561249c575f5ffd5b939660209190910195509293505050565b5f5f604083850312156124be575f5ffd5b50508035926020909101359150565b5f602082840312156124dd575f5ffd5b5035919050565b5f8151808452602084019350602083015f5b828110156125145781518652602095860195909101906001016124f6565b5093949350505050565b604081525f61253060408301856124e4565b82810360208401528084518083526020830191506020860192505f5b8181101561258857612572838551805182526020908101516001600160401b0316910152565b602093909301926040929092019160010161254c565b50909695505050505050565b80356001600160a01b03811681146125aa575f5ffd5b919050565b5f602082840312156125bf575f5ffd5b610e8082612594565b634e487b7160e01b5f52604160045260245ffd5b604051601f8201601f191681016001600160401b0381118282101715612604576126046125c8565b604052919050565b5f5f6001600160401b03841115612625576126256125c8565b50601f8301601f191660200161263a816125dc565b91505082815283838301111561264e575f5ffd5b828260208301375f602084830101529392505050565b5f5f60408385031215612675575f5ffd5b61267e83612594565b915060208301356001600160401b03811115612698575f5ffd5b8301601f810185136126a8575f5ffd5b6126b78582356020840161260c565b9150509250929050565b5f6001600160401b038211156126d9576126d96125c8565b5060051b60200190565b5f82601f8301126126f2575f5ffd5b8135612705612700826126c1565b6125dc565b8082825260208201915060208360051b860101925085831115612726575f5ffd5b602085015b8381101561274a5761273c81612594565b83526020928301920161272b565b5095945050505050565b5f60208284031215612764575f5ffd5b81356001600160401b03811115612779575f5ffd5b612785848285016126e3565b949350505050565b5f82601f83011261279c575f5ffd5b610e808383356020850161260c565b5f602082840312156127bb575f5ffd5b81356001600160401b038111156127d0575f5ffd5b6127858482850161278d565b5f5f5f606084860312156127ee575f5ffd5b505081359360208301359350604090920135919050565b5f8151808452602084019350602083015f5b828110156125145781516001600160a01b0316865260209586019590910190600101612817565b602081525f610e806020830184612805565b5f5f5f60408486031215612862575f5ffd5b8335925060208401356001600160401b0381111561287e575f5ffd5b8401601f8101861361288e575f5ffd5b80356001600160401b038111156128a3575f5ffd5b8660208260051b840101111561249c575f5ffd5b5f81518084528060208401602086015e5f602082860101526020601f19601f83011685010191505092915050565b602081525f610e8060208301846128b7565b602081525f610e8060208301846124e4565b5f5f5f6060848603121561291b575f5ffd5b61292484612594565b925061293260208501612594565b929592945050506040919091013590565b5f604082016040835280855180835260608501915060608160051b8601019250602087015f5b8281101561299a57605f198786030184526129858583516128b7565b94506020938401939190910190600101612969565b5050505082810360208401526121e58185612805565b815181526020808301516001600160401b03169082015260408101611111565b634e487b7160e01b5f52602160045260245ffd5b5f82601f8301126129f3575f5ffd5b8135612a01612700826126c1565b8082825260208201915060208360051b860101925085831115612a22575f5ffd5b602085015b8381101561274a5780356001600160401b03811115612a44575f5ffd5b612a53886020838a010161278d565b84525060209283019201612a27565b5f5f60408385031215612a73575f5ffd5b82356001600160401b03811115612a88575f5ffd5b612a94858286016129e4565b92505060208301356001600160401b03811115612aaf575f5ffd5b6126b7858286016126e3565b634e487b7160e01b5f52603260045260245ffd5b5f81518060208401855e5f93019283525090919050565b5f610e808284612acf565b5f60208284031215612b01575f5ffd5b81356001600160401b03811115612b16575f5ffd5b612785848285016129e4565b634e487b7160e01b5f52601160045260245ffd5b8082018082111561111157611111612b22565b5f6001600160401b0382166001600160401b038103612b6a57612b6a612b22565b60010192915050565b8181038181111561111157611111612b22565b634e487b7160e01b5f52603160045260245ffd5b5f6001600160401b03821680612bb257612bb2612b22565b5f190192915050565b5f60208284031215612bcb575f5ffd5b5051919050565b600181811c90821680612be657607f821691505b602082108103612c0457634e487b7160e01b5f52602260045260245ffd5b50919050565b601f821115610a7957805f5260205f20601f840160051c81016020851015612c2f5750805b601f840160051c820191505b81811015610a2a575f8155600101612c3b565b81516001600160401b03811115612c6757612c676125c8565b612c7b81612c758454612bd2565b84612c0a565b6020601f821160018114612cad575f8315612c965750848201515b5f19600385901b1c1916600184901b178455610a2a565b5f84815260208120601f198516915b82811015612cdc5787850151825560209485019460019092019101612cbc565b5084821015612cf957868401515f19600387901b60f8161c191681555b50505050600190811b0190555056fe360894a13ba1a3210667c828492db98dca3e2076cc3735a920a3ca505d382bbc54985b7dba18117ef28d5d113b6eab9fb186b92b1987f5efdadbc365eb2a5cbaa264697066735822122085614b5b8ba1b769e851b8c40670f66d375ec08857b1b45def6bc5c500dc6e4864736f6c634300081c0033",
  "linkReferences": {},
  "deployedLinkReferences": {}
}